:100000000C9463000C948B000C948B000C948B006C
:100010000C948B000C948B000C948B000C948B0034
:100020000C948B000C948B000C948B000C948B0024
:100030000C948B000C948B000C948B000C948B0014
:100040000C94610C0C948B000C945A0F0C94A80F18
:100050000C948B000C948B000C948B000C948B00F4
:100060000C94B20A0C948B000000000024002700BE
:100070002A0000000000250028002B0000000000DE
:1000800023002600290004040404040404040202DA
:100090000202020203030303030301020408102007
:1000A0004080010204081020010204081020000012
:1000B0000007000201000003040600000000000029
:1000C00000002909141111241FBECFEFD8E0DEBFB4
:1000D000CDBF11E0A0E0B1E0ECE7F8E202C005908E
:1000E0000D92AA34B107D9F712E0AAE4B1E001C039
:1000F0001D92AE3FB107E1F710E0C6ECD0E004C0BE
:100100002297FE010E943814C23CD107C9F70E9411
:100110006A110C943C140C9400000F931F938C01F3
:10012000862FF80166834783208791E0958760E0FA
:100130000E94D70DF801868161E00E94160EF80139
:1001400011861286138614861F910F910895CF92FF
:10015000DF92EF92FF920F931F93CF93DF93EC0107
:100160008E8161E00E94160E6AEF70E080E090E000
:100170000E94B70C0E94A90C9B01AC0189859A854D
:10018000AB85BC85281739074A075B0720F4198619
:100190001A861B861C868D85882371F489859A852D
:1001A000AB85BC85281B390B4A0B5B0B205D3740A8
:1001B0004040504008F477C01D860E94A90C698712
:1001C0007A878B879C871C821B821A8219821882ED
:1001D0008E8161E00E94D70D8E8160E00E94160E34
:1001E00064E170E080E090E00E94B70CF8948E81AA
:1001F00061E00E94160E88E290E00E94100D8E8150
:1002000060E00E94D70D81E0EE2400E010E00AC01B
:10021000F39481E090E00E94100D8FEFF81629F41E
:100220000AC0822FFF24C82EDD248E810E946A0E10
:100230008C159D0569F38E810E946A0E282F8FEF21
:10024000F816C9F0043090F000FD10C08E2D869590
:1002500086958695FE01E80FF11D9081990F908398
:1002600088858F1510F491609083E3940F5F1F4F82
:1002700005351105B1F6789487E28E1510F030E05F
:1002800013C030E04C8150E02981888190E0820FDA
:10029000911D2A81820F911D2B81820F911D9070DB
:1002A0004817590709F431E0832FDF91CF911F914F
:1002B0000F91FF90EF90DF90CF900895EF92FF9213
:1002C0000F931F93CF93DF93EC010E94A700882325
:1002D000A9F18F818B3031F08B3080F185518230E4
:1002E00068F507C0688170E080E090E00E94C2126B
:1002F00022C0688170E080E090E00E94C21220E09D
:1003000030E040E853E40E9450137B018C01698186
:1003100070E0882777FD8095982F0E94C4129B017A
:10032000AC01C801B7010E94F61120E030E040E2C4
:1003300051E40E945A12E62F692F0AC08CED92E018
:1003400060E071E00E94DF11E0E070E080EC6FE7B8
:100350002E2F372F482F562FB901CA01DF91CF9189
:100360001F910F91FF90EF900895CF92DF92EF923F
:10037000FF920F931F93CF93DF93EC01C62E0E9441
:10038000A700882309F450C08F818B3041F08B3057
:1003900008F44AC08551823008F046C007C06A811F
:1003A00070E080E090E00E94C21229C0DA806D2DDA
:1003B00070E06F777070882777FD8095982F0E9486
:1003C000C41220E030E040E853E40E9450137B0167
:1003D0008C016B8170E0882777FD8095982F0E94B3
:1003E000C4129B01AC01C801B7010E94F61120E0C4
:1003F00030E040E251E40E945A12D7FC9058CC20E1
:10040000E9F020E030E040E151E40E94501320E0A8
:1004100030E040EA50E40E945A1220E030E040E030
:1004200052E40E94F6110AC08CED92E060E071E0A7
:100430000E94DF1160E070E080EC9FE7DF91CF91D8
:100440001F910F91FF90EF90DF90CF900895DF9272
:10045000EF92FF920F931F937C0101ED11E0C80111
:1004600068E670E00E94B408C80160E00E9471096B
:10047000C8010E94B409C80168E670E047E050E096
:100480000E94C509C8010E94C708282F2F7722950E
:100490002F703AE0D32E2D9D900111248F70820F82
:1004A000F7018083C8010E94C708282F22952F706A
:1004B0002D9D900111248F70820FF7018183C80157
:1004C0000E94C708282F2F7322952F702D9D900111
:1004D00011248F70820FF7018283C8010E94C70820
:1004E000282F22952F702D9D900111248F70820F3F
:1004F000F7018383C8010E94C708282F22952F7017
:100500002D9D900111248F70820FF7018483C80103
:100510000E94C708282F22952F702D9D900111242D
:100520008F70820FF7018583C8010E94C708282FAA
:1005300022952F702D9D900111248F70820FF7014D
:10054000868317821F910F91FF90EF90DF9008959F
:1005500081ED91E00E94C909089580916401909114
:100560006501019731F481ED91E0609172010E9483
:10057000710980916401909165018330910511F0BA
:10058000079741F481ED91E063E771E043E050E0CB
:100590000E9440098091640190916501449741F463
:1005A00081ED91E063E771E044E050E00E94400992
:1005B00080916401909165018E31910511F08897C9
:1005C00041F481ED91E063E771E049E050E00E9481
:1005D000400908950F931F9323C081ED91E00E947D
:1005E000BE08049741F410927101109270011092AC
:1005F0006F0110926E0100916E0110916F0181EDFB
:1006000091E00E94C708F801EE0FFF1FEC59FE4F62
:10061000918380830F5F1F4F10936F0100936E01D2
:1006200081ED91E00E94BE08892BB9F61F910F91D0
:100630000895AF92BF92CF92DF92EF92FF920F9305
:100640001F93DF93CF93CDB7DEB72C970FB6F894F7
:10065000DEBF0FBECDBF80916E0190916F010497F8
:1006600009F0BCC28091700190917101892B09F051
:10067000B5C281E090E09093710180937001809108
:10068000640190916501019731F4809166010E94A7
:100690006A0E8093720180916401909165010297C6
:1006A00031F480916601609168010E94160E80917C
:1006B0006401909165010397B1F4809166010E94F5
:1006C000550D9C0190937D0180937C0160E071E069
:1006D0000E94D21360937401C90160E071E00E942E
:1006E000D213809375018091640190916501049704
:1006F00041F46091680170916901809166010E94E6
:10070000770D8091640190916501059731F4809196
:100710006601609168010E94D70D809164019091FB
:100720006501079709F052C08091660190916701B9
:10073000809383019093840161E00E94D70D8091A2
:10074000830160E00E94160E82E090E00E94100D8E
:100750008091830161E00E94160E85E090E00E9486
:10076000100D8091830160E00E94160E809183013C
:1007700060E00E94D70D8091830161E020E432E4C3
:100780004FE050E00E94BD0E2AE330E040E050E030
:100790000E940714122F032FF42EE52E622F732FC1
:1007A000842F952F20E031E040E050E00E940714B4
:1007B00020937401612F702F8F2D9E2D20E031E04A
:1007C00040E050E00E94071460937501809164013D
:1007D00090916501449709F580917E01882339F451
:1007E0008AE491E00E94270781E080937E018AE4F9
:1007F00091E060E871E041E851E022E831E00E94D8
:1008000029068091800180937401809181018093F9
:1008100075018091820180937601809164019091AD
:1008200065014E9769F580917F01882339F48BE447
:1008300091E00E94A80281E080937F018BE491E027
:100840000E94270280914D018093740180914C0198
:100850008093750180914B018093760180915001C6
:100860008093770190914F0190937801809151018D
:100870008093790190937A0180914E0180937B015E
:100880008091640190916501889709F059C0809129
:10089000680190916901009731F483E591E06091DE
:1008A00066014BE013C08130910531F483E591E09E
:1008B0006091660146E10AC08230910511F003970C
:1008C00041F483E591E06091660145E126E00E94F4
:1008D0008D0083E591E060E00E94B50169837A8331
:1008E0008B839C8383E591E00E945E016D837E8310
:1008F0008F839887DE011196E4E7F1E020E030E095
:1009000004C08D9181932F5F3F4F24303105CCF38C
:1009100084E090E09093860180938501DE01159636
:10092000E8E7F1E024E030E004C08D9181932F5F8F
:100930003F4F28303105CCF3309386012093850159
:10094000809164019091650186349105C9F44091CC
:10095000660181E691E0642F4F5F0E9498087091D4
:10096000680160E080916A0190916B01680F791FC6
:1009700081E691E040E024E000E0EE240E941808C7
:10098000809164019091650187349105C9F440918B
:10099000660181E691E0642F4F5F0E949808709194
:1009A000680160E080916A0190916B01680F791F86
:1009B00081E691E041E024E000E0EE240E94180886
:1009C00080916401909165018834910571F44091A2
:1009D000660181E691E0642F4F5F0E94980881E6EE
:1009E00091E0609168010E943807809164019091C4
:1009F000650189349105C9F44091660181E691E071
:100A0000642F4F5F0E94980881E691E060916A012F
:100A10000E944007898381E691E0BE016F5F7F4FAE
:100A200041E0209168010E94D50780916401909176
:100A300065018A349105A9F44091660181E691E04F
:100A4000642F4F5F0E94980880916A01898381E634
:100A500091E0BE016F5F7F4F41E0209168010E94ED
:100A6000D50780916401909165018B34910509F05F
:100A700048C04091660181E691E0642F4F5F0E947B
:100A8000980880916801909169016AE070E00E9485
:100A9000D21381E691E00E9440078983809168012A
:100AA000909169016AE070E00E94D213682F81E69C
:100AB00091E00E94400780688A8380916A0190914A
:100AC0006B016AE070E00E94D21381E691E00E941F
:100AD00040078B8380916A0190916B016AE070E01E
:100AE0000E94D213682F81E691E00E9440078C8318
:100AF00081E691E0BE016F5F7F4F44E020E00E94FD
:100B0000D50780916401909165018C34910569F558
:100B10004091660181E691E0642F4F5F0E94980842
:100B200010916801A0906A01B0906B01AA0CBB1CE7
:100B3000AA0CBB1CCC24DD2415C0812F0E94550DAE
:100B4000BC0181E691E040E024E000E0EE240E9458
:100B500018086AEF70E080E090E00E94B70C0894FB
:100B6000C11CD11CCA14DB0444F380916401909130
:100B700065018D349105B1F44091660181E691E003
:100B8000642F4F5F0E9498088FEF89878A878B8731
:100B90008C8781E691E0BE01675F7F4F44E020E0F3
:100BA0000E94D50780916401909165018E34910572
:100BB000A9F44091660181E691E0642F4F5F0E94A5
:100BC000980819861A861B861C8681E691E0BE016C
:100BD000675F7F4F44E020E00E94D5072C960FB658
:100BE000F894DEBF0FBECDBFCF91DF911F910F9163
:100BF000FF90EF90DF90CF90BF90AF900895EF926D
:100C0000FF920F931F934CEDE42E42E0F42EC701A8
:100C100040E855E260E070E00E94E30F01ED11E072
:100C2000C80164E070E00E94E809C8016AEE72E061
:100C30000E941F09C8016DEA72E00E942409C701E1
:100C40006AE071E00E94E2111F910F91FF90EF9016
:100C500008952F923F925F926F927F928F929F9210
:100C6000AF92BF92CF92DF92EF92FF920F931F93BA
:100C7000DF93CF93CDB7DEB727970FB6F894DEBFDB
:100C80000FBECDBF1B015D834C833F832E830E942B
:100C9000A90C7B018C010CC00E94A90C6E197F0964
:100CA000800B910B655F7140804090400CF08AC0D2
:100CB00081ED91E00E94BE08181619066CF380E4DD
:100CC0008B838A83898381ED91E00E94C70881ED3F
:100CD00091E06CE470E043E050E00E94C5090E949E
:100CE000A90CAC01CB01DA013C014D016E01089465
:100CF000C11CD11CAA24BB2434C083E0A816B104B3
:100D0000FCF40E94A90C7B018C0137014801F6011B
:100D1000808112C081ED91E00E94C708582E0E9488
:100D2000A90C6E197F09800B910B63337105810546
:100D300091050CF047C0852D803460F7F601808363
:100D40000E94A90C0894C11CD11C66197709880956
:100D50009909655F714080409040A4F50894A11CFA
:100D6000B11C81ED91E00E94BE08892B31F689818A
:100D700090E0880F991F880F991F982F87FD9D5F1E
:100D800095959595F10190838A8190E0880F991F40
:100D9000880F991F982F87FD9D5F95959595EC81FC
:100DA000FD8190838B8190E0880F991F880F991F98
:100DB000982F87FD9D5F95959595EE81FF81908396
:100DC00081E001C080E027960FB6F894DEBF0FBE29
:100DD000CDBFCF91DF911F910F91FF90EF90DF90EA
:100DE000CF90BF90AF909F908F907F906F905F90CB
:100DF0003F902F900895EF92FF920F931F93162F1D
:100E0000042F51EDE52E51E0F52EC7010E94C909CE
:100E1000C7016CE470E00E94B408C701612F0E9412
:100E20007109C701602F0E947109C7010E94B409AE
:100E30001F910F91FF90EF900895462F68E00E9458
:100E4000FB060895462F67E00E94FB0608950F9366
:100E50001F938C0160E00E942207C80160E00E949D
:100E60001D07C80161E00E9422071F910F9108959C
:100E7000FC01683010F06FE001C0685F6283089584
:100E8000E62FF0E0EF70F070EE5EFE4F8081089587
:100E9000FF920F931F93CF93DF93EC01162FFF2444
:100EA000888161E00E94D70D82E390E00E94100DDE
:100EB000012F10E000FF03C0898160E002C089813A
:100EC00061E00E94D70D82E390E00E94100D8881BE
:100ED00060E00E94D70D82E390E00E94100DF39431
:100EE00088E0F81621F015950795102FD9CF888145
:100EF00061E00E94D70D898160E00E94D70D82E3F6
:100F000090E00E94100D888160E00E94D70D82E37E
:100F100090E00E94100D89810E946A0E182F88238C
:100F200021F4898161E00E94D70D82E390E00E9464
:100F3000100D888161E00E94D70D82E390E00E944D
:100F4000100D812F111181E0DF91CF911F910F9131
:100F5000FF9008950F931F938C01FC01818161E044
:100F60000E94D70D82E390E00E94100DF80180816D
:100F700060E00E94D70D82E390E00E94100DF8011E
:100F8000818160E00E94D70D82E390E00E94100D05
:100F90001F910F910895FC01818161E00E94D70D9E
:100FA00082E390E00E94100D0895DF92EF92FF928D
:100FB0000F931F93CF93DF93EC01062FF72ED42EC0
:100FC000122F0E94CB07CE0160E40E944807CE0199
:100FD0000E94AA07CE010E94CB0713701054CE01C5
:100FE000612F0E944807202F3F2DC9017C0110E08E
:100FF00007C0CE01F70161917F010E9448071F5F82
:101000001D15B8F3CE010E94AA07CE010E94CB079E
:101010006A816058CE010E944807CE010E94AA074B
:10102000DF91CF911F910F91FF90EF90DF90089586
:101030005F926F927F928F929F92AF92BF92CF9268
:10104000DF92EF92FF920F931F93DF93CF9300D025
:1010500000D0CDB7DEB75C016B01742E922E602EEE
:101060008E2C28E2E22E21E0F22E9E012F5F3F4FD0
:10107000E1E040E09FE3592ED7010D911C91C6019C
:10108000B8010E94D2136115710561F4772021F433
:10109000EE2311F0433019F4D9015C9216C0D90146
:1010A0001C9213C0E62FF0E0EF70F070EE5EFE4F82
:1010B0008081F9018083609FC001619F900D709FC6
:1010C000900D1124C81AD90AE0E0882031F041308F
:1010D00021F4D9018C9180688C934F5F8EEF9FEF44
:1010E000E80EF91E2F5F3F4F443031F684E090E068
:1010F00089199109BE016F5F7F4F680F791FC50184
:10110000492D262D0E94D5070F900F900F900F901C
:10111000CF91DF911F910F91FF90EF90DF90CF90D3
:10112000BF90AF909F908F907F906F905F90089549
:101130000F931F938C01862FF8016083418360E039
:101140000E94D70DF801818160E00E94D70DF8015F
:10115000808160E00E94160EF801818160E00E94AB
:10116000160E1F910F91089581E08093CC0160933A
:10117000A9011092CA011092CB0108952091A801F3
:1011800030E08091A701281B3109C90108954091E1
:10119000A7018091A801481718F02FEF3FEF0AC070
:1011A000E42FF0E0E957FE4F8081282F30E04F5FB9
:1011B0004093A701C9010895E091A7018091A8017A
:1011C000E81718F0EFEFFFEF06C0F0E0E957FE4F29
:1011D0008081E82FF0E0CF0108950895AC012091BF
:1011E000CF013091D00121153105E1F09091A70197
:1011F0008091A8019817B0F090E008C0FA01EA0FBA
:10120000FB1F8081A957BE4F8C939F5FA92FB0E031
:10121000A617B7079CF31092A7016093A801CB0112
:10122000F90109950895E091CD01F091CE01309733
:1012300029F01092CA011092CB010995089570937C
:10124000D0016093CF0108957093CE016093CD01DA
:1012500008951092D4011092D30188EE93E0A0E09B
:10126000B0E08093D5019093D601A093D701B093BD
:10127000D8018EE291E09093D2018093D10108953C
:10128000CF92DF92EF92FF920F931F93CF93DF9352
:101290007C016B018A018091CC018823A1F0C0E020
:1012A000D0E00DC0D701ED91FC91D601AC0FBD1F70
:1012B0000190F081E02DC7016C9109952196C0172E
:1012C000D10780F304C0CB01642F0E948D0AC801AE
:1012D000DF91CF911F910F91FF90EF90DF90CF9012
:1012E0000895DF93CF930F92CDB7DEB7FC016983EA
:1012F0008091CC018823C9F08091CB01803238F0F5
:1013000081E090E09383828320E030E015C08091FB
:10131000CA01E82FF0E0E655FE4F998190838F5F78
:101320008093CA018093CB0105C0CE01019661E094
:101330000E948D0A21E030E0C9010F90CF91DF912A
:1013400008950F93062F8091A9016AEA71E04091F8
:10135000CB0121E00E94380A1092CA011092CB0101
:101360001092CC010F91089561E00E94A1090895A7
:10137000413208F040E2862F67E871E00E94EF09F1
:101380001092A7018093A801089521E00E94B80956
:1013900008951092A7011092A8011092CA0110920C
:1013A000CB010E94430C08950F931F938C01862F4D
:1013B0000E94EB0983E199E00E94AD0A8EEE98E06D
:1013C0000E94A80AC8010E94C9091F910F9108959F
:1013D0000E94D4090895880F8093BA000895382F89
:1013E000413210F040E042C08091DD018823E1F7F6
:1013F00091E09093DD012093DF018FEF80934A020B
:10140000109205024150409306024F5F9093DE0117
:101410008091DE01330F832B8093DE018091E00108
:10142000813041F41092E0018091DE018093BB0095
:1014300085EC01C085EE8093BC008091DD01813098
:10144000E1F380910502841710F44091050220E039
:1014500030E00AC0FB01E20FF31FD901AB51BE4FD0
:101460008C9180832F5F3F4F2417A0F3842F089522
:101470000F931F93582F122F413210F081E04AC072
:101480008091DD018823E1F782E08093DD01009304
:10149000DF018FEF80934A0210920502409306020B
:1014A000A5EEB1E0FB0102C081918D938E2F861BCA
:1014B0008417D0F31092DE018091DE01550F852B49
:1014C0008093DE018091E001813041F41092E001CF
:1014D0008091DE018093BB0085EC01C085EE809396
:1014E000BC00112321F08091DD018230E1F3809175
:1014F0004A028F3F11F480E00DC080914A02803291
:1015000011F482E007C080914A02803311F084E038
:1015100001C083E01F910F910895482F613210F0B0
:1015200081E008958091DD01843011F082E008951A
:1015300060932802A7E0B2E0842F9C01F90102C069
:1015400081918D938E2F841B8617D0F380E00895B0
:101550009093E4018093E30108959093E2018093D6
:10156000E10108951F920F920FB60F9211242F934D
:101570003F934F935F936F937F938F939F93AF931B
:10158000BF93EF93FF938091B90090E0887F9070B4
:101590008036910509F4F2C081369105CCF5883288
:1015A000910509F47BC089329105B4F4803191052D
:1015B00009F46FC0813191053CF4009709F447C1EB
:1015C000089709F04FC165C08831910509F466C0DC
:1015D000809709F047C182C08034910509F4A4C006
:1015E0008134910544F48033910509F482C0C89791
:1015F00009F038C189C08035910509F489C0883562
:10160000910509F496C08834910509F02BC1AEC04C
:101610008839910509F413C189399105ECF48837AB
:10162000910509F4ABC0893791054CF488369105D2
:1016300009F4A4C08037910509F014C19FC088380F
:10164000910509F4FCC08039910509F49DC08038EA
:10165000910509F007C198C0803B910509F4C6C007
:10166000813B91054CF4803A910509F49FC0883A7A
:10167000910509F0F7C0BAC0803C910509F4E3C0B8
:10168000883C910509F4DFC0883B910509F0EAC068
:10169000C2C08091DE018093BB00CFC09091050253
:1016A00080910602981768F490910502E92FF0E006
:1016B000EB51FE4F80818093BB009F5F90930502AA
:1016C000BCC08091DF01882309F44BC085ED809375
:1016D000BC008091BC0084FDFCCFC2C080E280933E
:1016E0004A0285ED8093BC008091BC0084FDFCCF54
:1016F000B7C080E380934A0285ED8093BC0080915F
:10170000BC0084FDFCCFACC088E380934A029BC040
:10171000809105029091BB00E82FF0E0EB51FE4F65
:1017200090838F5F8093050290910502809106025D
:1017300082C0809105029091BB00E82FF0E0EB5150
:10174000FE4F90838F5F809305028091DF01882395
:1017500041F085ED8093BC008091BC0084FDFCCFFE
:101760007FC081E08093E00184EA6EC085ED8093C4
:10177000BC008091BC0084FDFCCF72C083E08093EC
:10178000DD011092490259C080914902803208F06F
:1017900056C0809149029091BB00E82FF0E0E75DD0
:1017A000FD4F90838F5F8093490247C0809149022B
:1017B000803230F4E0914902F0E0E75DFD4F1082A5
:1017C00085ED8093BC008091BC0084FDFCCF10921D
:1017D000DD0160914902E091E301F091E40189E2C9
:1017E00092E070E00995109249022DC084E0809348
:1017F000DD011092270210922802E091E101F091A0
:10180000E201099580912802882329F481E08093E0
:1018100028021092070290912702E92FF0E0E95F79
:10182000FD4F80818093BB009F5F90932702909132
:10183000270280912802981710F485EC01C085E8F2
:101840008093BC000FC085EC8093BC0009C010924F
:101850004A0285ED8093BC008091BC0084FDFCCFE2
:101860001092DD01FF91EF91BF91AF919F918F9108
:101870007F916F915F914F913F912F910F900FBE8C
:101880000F901F9018951092DD0181E08093DF0189
:101890001092E00182E161E00E94160E83E161E0B6
:1018A0000E94160EE9EBF0E080818E7F80838081BC
:1018B0008D7F808388E48093B80085E48093BC00AA
:1018C00008951F920F920FB60F9211242F933F93FA
:1018D0008F939F93AF93BF9380914F02909150024B
:1018E000A0915102B0915202309153020196A11D74
:1018F000B11D232F2D5F2D3720F02D570196A11DEF
:10190000B11D2093530280934F0290935002A093F5
:101910005102B093520280914B0290914C02A091DF
:101920004D02B0914E020196A11DB11D80934B0254
:1019300090934C02A0934D02B0934E02BF91AF9191
:101940009F918F913F912F910F900FBE0F901F90FD
:1019500018958FB7F89420914F0230915002409122
:101960005102509152028FBFB901CA0108959B01E3
:10197000AC017FB7F89480914B0290914C02A091FA
:101980004D02B0914E0266B5A89B05C06F3F19F09D
:101990000196A11DB11D7FBFBA2FA92F982F8827AF
:1019A000860F911DA11DB11D62E0880F991FAA1F0E
:1019B000BB1F6A95D1F7BC012DC0FFB7F894809189
:1019C0004B0290914C02A0914D02B0914E02E6B5AF
:1019D000A89B05C0EF3F19F00196A11DB11DFFBFE7
:1019E000BA2FA92F982F88278E0F911DA11DB11DE9
:1019F000E2E0880F991FAA1FBB1FEA95D1F7861B4B
:101A0000970B885E9340C8F22150304040405040D0
:101A100068517C4F211531054105510571F6089536
:101A2000019739F0880F991F880F991F0297019726
:101A3000F1F70895789484B5826084BD84B581609F
:101A400084BD85B5826085BD85B5816085BDEEE6C6
:101A5000F0E0808181608083E1E8F0E010828081A5
:101A600082608083808181608083E0E8F0E0808113
:101A700081608083E1EBF0E0808184608083E0EB33
:101A8000F0E0808181608083EAE7F0E0808184601B
:101A90008083808182608083808181608083808177
:101AA000806880831092C1000895982F8E3008F0CE
:101AB0009E509770809111018295880F880F807CCD
:101AC000892B80937C0080917A00806480937A00D7
:101AD00080917A0086FDFCCF2091780040917900BA
:101AE000942F80E030E0282B392BC90108951F93F3
:101AF000CF93DF93182FEB0161E00E94D70D209761
:101B000009F44AC0CF3FD10509F449C0E12FF0E004
:101B1000E255FF4F84918330C1F0843028F4813046
:101B200051F08230B1F50CC0863019F1873049F19F
:101B3000843079F514C084B5806884BDC7BD33C0D6
:101B400084B5806284BDC8BD2EC08091800080684D
:101B500080938000D0938900C093880024C0809136
:101B60008000806280938000D0938B00C0938A00B5
:101B70001AC08091B00080688093B000C093B30019
:101B800012C08091B00080628093B000C093B40016
:101B90000AC0C038D1051CF4812F60E002C0812F3B
:101BA00061E00E94160EDF91CF911F910895CF93AF
:101BB000DF93482F50E0CA0186569F4FFC013491B5
:101BC0004A575F4FFA018491882369F190E0880FAA
:101BD000991FFC01E859FF4FA591B491FC01EE5803
:101BE000FF4FC591D491662351F42FB7F8948C918F
:101BF000932F909589238C93888189230BC0623021
:101C000061F42FB7F8948C91932F909589238C933E
:101C10008881832B88832FBF06C09FB7F8948C914F
:101C2000832B8C939FBFDF91CF910895482F50E075
:101C3000CA0182559F4FFC012491CA0186569F4FCD
:101C4000FC0194914A575F4FFA013491332309F410
:101C500040C0222351F1233071F0243028F4213088
:101C6000A1F0223011F514C02630B1F02730C1F0B8
:101C70002430D9F404C0809180008F7703C0809114
:101C800080008F7D8093800010C084B58F7702C064
:101C900084B58F7D84BD09C08091B0008F7703C06B
:101CA0008091B0008F7D8093B000E32FF0E0EE0FC5
:101CB000FF1FEE58FF4FA591B4912FB7F8946623FC
:101CC00021F48C919095892302C08C91892B8C935F
:101CD0002FBF0895682F70E0CB0182559F4FFC0104
:101CE0002491CB0186569F4FFC0144916A577F4F48
:101CF000FB019491992319F420E030E03CC02223A9
:101D000051F1233071F0243028F42130A1F0223039
:101D100011F514C02630B1F02730C1F02430D9F4C9
:101D200004C0809180008F7703C0809180008F7DF8
:101D30008093800010C084B58F7702C084B58F7DFA
:101D400084BD09C08091B0008F7703C08091B0003E
:101D50008F7D8093B000892F90E0880F991F845861
:101D60009F4FFC01A591B4918C9120E030E0842339
:101D700011F021E030E0C90108958F929F92AF9257
:101D8000BF92CF92DF92EF92FF920F931F93CF9368
:101D9000DF93A82FB0E0CD0186569F4FFC018490C1
:101DA000AA57BF4FFD018491662311F4992401C005
:101DB000982C6FEFA62E6FEFB62E6FEFC62E6FE04A
:101DC000D62EA222B322C422D522682F70E0660F3D
:101DD000771F64587F4FEE24FF248701FB01A591F4
:101DE000B4910BC0EA14FB040C051D0509F44EC0A8
:101DF0000894E11CF11C011D111D8C91882189158D
:101E000089F30CC0EA14FB040C051D0509F43EC05F
:101E10000894E11CF11C011D111D03C0FB01A591DB
:101E2000B4918C918821891569F720E030E040E079
:101E300050E0FB01C591D4910FC0DA01C9018E0DAC
:101E40009F1DA01FB11F8A159B05AC05BD05F1F0B4
:101E50002F5F3F4F4F4F5F4F88818821891569F36E
:101E6000CA01B90125E130E040E050E00E94B3131F
:101E70009B01AC01205F3F4F4F4F5F4F84E0569571
:101E80004795379527958A95D1F704C020E030E033
:101E900040E050E0B901CA01DF91CF911F910F914D
:101EA000FF90EF90DF90CF90BF90AF909F908F907A
:101EB000089508951F920F920FB60F9211242F9339
:101EC0003F934F938F939F93EF93FF938091C00025
:101ED00082FD1DC04091C600209194023091950270
:101EE0002F5F3F4F2F733070809196029091970231
:101EF0002817390771F0E0919402F0919502EC5A9D
:101F0000FD4F4083309395022093940202C080914C
:101F1000C600FF91EF919F918F914F913F912F912B
:101F20000F900FBE0F901F901895E091E802F0916E
:101F3000E902E05CFF4F8191919120813181821B08
:101F4000930B8F739070892B11F00E94590F089595
:101F50001F920F920FB60F9211242F933F938F93DE
:101F60009F93EF93FF932091D8023091D9028091F3
:101F7000DA029091DB022817390731F48091C10011
:101F80008F7D8093C10014C0E091DA02F091DB02F2
:101F9000E856FD4F20818091DA029091DB02019694
:101FA0008F7390709093DB028093DA022093C600C7
:101FB000FF91EF919F918F913F912F910F900FBEC5
:101FC0000F901F901895AF92BF92DF92EF92FF9201
:101FD0000F931F93CF93DF93EC017A018B01DD24E4
:101FE000403081EE580780E0680780E0780711F004
:101FF000DD24D39491E0A92EB12CEC89FD89DD205C
:1020000069F0C50108A002C0880F991F0A94E2F781
:10201000808360E079E08DE390E005C0108260E8A5
:1020200074E88EE190E0A80197010E94E513215029
:10203000304040405040569547953795279580E170
:102040002030380720F0DD2011F0DD24D6CFE889DC
:10205000F9893083EA89FB89208319A2EE89FF89F7
:10206000408121E030E0C9010C8C02C0880F991F2B
:102070000A94E2F7482B4083EE89FF894081C90129
:102080000D8C02C0880F991F0A94E2F7482B4083F9
:10209000EE89FF894081C9010E8C02C0880F991F0B
:1020A0000A94E2F7482B4083EE89FF8980810F8CE8
:1020B00002C0220F331F0A94E2F7209528232083C1
:1020C000DF91CF911F910F91FF90EF90DF90BF9024
:1020D000AF900895DC011C96ED91FC911D97E05C9A
:1020E000FF4F2191319180819181281B390B2F73F2
:1020F0003070C9010895DC011C96ED91FC911D978B
:10210000E05CFF4F20813181E054F040DF01AE5BA5
:10211000BF4F8D919C9111972817390719F42FEF14
:102120003FEF07C08D919C91E80FF91F8081282F08
:1021300030E0C9010895DC011C96ED91FC911D97DA
:10214000E05CFF4F20813181E054F040DF01AE5B65
:10215000BF4F8D919C9111972817390719F42FEFD4
:102160003FEF10C08D919C911197E80FF91F2081CE
:102170008D919C91119701968F73907011969C93FD
:102180008E9330E0C9010895DC0191968C9191976E
:10219000882339F05496ED91FC915597808186FF04
:1021A000F9CF91961C920895CF93DF93EC01EE85C1
:1021B000FF85E05CFF4F20813181E054F0402F5FCC
:1021C0003F4F2F733070DF01AE5BBF4F8D919C91FD
:1021D000119728173907D1F3E05CFF4F8081918177
:1021E000E054F040E80FF91F6083EE85FF85E05C66
:1021F000FF4F31832083EE89FF89208181E090E0C9
:102200000F8C02C0880F991F0A94E2F7282B2083B5
:1022100081E089A3EC89FD8980818064808381E0ED
:1022200090E0DF91CF9108951092DF021092DE02CC
:1022300088EE93E0A0E0B0E08093E0029093E102AA
:10224000A093E202B093E3028EE391E09093DD026B
:102250008093DC0284E592E09093E9028093E802A7
:1022600088E992E09093EB028093EA0285EC90E09B
:102270009093ED028093EC0284EC90E09093EF0257
:102280008093EE0280EC90E09093F1028093F00254
:1022900081EC90E09093F3028093F20282EC90E064
:1022A0009093F5028093F40286EC90E09093F7020D
:1022B0008093F60284E08093F80283E08093F90231
:1022C00087E08093FA0285E08093FB0281E08093AF
:1022D000FC020895CF93DF930E941A0D0E94FF0520
:1022E000C5E9DFE00E9419032097E1F30E94950FF2
:1022F000F9CFCF92DF92EF92FF920F931F93CF937C
:10230000DF937C016B018A01C0E0D0E00FC0D601F1
:102310006D916D01D701ED91FC910190F081E02D5F
:10232000C7010995C80FD91F0150104001151105AB
:1023300071F7CE01DF91CF911F910F91FF90EF9038
:10234000DF90CF900895EF92FF920F931F938C012F
:10235000DC01ED91FC910190F081E02D6DE009959B
:102360007C01D801ED91FC910190F081E02DC80134
:102370006AE009959C012E0D3F1DC9011F910F9127
:10238000FF90EF900895CF93DF93EC0161157105F5
:1023900019F420E030E00FC0DB010D900020E9F7D8
:1023A0001197A61BB70BE881F9810280F381E02D1C
:1023B000AD0109959C01C901DF91CF9108950E945B
:1023C000C3110895EF92FF920F931F937C010E9417
:1023D000C3118C01C7010E94A311080F191FC80166
:1023E0001F910F91FF90EF9008955058BB27AA2797
:1023F0000ED01CC10DD130F012D120F031F49F3F2E
:1024000011F41EF402C10EF4E095E7FBF8C0E92FC9
:102410001ED180F3BA17620773078407950718F077
:1024200071F49EF536C10EF4E0950B2EBA2FA02D57
:102430000B01B90190010C01CA01A0011124FF2771
:10244000591B99F0593F50F4503E68F11A16F0406C
:10245000A22F232F342F4427585FF3CF469537956B
:102460002795A795F0405395C9F77EF41F16BA0B30
:10247000620B730B840BBAF09150A1F0FF0FBB1FDE
:10248000661F771F881FC2F70EC0BA0F621F731F27
:10249000841F48F4879577956795B795F7959E3F84
:1024A00008F0B3CF9395880F08F09927EE0F979512
:1024B000879508950CD0BAC0B2D040F0A9D030F0C2
:1024C00021F45F3F19F09BC05111E4C09EC0BFD002
:1024D00098F39923C9F35523B1F3951B550BBB27EB
:1024E000AA2762177307840738F09F5F5F4F220F98
:1024F000331F441FAA1FA9F333D00E2E3AF0E0E891
:1025000030D091505040E695001CCAF729D0FE2FDC
:1025100027D0660F771F881FBB1F2617370748076E
:10252000AB07B0E809F0BB0B802DBF01FF27935824
:102530005F4F2AF09E3F510568F061C0ABC05F3F1E
:10254000ECF3983EDCF3869577956795B795F7950C
:102550009F5FC9F7880F911D9695879597F9089504
:10256000E1E0660F771F881FBB1F621773078407A0
:10257000BA0720F0621B730B840BBA0BEE1F88F7AF
:10258000E0950895E89409C097FB3EF490958095F6
:10259000709561957F4F8F4F9F4F9923A9F0F92F29
:1025A00096E9BB279395F695879577956795B795A7
:1025B000F111F8CFFAF4BB0F11F460FF1BC06F5F8D
:1025C0007F4F8F4F9F4F16C0882311F096E911C09F
:1025D000772321F09EE8872F762F05C0662371F0C0
:1025E00096E8862F70E060E02AF09A95660F771FD4
:1025F000881FDAF7880F9695879597F9089597F9C8
:102600009F6780E870E060E008959FEF80EC089598
:1026100000240A94161617061806090608950024C1
:102620000A9412161306140605060895092E03943B
:10263000000C11F4882352F0BB0F40F4BF2B11F4AF
:1026400060FF04C06F5F7F4F8F4F9F4F089557FD0E
:102650009058440F551F59F05F3F71F04795880F10
:1026600097FB991F61F09F3F79F0879508951216A7
:1026700013061406551FF2CF4695F1DF08C0161653
:1026800017061806991FF1CF869571056105089404
:102690000895E894BB2766277727CB0197F908951B
:1026A0000BD0C4CFB5DF28F0BADF18F0952309F0BE
:1026B000A6CFABCF1124EECFCADFA0F3959FD1F305
:1026C000950F50E0551F629FF001729FBB27F00DE0
:1026D000B11D639FAA27F00DB11DAA1F649F662735
:1026E000B00DA11D661F829F2227B00DA11D621F84
:1026F000739FB00DA11D621F839FA00D611D221F3E
:10270000749F3327A00D611D231F849F600D211D21
:10271000822F762F6A2F11249F5750408AF0E1F0C4
:1027200088234AF0EE0FFF1FBB1F661F771F881F0D
:1027300091505040A9F79E3F510570F060CFAACF4D
:102740005F3FECF3983EDCF3869577956795B795F8
:10275000F795E7959F5FC1F7FE2B880F911D969522
:10276000879597F90895629FD001739FF001829F2A
:10277000E00DF11D649FE00DF11D929FF00D839F10
:10278000F00D749FF00D659FF00D9927729FB00DAD
:10279000E11DF91F639FB00DE11DF91FBD01CF01C0
:1027A0001124089597FB092E07260AD077FD04D03F
:1027B00049D006D000201AF4709561957F4F089596
:1027C000F6F7909581959F4F0895A1E21A2EAA1BC6
:1027D000BB1BFD010DC0AA1FBB1FEE1FFF1FA217D1
:1027E000B307E407F50720F0A21BB30BE40BF50BCE
:1027F000661F771F881F991F1A9469F76095709557
:10280000809590959B01AC01BD01CF01089597FB88
:10281000092E05260ED057FD04D0D7DF0AD0001CA4
:1028200038F450954095309521953F4F4F4F5F4F6D
:102830000895F6F790958095709561957F4F8F4F2D
:102840009F4F0895AA1BBB1B51E107C0AA1FBB1FC6
:10285000A617B70710F0A61BB70B881F991F5A952C
:10286000A9F780959095BC01CD010895EE0FFF1F4B
:0C2870000590F491E02D0994F894FFCF3E
:10287C0052656164206661696C00526561647921FE
:10288C0000013F065B4F666D7D077F6F777C395E7D
:10289C00797101000A006400E8030000000071096E
:1028AC004009BE08C708DC08ED0800000000D41081
:0A28BC0079116A109B107B10C41004
:00000001FF
