:100000000C9463000C948B000C948B000C948B006C
:100010000C948B000C948B000C948B000C948B0034
:100020000C948B000C948B000C948B000C949A0510
:100030000C948B000C948B000C948B000C948B0014
:100040000C9418080C948B000C948B000C948B006F
:100050000C948B000C948B000C948B000C948B00F4
:100060000C94A7020C948B000000000024002700D1
:100070002A0000000000250028002B0000000000DE
:1000800023002600290004040404040404040202DA
:100090000202020203030303030301020408102007
:1000A0004080010204081020010204081020000012
:1000B0000007000201000003040600000000000029
:1000C00000008D00E40111241FBECFEFD8E0DEBF99
:1000D000CDBF11E0A0E0B1E0E4E6F2E102C005909E
:1000E0000D92A231B107D9F712E0A2E1B1E001C04F
:1000F0001D92AB31B107E1F710E0C6ECD0E004C0CF
:100100002297FE010E942C09C23CD107C9F70E9428
:10011000C0070C9430090C94000082E191E00E9429
:10012000560408958091150190911601019731F4BC
:1001300082E791E0609123010E942C0280911501D9
:1001400090911601039741F482E791E064E271E037
:1001500043E050E00E94FB0108950F931F9323C0DA
:1001600082E791E00E947901049741F41092220104
:10017000109221011092200110921F0100911F0185
:100180001091200182E791E00E948201F801EE0FB8
:10019000FF1FEB5EFE4F918380830F5F1F4F109315
:1001A000200100931F0182E791E00E947901892BD1
:1001B000B9F61F910F91089580911F019091200130
:1001C000049709F077C08091210190912201892B39
:1001D00009F070C081E090E09093220180932101AA
:1001E0008091150190911601019731F480911701CA
:1001F0000E946D0780932301809115019091160153
:10020000029731F480911701609119010E9419073A
:1002100080911501909116010397B1F48091170117
:100220000E9458069C01909328018093270160E06A
:1002300071E00E94C60860932501C90160E071E089
:100240000E94C608809326018091150190911601A5
:10025000049741F46091190170911A01809117017E
:100260000E947A068091150190911601059731F44C
:1002700080911701609119010E94DA0686E090E0F2
:1002800090931601809315016091170170911801E8
:1002900082E191E00E94930587E090E0909316013F
:1002A00080931501609117017091180182E191E02E
:1002B0000E94AC0408950F931F938DE061E00E94AB
:1002C000DA0602E711E0C80164E070E00E947B02F8
:1002D000C8016DEA70E00E94DA01C80162E970E0CD
:1002E0000E94DF0184E061E00E94DA061F910F9115
:1002F000089520914A0130E080914901281B31097D
:10030000C90108954091490180914A01481718F0A8
:100310002FEF3FEF0AC0E42FF0E0E75DFE4F808152
:10032000282F30E04F5F40934901C9010895E091C3
:10033000490180914A01E81718F0EFEFFFEF06C07E
:10034000F0E0E75DFE4F8081E82FF0E0CF010895F7
:100350000895AC0120917001309171012115310592
:10036000E1F09091490180914A019817B0F090E036
:1003700008C0FA01EA0FFB1F8081A75DBE4F8C9376
:100380009F5FA92FB0E0A617B7079CF31092490111
:1003900060934A01CB01F90109950895E0916E013E
:1003A000F0916F01309729F010926B0110926C015F
:1003B0000995089570937101609370010895709389
:1003C0006F0160936E01089510927501109274018F
:1003D00088EE93E0A0E0B0E08093760190937701FF
:1003E000A0937801B093790185E091E09093730137
:1003F000809372010895CF92DF92EF92FF920F9354
:100400001F93CF93DF937C016B018A0180916D0173
:100410008823A1F0C0E0D0E00DC0D701ED91FC91A0
:10042000D601AC0FBD1F0190F081E02DC7016C918A
:1004300009952196C017D10780F304C0CB01642F22
:100440000E948202C801DF91CF911F910F91FF900E
:10045000EF90DF90CF900895DF93CF930F92CDB7B9
:10046000DEB7FC01698380916D018823C9F080911A
:100470006C01803238F081E090E09383828320E049
:1004800030E015C080916B01E82FF0E0E55BFE4F96
:10049000998190838F5F80936B0180936C0105C07D
:1004A000CE01019661E00E94820221E030E0C901A4
:1004B0000F90CF91DF9108951092490110924A0157
:1004C00010926B0110926C010E94380408950F93F2
:1004D0001F938C01862F0E947E028EEC91E00E9479
:1004E000A20289EA91E00E949D02C8010E945C027A
:1004F0001F910F9108950E9467020895880F8093BD
:10050000BA000895482F613210F081E0089580917B
:100510007E01843011F082E008956093C901A8EA59
:10052000B1E0842F9C01F90102C081918D938E2F3F
:10053000841B8617D0F380E0089590938501809303
:1005400084010895909383018093820108951F92FE
:100550000F920FB60F9211242F933F934F935F93F7
:100560006F937F938F939F93AF93BF93EF93FF937B
:100570008091B90090E0887F90708036910509F4F1
:10058000F2C081369105CCF58832910509F47BC023
:1005900089329105B4F48031910509F46FC081313D
:1005A00091053CF4009709F447C1089709F04FC141
:1005B00065C08831910509F466C0809709F047C18C
:1005C00082C08034910509F4A4C08134910544F4BB
:1005D0008033910509F482C0C89709F038C189C0F9
:1005E0008035910509F489C08835910509F496C0D4
:1005F0008834910509F02BC1AEC08839910509F402
:1006000013C189399105ECF48837910509F4ABC021
:10061000893791054CF48836910509F4A4C08037D8
:10062000910509F014C19FC08838910509F4FCC0F8
:100630008039910509F49DC08038910509F007C102
:1006400098C0803B910509F4C6C0813B91054CF4EC
:10065000803A910509F49FC0883A910509F0F7C0E6
:10066000BAC0803C910509F4E3C0883C910509F4C7
:10067000DFC0883B910509F0EAC0C2C080917F01CC
:100680008093BB00CFC09091A6018091A7019817DD
:1006900068F49091A601E92FF0E0EA57FE4F8081BF
:1006A0008093BB009F5F9093A601BCC080918001A6
:1006B000882309F44BC085ED8093BC008091BC0079
:1006C00084FDFCCFC2C080E28093EB0185ED809376
:1006D000BC008091BC0084FDFCCFB7C080E3809358
:1006E000EB0185ED8093BC008091BC0084FDFCCFC4
:1006F000ACC088E38093EB019BC08091A6019091F0
:10070000BB00E82FF0E0EA57FE4F90838F5F8093A5
:10071000A6019091A6018091A70182C08091A601B7
:100720009091BB00E82FF0E0EA57FE4F90838F5F77
:100730008093A60180918001882341F085ED80930C
:10074000BC008091BC0084FDFCCF7FC081E0809321
:10075000810184EA6EC085ED8093BC008091BC006D
:1007600084FDFCCF72C083E080937E011092EA0189
:1007700059C08091EA01803208F056C08091EA01A8
:100780009091BB00E82FF0E0E653FE4F90838F5F1F
:100790008093EA0147C08091EA01803230F4E09111
:1007A000EA01F0E0E653FE4F108285ED8093BC0035
:1007B0008091BC0084FDFCCF10927E016091EA0123
:1007C000E0918401F09185018AEC91E070E0099557
:1007D0001092EA012DC084E080937E011092C8013E
:1007E0001092C901E0918201F091830109958091F5
:1007F000C901882329F481E08093C9011092A801DE
:100800009091C801E92FF0E0E855FE4F8081809378
:10081000BB009F5F9093C8019091C8018091C9016E
:10082000981710F485EC01C085E88093BC000FC0D8
:1008300085EC8093BC0009C01092EB0185ED80939C
:10084000BC008091BC0084FDFCCF10927E01FF9122
:10085000EF91BF91AF919F918F917F916F915F9138
:100860004F913F912F910F900FBE0F901F901895B1
:1008700010927E0181E0809380011092810182E1DB
:1008800061E00E94190783E161E00E941907E9EB2A
:10089000F0E080818E7F808380818D7F808388E4FB
:1008A0008093B80085E48093BC000895FC0180919A
:1008B000EC018C3090F480838F5F8093EC01815049
:1008C00090E0FC01EE0FFF1FE80FF91FE351FE4F10
:1008D00088EB9BE09283818308958FEF8083089556
:1008E000FC0120812C30B8F58181992787FD9095F6
:1008F00048E850E0481B590B440F551F440F551F43
:100900006417750784F08281992787FD909548E5E3
:1009100052E0481B590B440F551F440F551F6417D5
:1009200075070CF4AB0142505040CA01AA2797FD4D
:10093000A095BA2F880F991FAA1FBB1F4FB7F89415
:1009400030E0F901EE0FFF1FE20FF31FE351FE4FFE
:10095000928381834FBF0895AF92BF92CF92DF926F
:10096000EF92FF920F931F93CF93DF93EC019B01C4
:1009700082E0603278070CF048C077FF03C020E0C7
:1009800030E005C0653B710514F024EB30E000D089
:1009900000D0B901882777FD8095982F29813327CA
:1009A00027FD3095E8E8AE2EB12CA21AB30AAA0CA6
:1009B000BB1CAA0CBB1CCC24B7FCC094DC2CEA8169
:1009C000FF27E7FDF09528E532E02E1B3F0B220FB5
:1009D000331F220F331F442737FD4095542FEDB7A7
:1009E000FEB7218332834383548320E030E040E02C
:1009F00050E004EBE02EF12C012D112D0E94CF07C9
:100A00009B010F900F900F900F90CE01B9010E94A3
:100A10007004DF91CF911F910F91FF90EF90DF90C5
:100A2000CF90BF90AF900895CF92DF92EF92FF9258
:100A30001F93CF93DF93EC01162F7A016901888110
:100A40008C3008F064C0862F61E00E94DA0688814D
:100A500090E0FC01EE0FFF1FE80FF91FE351FE4F7E
:100A60001F738081807C812B808380E292E08E19CD
:100A70009F0964E070E00E94C608698380E699E0FF
:100A80008C199D0964E070E00E94C6086A83A88101
:100A90008A2F6CE00E94BA08682F70E0AB01440F07
:100AA000551F460F571F440F551F440F551F20E079
:100AB00030E0C901840F951FFC01EE0FFF1FE80F06
:100AC000F91FE351FE4F808186FD15C02F5F3F4F18
:100AD0002C30310571F724C01092800082E08093A1
:100AE00081001092850010928400B19A80916F006D
:100AF000826080936F008A2F90E0FC01EE0FFF1F51
:100B0000E80FF91FE351FE4F808180648083888164
:100B1000DF91CF911F91FF90EF90DF90CF900895DC
:100B2000672BD1F2E8CF40E252E020E639E00E94A4
:100B3000140508951F920F920FB60F9211242F9350
:100B40003F934F935F936F937F938F939F93AF9355
:100B5000BF93EF93FF938091110287FF05C010921E
:100B60008500109284002BC020911102332727FDAD
:100B700030958091EC0190E02817390704F58091B9
:100B80001102992787FD9095FC01EE0FFF1FE80FDA
:100B9000F91FE351FE4F808186FF11C08091110241
:100BA000992787FD9095FC01EE0FFF1FE80FF91FB5
:100BB000E351FE4F80818F7360E00E94190780919E
:100BC00011028F5F8093110220911102332727FDBC
:100BD00030958091EC0190E0281739070CF04EC059
:100BE000809111028C300CF049C02091840030912A
:100BF000850080911102992787FD9095FC01EE0FE9
:100C0000FF1FE80FF91FE351FE4F81819281280FEA
:100C1000391F309389002093880080911102992711
:100C200087FD9095FC01EE0FFF1FE80FF91FE351C0
:100C3000FE4F808186FF2BC080911102992787FD8E
:100C40009095FC01EE0FFF1FE80FF91FE351FE4FD7
:100C500080818F7361E00E94190719C080E49CE9CC
:100C600005C080918400909185000496909389003E
:100C7000809388008FEF8093110209C080918400D7
:100C800090918500049680549C4940F3EACFFF91EF
:100C9000EF91BF91AF919F918F917F916F915F91F4
:100CA0004F913F912F910F900FBE0F901F9018956D
:100CB000982F8E3008F09E50977080910001829599
:100CC000880F880F807C892B80937C0080917A002C
:100CD000806480937A0080917A0086FDFCCF209119
:100CE000780040917900942F80E030E0282B392B58
:100CF000C90108951F93CF93DF93182FEB0161E093
:100D00000E94DA06209709F44AC0CF3FD10509F4C2
:100D100049C0E12FF0E0E255FF4F84918330C1F0EC
:100D2000843028F4813051F08230B1F50CC0863027
:100D300019F1873049F1843079F514C084B58068A1
:100D400084BDC7BD33C084B5806284BDC8BD2EC01C
:100D500080918000806880938000D0938900C09348
:100D6000880024C080918000806280938000D093AE
:100D70008B00C0938A001AC08091B0008068809375
:100D8000B000C093B30012C08091B0008062809325
:100D9000B000C093B4000AC0C038D1051CF4812F44
:100DA00060E002C0812F61E00E941907DF91CF91BE
:100DB0001F910895CF93DF93482F50E0CA018656C4
:100DC0009F4FFC0134914A575F4FFA018491882369
:100DD00069F190E0880F991FFC01E859FF4FA59138
:100DE000B491FC01EE58FF4FC591D491662351F4A4
:100DF0002FB7F8948C91932F909589238C938881A9
:100E000089230BC0623061F42FB7F8948C91932F33
:100E1000909589238C938881832B88832FBF06C06C
:100E20009FB7F8948C91832B8C939FBFDF91CF91C8
:100E30000895482F50E0CA0182559F4FFC0124912C
:100E4000CA0186569F4FFC0194914A575F4FFA01A1
:100E50003491332309F440C0222351F1233071F03F
:100E6000243028F42130A1F0223011F514C02630AE
:100E7000B1F02730C1F02430D9F404C08091800053
:100E80008F7703C0809180008F7D8093800010C099
:100E900084B58F7702C084B58F7D84BD09C08091F1
:100EA000B0008F7703C08091B0008F7D8093B00039
:100EB000E32FF0E0EE0FFF1FEE58FF4FA591B49126
:100EC0002FB7F894662321F48C919095892302C062
:100ED0008C91892B8C932FBF0895682F70E0CB01E4
:100EE00082559F4FFC012491CB0186569F4FFC01F8
:100EF00044916A577F4FFB019491992319F420E0A4
:100F000030E03CC0222351F1233071F0243028F42A
:100F10002130A1F0223011F514C02630B1F0273075
:100F2000C1F02430D9F404C0809180008F7703C0D1
:100F3000809180008F7D8093800010C084B58F7772
:100F400002C084B58F7D84BD09C08091B0008F77C9
:100F500003C08091B0008F7D8093B000892F90E016
:100F6000880F991F84589F4FFC01A591B4918C91D3
:100F700020E030E0842311F021E030E0C901089541
:100F8000CF93DF930E9460080E945B01C0E0D0E035
:100F90000E94DC002097E1F30E940000F9CF2F921D
:100FA0003F924F925F926F927F928F929F92AF92F9
:100FB000BF92CF92DF92EF92FF920F931F93DF9336
:100FC000CF93CDB7DEB73B014C0119012A016D89E2
:100FD0007E898F89988D6A197B098C099D09621A0F
:100FE000730A840A950AA40193010E949B08E218DF
:100FF000F30804091509A80197010E94FB082A0DAE
:101000003B1D4C1D5D1DB901CA01CF91DF911F91A0
:101010000F91FF90EF90DF90CF90BF90AF909F9097
:101020008F907F906F905F904F903F902F9008959A
:101030001F920F920FB60F9211242F933F938F930D
:101040009F93AF93BF938091160290911702A09146
:101050001802B091190230911A020196A11DB11D1A
:10106000232F2D5F2D3720F02D570196A11DB11D87
:1010700020931A028093160290931702A0931802ED
:10108000B09319028091120290911302A091140260
:10109000B09115020196A11DB11D8093120290938B
:1010A0001302A0931402B0931502BF91AF919F91C8
:1010B0008F913F912F910F900FBE0F901F90189519
:1010C000789484B5826084BD84B5816084BD85B523
:1010D000826085BD85B5816085BDEEE6F0E08081EA
:1010E00081608083E1E8F0E010828081826080830B
:1010F000808181608083E0E8F0E08081816080838E
:10110000E1EBF0E0808184608083E0EBF0E08081BF
:1011100081608083EAE7F0E0808184608083808161
:101120008260808380818160808380818068808309
:101130001092C1000895629FD001739FF001829FB9
:10114000E00DF11D649FE00DF11D929FF00D839F56
:10115000F00D749FF00D659FF00D9927729FB00DF3
:10116000E11DF91F639FB00DE11DF91FBD01CF0106
:1011700011240895991B79E004C0991F961708F06F
:10118000961B881F7A95C9F78095089597FB092EBD
:1011900007260AD077FD04D049D006D000201AF4E3
:1011A000709561957F4F0895F6F7909581959F4FC3
:1011B0000895A1E21A2EAA1BBB1BFD010DC0AA1F98
:1011C000BB1FEE1FFF1FA217B307E407F50720F0B0
:1011D000A21BB30BE40BF50B661F771F881F991F2B
:1011E0001A9469F760957095809590959B01AC0174
:1011F000BD01CF01089597FB092E05260ED057FD9E
:1012000004D0D7DF0AD0001C38F4509540953095B3
:1012100021953F4F4F4F5F4F0895F6F7909580957A
:10122000709561957F4F8F4F9F4F0895AA1BBB1BF1
:1012300051E107C0AA1FBB1FA617B70710F0A61BD6
:10124000B70B881F991F5A95A9F780959095BC01F7
:10125000CD010895EE0FFF1F0590F491E02D099444
:04126000F894FFCF30
:1012640001000000002C02FB01790182019701A812
:02127400010077
:00000001FF
