:100000000C9463000C948B000C948B000C948B006C
:100010000C948B000C948B000C948B000C948B0034
:100020000C948B000C948B000C948B000C948B0024
:100030000C948B000C948B000C948B000C948B0014
:100040000C941A0B0C948B000C94130E0C94610EF0
:100050000C948B000C948B000C948B000C948B00F4
:100060000C946B090C948B00000000002400270006
:100070002A0000000000250028002B0000000000DE
:1000800023002600290004040404040404040202DA
:100090000202020203030303030301020408102007
:1000A0004080010204081020010204081020000012
:1000B0000007000201000003040600000000000029
:1000C0000000E207CD0F11241FBECFEFD8E0DEBF46
:1000D000CDBF11E0A0E0B1E0E8E5F8E202C0059094
:1000E0000D92A833B107D9F712E0A8E3B1E001C03F
:1000F0001D92A43FB107E1F710E0C6ECD0E004C0C8
:100100002297FE010E942614C23CD107C9F70E9423
:1001100023100C942A140C9400000F931F93CF9378
:10012000DF93689F8001699F100D789F100D112447
:10013000C8010E94AE10EC01009729F060E070E069
:10014000A8010E94A900CE01DF91CF911F910F91CC
:100150000895DC0101C06D9341505040E0F70895CF
:100160000F931F938C01FC01808160E00E94CF0CF3
:1001700084E190E00E94C90BF801808161E00E9457
:10018000CF0C84E190E00E94C90B1F910F9108955C
:100190000F931F93CF93DF93EC01062F10E007FF1F
:1001A00003C0898161E002C0898160E00E94CF0CB8
:1001B000CE010E94B0001F5F183011F0000FEFCF8A
:1001C000DF91CF911F910F910895FF920F931F938D
:1001D000CF93DF93EC01F62E042F122F27FD02C0E0
:1001E00060EE01C060EC16FF606107FF686006FF0B
:1001F0006460F7FE6260F6FE6160CE010E94C80096
:10020000CE01612F0E94C800CE01602F0E94C8005D
:10021000CE016F2D0E94C800DF91CF911F910F91E9
:10022000FF9008956F927F928F929F92AF92BF92AC
:10023000CF92DF92EF92FF920F931F93CF93DF93B2
:10024000EC01E62E742E822E902E60E00E94C800F3
:10025000CE0160E00E94C800CE0160E00E94C800AC
:10026000CE0160E00E94C80083E0E89E8001112476
:1002700058010894A11CB11C92E0C92ED12CC00ECB
:10028000D11EFF2483E0682E1FC0FE1479F4EB8199
:10029000FC81E00FF11F7082EB81FC81EA0DFB1DF8
:1002A0008082EB81FC81EC0DFD1D9082EB81FC8155
:1002B000F69CC0011124E80FF91FCE016081418135
:1002C00022810E94E500F3948A81F816F0F2CE01B3
:1002D00060E00E94C800CE0160E00E94C800CE012C
:1002E00060E00E94C800CE0160E00E94C800DF917B
:1002F000CF911F910F91FF90EF90DF90CF90BF9023
:10030000AF909F908F907F906F9008950F931F9361
:10031000CF93DF93EC01862F688349832A8361E0C2
:100320000E94900C898161E00E94900C9A8183E088
:10033000989FC001112461E070E00E948D008B83C2
:100340009C8310E008C0CE01612F40E020E000E077
:100350000E9412011F5F8A811817A8F3DF91CF91C5
:100360001F910F9108950F931F938C01862FF80111
:1003700066834783208791E0958760E00E94900C18
:10038000F801868161E00E94CF0CF8011186128687
:10039000138614861F910F910895CF92DF92EF92EA
:1003A000FF920F931F93CF93DF93EC018E8161E057
:1003B0000E94CF0C6AEF70E080E090E00E94700B2A
:1003C0000E94620B9B01AC0189859A85AB85BC8537
:1003D000281739074A075B0720F419861A861B86F7
:1003E0001C868D85882371F489859A85AB85BC85AB
:1003F000281B390B4A0B5B0B205D374040405040B7
:1004000008F477C01D860E94620B69877A878B8704
:100410009C871C821B821A82198218828E8161E05D
:100420000E94900C8E8160E00E94CF0C64E170E02D
:1004300080E090E00E94700BF8948E8161E00E9451
:10044000CF0C88E290E00E94C90B8E8160E00E9490
:10045000900C81E0EE2400E010E00AC0F39481E00B
:1004600090E00E94C90B8FEFF81629F40AC0822F82
:10047000FF24C82EDD248E810E94230D8C159D053E
:1004800069F38E810E94230D282F8FEFF816C9F093
:10049000043090F000FD10C08E2D869586958695CF
:1004A000FE01E80FF11D9081990F908388858F15CB
:1004B00010F491609083E3940F5F1F4F0535110591
:1004C000B1F6789487E28E1510F030E013C030E07A
:1004D0004C8150E02981888190E0820F911D2A8112
:1004E000820F911D2B81820F911D90704817590723
:1004F00009F431E0832FDF91CF911F910F91FF908D
:10050000EF90DF90CF900895EF92FF920F931F939B
:10051000CF93DF93EC010E94CD018823A9F18F8155
:100520008B3031F08B3080F18551823068F507C017
:10053000688170E080E090E00E94B01222C0688183
:1005400070E080E090E00E94B01220E030E040E8EF
:1005500053E40E943E137B018C01698170E088277F
:1005600077FD8095982F0E94B2129B01AC01C801C3
:10057000B7010E94E41120E030E040E251E40E9423
:100580004812E62F692F0AC08EEC92E060E071E01D
:100590000E949810E0E070E080EC6FE72E2F372F7C
:1005A000482F562FB901CA01DF91CF911F910F91AA
:1005B000FF90EF900895CF92DF92EF92FF920F930A
:1005C0001F93CF93DF93EC01C62E0E94CD018823A9
:1005D00009F450C08F818B3041F08B3008F44AC051
:1005E0008551823008F046C007C06A8170E080E023
:1005F00090E00E94B01229C0DA806D2D70E06F7714
:100600007070882777FD8095982F0E94B21220E0A5
:1006100030E040E853E40E943E137B018C016B8183
:1006200070E0882777FD8095982F0E94B2129B0179
:10063000AC01C801B7010E94E41120E030E040E2C3
:1006400051E40E944812D7FC9058CC20E9F020E0F9
:1006500030E040E151E40E943E1320E030E040EA07
:1006600050E40E94481220E030E040E052E40E9452
:10067000E4110AC08EEC92E060E071E00E949810F4
:1006800060E070E080EC9FE7DF91CF911F910F91C8
:10069000FF90EF90DF90CF900895DF92EF92FF925E
:1006A0000F931F937C0103EC11E0C80168E670E032
:1006B0000E946D07C80160E00E942A08C8010E94DC
:1006C0006D08C80168E670E047E050E00E947E08CF
:1006D000C8010E948007282F2F7722952F703AE0BB
:1006E000D32E2D9D900111248F70820FF7018083EE
:1006F000C8010E948007282F22952F702D9D900100
:1007000011248F70820FF7018183C8010E94800736
:10071000282F2F7322952F702D9D900111248F70FB
:10072000820FF7018283C8010E948007282F22953B
:100730002F702D9D900111248F70820FF7018383FC
:10074000C8010E948007282F22952F702D9D9001AF
:1007500011248F70820FF7018483C8010E948007E3
:10076000282F22952F702D9D900111248F70820FBC
:10077000F7018583C8010E948007282F22952F70DA
:100780002D9D900111248F70820FF70186831782AF
:100790001F910F91FF90EF90DF90089583EC91E00F
:1007A0000E94820808958091560190915701019707
:1007B00031F483EC91E0609164010E942A088091F9
:1007C0005601909157018330910511F0079741F43C
:1007D00083EC91E065E671E043E050E00E94F907A8
:1007E0008091560190915701449741F483EC91E038
:1007F00065E671E044E050E00E94F90780915601FF
:10080000909157018E31910511F0889741F483EC56
:1008100091E065E671E049E050E00E94F907089533
:100820000F931F9323C083EC91E00E9477070497F6
:1008300041F41092630110926201109261011092D2
:100840006001009160011091610183EC91E00E94D0
:100850008007F801EE0FFF1FEA5AFE4F9183808355
:100860000F5F1F4F109361010093600183EC91E0D3
:100870000E947707892BB9F61F910F910895EF9287
:10088000FF920F931F93DF93CF93CDB7DEB72897D7
:100890000FB6F894DEBF0FBECDBF8091600190917E
:1008A0006101049709F0D3C18091620190916301C5
:1008B000892B09F0CCC181E090E090936301809393
:1008C00062018091560190915701019731F4809116
:1008D00058010E94230D80936401809156019091EC
:1008E0005701029731F48091580160915A010E949A
:1008F000CF0C80915601909157010397B1F48091EC
:1009000058010E940E0C9C0190936F0180936E0120
:1009100060E071E00E94C01360936601C90160E06D
:1009200071E00E94C01380936701809156019091FD
:100930005701049741F460915A0170915B018091D5
:1009400058010E94300C80915601909157010597F3
:1009500031F48091580160915A010E94900C80916D
:10096000560190915701079709F052C080915801A4
:1009700090915901809375019093760161E00E94F6
:10098000900C8091750160E00E94CF0C82E090E0B5
:100990000E94C90B8091750161E00E94CF0C85E037
:1009A00090E00E94C90B8091750160E00E94CF0C1D
:1009B0008091750160E00E94900C8091750161E06A
:1009C00020E432E44FE050E00E94760D2AE330E06C
:1009D00040E050E00E94F513122F032FF42EE52E75
:1009E000622F732F842F952F20E031E040E050E0FC
:1009F0000E94F51320936601612F702F8F2D9E2D7D
:100A000020E031E040E050E00E94F5136093670180
:100A10008091560190915701449709F5809170019A
:100A2000882339F488E391E00E945C0781E0809399
:100A3000700188E391E062E771E043E751E024E769
:100A400031E00E945E068091720180936601809180
:100A50007301809367018091740180936801809194
:100A60005601909157014E9769F580917101882345
:100A700039F489E391E00E94CE0381E08093710113
:100A800089E391E00E944D0380913B0180936601D0
:100A900080913A01809367018091390180936801C8
:100AA00080913E018093690190913D0190936A018C
:100AB00080913F0180936B0190936C0180913C0188
:100AC00080936D018091560190915701889709F0AC
:100AD00059C080915A0190915B01009731F481E4F3
:100AE00091E0609158014BE013C08130910531F4E1
:100AF00081E491E06091580146E10AC0823091059D
:100B000011F0039741F481E491E06091580145E1CF
:100B100026E00E94B30181E491E060E00E94DB02E4
:100B200069837A838B839C8381E491E00E948402B1
:100B30006D837E838F839887DE011196E6E6F1E070
:100B400020E030E004C08D9181932F5F3F4F24302F
:100B50003105CCF384E090E09093780180937701A5
:100B6000DE011596EAE6F1E024E030E004C08D9164
:100B700081932F5F3F4F28303105CCF330937801BC
:100B8000209377018CE390E0909357018093560176
:100B9000409158018FE491E0642F4F5F20915A01FA
:100BA0000E9486018FE491E060E04FEF20E000E0DA
:100BB0000E9412018FE491E061E040E02FEF0E947B
:100BC00012018FE491E062E040E020E00FEF0E942C
:100BD00012018FE491E063E04FEF2FEF00E00E94FD
:100BE00012018FE491E064E04FEF20E00FEF0E94EC
:100BF00012018FE491E065E040E02FEF0E941201C6
:100C00008DE390E0909357018093560140915801F5
:100C10008FE491E0642F4F5F20915A010E9486017A
:100C200000915C0180915D01009354018093550116
:100C30008EE390E090935701809356018FE491E00A
:100C4000602F4091580120915A010E94120128966C
:100C50000FB6F894DEBF0FBECDBFCF91DF911F91CD
:100C60000F91FF90EF900895EF92FF920F931F93D3
:100C70003EECE32E32E0F32EC70140E855E260E09F
:100C800070E00E949C0E03EC11E0C80164E070E08B
:100C90000E94A108C80160E174E00E94D807C80161
:100CA00063ED73E00E94DD07C7016AE071E00E9416
:100CB0009B101F910F91FF90EF9008952F923F92FC
:100CC0005F926F927F928F929F92AF92BF92CF92DC
:100CD000DF92EF92FF920F931F93DF93CF93CDB7E5
:100CE000DEB727970FB6F894DEBF0FBECDBF1B014E
:100CF0005D834C833F832E830E94620B7B018C01BA
:100D00000CC00E94620B6E197F09800B910B655F0E
:100D10007140804090400CF08AC083EC91E00E94CA
:100D20007707181619066CF380E48B838A8389830E
:100D300083EC91E00E94800783EC91E06CE470E02A
:100D400043E050E00E947E080E94620BAC01CB01A0
:100D5000DA013C014D016E010894C11CD11CAA248A
:100D6000BB2434C083E0A816B104FCF40E94620BDB
:100D70007B018C0137014801F601808112C083ECB0
:100D800091E00E948007582E0E94620B6E197F0925
:100D9000800B910B63337105810591050CF047C001
:100DA000852D803460F7F60180830E94620B0894E1
:100DB000C11CD11C6619770988099909655F7140C2
:100DC00080409040A4F50894A11CB11C83EC91E0F4
:100DD0000E947707892B31F6898190E0880F991F4F
:100DE000880F991F982F87FD9D5F95959595F10127
:100DF00090838A8190E0880F991F880F991F982F00
:100E000087FD9D5F95959595EC81FD8190838B8104
:100E100090E0880F991F880F991F982F87FD9D5F7D
:100E200095959595EE81FF81908381E001C080E0EA
:100E300027960FB6F894DEBF0FBECDBFCF91DF91DE
:100E40001F910F91FF90EF90DF90CF90BF90AF90E8
:100E50009F908F907F906F905F903F902F9008951C
:100E6000EF92FF920F931F93162F042F53ECE52E52
:100E700051E0F52EC7010E948208C7016CE470E0C2
:100E80000E946D07C701612F0E942A08C701602FC9
:100E90000E942A08C7010E946D081F910F91FF90C0
:100EA000EF900895462F68E00E9430070895462F7E
:100EB00067E00E94300708950F931F938C0160E054
:100EC0000E945707C80160E00E945207C80161E014
:100ED0000E9457071F910F91089581E08093BE01F2
:100EE00060939B011092BC011092BD010895209166
:100EF0009A0130E080919901281B3109C9010895B8
:100F00004091990180919A01481718F02FEF3FEF17
:100F10000AC0E42FF0E0E758FE4F8081282F30E030
:100F20004F5F40939901C9010895E0919901809123
:100F30009A01E81718F0EFEFFFEF06C0F0E0E7586E
:100F4000FE4F8081E82FF0E0CF0108950895AC01B5
:100F50002091C1013091C20121153105E1F090913C
:100F6000990180919A019817B0F090E008C0FA01B9
:100F7000EA0FFB1F8081A758BE4F8C939F5FA92F5C
:100F8000B0E0A617B7079CF31092990160939A01FD
:100F9000CB01F90109950895E091BF01F091C001DD
:100FA000309729F01092BC011092BD010995089567
:100FB0007093C2016093C10108957093C001609362
:100FC000BF0108951092C6011092C50188EE93E00A
:100FD000A0E0B0E08093C7019093C801A093C9013D
:100FE000B093CA018CE191E09093C4018093C30156
:100FF0000895CF92DF92EF92FF920F931F93CF93BA
:10100000DF937C016B018A018091BE018823A1F0EE
:10101000C0E0D0E00DC0D701ED91FC91D601AC0F3E
:10102000BD1F0190F081E02DC7016C9109952196BB
:10103000C017D10780F304C0CB01642F0E9446097A
:10104000C801DF91CF911F910F91FF90EF90DF903A
:10105000CF900895DF93CF930F92CDB7DEB7FC0109
:1010600069838091BE018823C9F08091BD018032DF
:1010700038F081E090E09383828320E030E015C077
:101080008091BC01E82FF0E0E456FE4F99819083F7
:101090008F5F8093BC018093BD0105C0CE01019696
:1010A00061E00E94460921E030E0C9010F90CF9134
:1010B000DF9108950F93062F80919B016CE971E0F9
:1010C0004091BD0121E00E94F1081092BC011092F4
:1010D000BD011092BE010F91089561E00E945A086F
:1010E0000895413208F040E2862F69E771E00E94DE
:1010F000A8081092990180939A01089521E00E9416
:10110000710808951092990110929A011092BC01F1
:101110001092BD010E94FC0A08950F931F938C0149
:10112000862F0E94A4088CEC97E00E94660987EA4B
:1011300097E00E946109C8010E9482081F910F91E7
:1011400008950E948D080895880F8093BA0008952D
:10115000382F413210F040E042C08091CF01882307
:10116000E1F791E09093CF012093D1018FEF80932D
:101170003C021092F70141504093F8014F5F909369
:10118000D0018091D001330F832B8093D0018091C7
:10119000D201813041F41092D2018091D00180932C
:1011A000BB0085EC01C085EE8093BC008091CF012F
:1011B0008130E1F38091F701841710F44091F70139
:1011C00020E030E00AC0FB01E20FF31FD901A95271
:1011D000BE4F8C9180832F5F3F4F2417A0F3842F45
:1011E00008950F931F93582F122F413210F081E072
:1011F0004AC08091CF018823E1F782E08093CF013C
:101200000093D1018FEF80933C021092F70140933D
:10121000F801A7EDB1E0FB0102C081918D938E2F03
:10122000861B8417D0F31092D0018091D001550F06
:10123000852B8093D0018091D201813041F41092AE
:10124000D2018091D0018093BB0085EC01C085EE76
:101250008093BC00112321F08091CF018230E1F313
:1012600080913C028F3F11F480E00DC080913C02E0
:10127000803211F482E007C080913C02803311F08B
:1012800084E001C083E01F910F910895482F6132DF
:1012900010F081E008958091CF01843011F082E058
:1012A000089560931A02A9EFB1E0842F9C01F9011F
:1012B00002C081918D938E2F841B8617D0F380E01E
:1012C00008959093D6018093D50108959093D40109
:1012D0008093D30108951F920F920FB60F9211249D
:1012E0002F933F934F935F936F937F938F939F932E
:1012F000AF93BF93EF93FF938091B90090E0887F05
:1013000090708036910509F4F2C081369105CCF5D4
:101310008832910509F47BC089329105B4F480319B
:10132000910509F46FC0813191053CF4009709F4EF
:1013300047C1089709F04FC165C08831910509F48C
:1013400066C0809709F047C182C08034910509F4D6
:10135000A4C08134910544F48033910509F482C01E
:10136000C89709F038C189C08035910509F489C052
:101370008835910509F496C08834910509F02BC190
:10138000AEC08839910509F413C189399105ECF48F
:101390008837910509F4ABC0893791054CF488363C
:1013A000910509F4A4C08037910509F014C19FC0CC
:1013B0008838910509F4FCC08039910509F49DC075
:1013C0008038910509F007C198C0803B910509F468
:1013D000C6C0813B91054CF4803A910509F49FC049
:1013E000883A910509F0F7C0BAC0803C910509F42C
:1013F000E3C0883C910509F4DFC0883B910509F002
:10140000EAC0C2C08091D0018093BB00CFC0909150
:10141000F7018091F801981768F49091F701E92F8E
:10142000F0E0E952FE4F80818093BB009F5F909374
:10143000F701BCC08091D101882309F44BC085ED30
:101440008093BC008091BC0084FDFCCFC2C080E2D0
:1014500080933C0285ED8093BC008091BC0084FDAC
:10146000FCCFB7C080E380933C0285ED8093BC0045
:101470008091BC0084FDFCCFACC088E380933C022B
:101480009BC08091F7019091BB00E82FF0E0E952FA
:10149000FE4F90838F5F8093F7019091F7018091C9
:1014A000F80182C08091F7019091BB00E82FF0E035
:1014B000E952FE4F90838F5F8093F7018091D101B5
:1014C000882341F085ED8093BC008091BC0084FDB1
:1014D000FCCF7FC081E08093D20184EA6EC085EDAD
:1014E0008093BC008091BC0084FDFCCF72C083E07F
:1014F0008093CF0110923B0259C080913B02803211
:1015000008F056C080913B029091BB00E82FF0E0BC
:10151000E55EFD4F90838F5F80933B0247C08091D3
:101520003B02803230F4E0913B02F0E0E55EFD4F9B
:10153000108285ED8093BC008091BC0084FDFCCFBF
:101540001092CF0160913B02E091D501F091D6015C
:101550008BE192E070E0099510923B022DC084E08F
:101560008093CF011092190210921A02E091D301D8
:10157000F091D401099580911A02882329F481E021
:1015800080931A021092F90190911902E92FF0E06C
:10159000E750FE4F80818093BB009F5F90931902BC
:1015A0009091190280911A02981710F485EC01C0ED
:1015B00085E88093BC000FC085EC8093BC0009C017
:1015C00010923C0285ED8093BC008091BC0084FDAC
:1015D000FCCF1092CF01FF91EF91BF91AF919F91FE
:1015E0008F917F916F915F914F913F912F910F90CC
:1015F0000FBE0F901F9018951092CF0181E080933D
:10160000D1011092D20182E161E00E94CF0C83E10E
:1016100061E00E94CF0CE9EBF0E080818E7F808357
:1016200080818D7F808388E48093B80085E48093F7
:10163000BC0008951F920F920FB60F9211242F93A2
:101640003F938F939F93AF93BF938091410290916B
:101650004202A0914302B0914402309145020196AA
:10166000A11DB11D232F2D5F2D3720F02D57019681
:10167000A11DB11D20934502809341029093420227
:10168000A0934302B093440280913D0290913E02A8
:10169000A0913F02B09140020196A11DB11D80931F
:1016A0003D0290933E02A0933F02B0934002BF914F
:1016B000AF919F918F913F912F910F900FBE0F90FF
:1016C0001F9018958FB7F8942091410230914202F3
:1016D00040914302509144028FBFB901CA0108955D
:1016E0009B01AC017FB7F89480913D0290913E023E
:1016F000A0913F02B091400266B5A89B05C06F3F24
:1017000019F00196A11DB11D7FBFBA2FA92F982FE7
:101710008827860F911DA11DB11D62E0880F991FBA
:10172000AA1FBB1F6A95D1F7BC012DC0FFB7F89463
:1017300080913D0290913E02A0913F02B091400203
:10174000E6B5A89B05C0EF3F19F00196A11DB11D9C
:10175000FFBFBA2FA92F982F88278E0F911DA11D8B
:10176000B11DE2E0880F991FAA1FBB1FEA95D1F7B0
:10177000861B970B885E9340C8F221503040404052
:10178000504068517C4F211531054105510571F6D6
:101790000895019739F0880F991F880F991F0297B4
:1017A0000197F1F70895789484B5826084BD84B57B
:1017B000816084BD85B5826085BD85B5816085BD4C
:1017C000EEE6F0E0808181608083E1E8F0E0108265
:1017D000808182608083808181608083E0E8F0E0A6
:1017E000808181608083E1EBF0E080818460808390
:1017F000E0EBF0E0808181608083EAE7F0E08081C7
:101800008460808380818260808380818160808326
:101810008081806880831092C1000895982F8E3057
:1018200008F09E509770809111018295880F880F63
:10183000807C892B80937C0080917A0080648093E7
:101840007A0080917A0086FDFCCF2091780040914B
:101850007900942F80E030E0282B392BC9010895BE
:101860001F93CF93DF93182FEB0161E00E94900C40
:10187000209709F44AC0CF3FD10509F449C0E12FB0
:10188000F0E0E255FF4F84918330C1F0843028F4BA
:10189000813051F08230B1F50CC0863019F18730BB
:1018A00049F1843079F514C084B5806884BDC7BD22
:1018B00033C084B5806284BDC8BD2EC080918000D5
:1018C000806880938000D0938900C093880024C0F2
:1018D00080918000806280938000D0938B00C093C1
:1018E0008A001AC08091B00080688093B000C093D5
:1018F000B30012C08091B00080628093B000C093AA
:10190000B4000AC0C038D1051CF4812F60E002C0C9
:10191000812F61E00E94CF0CDF91CF911F9108953C
:10192000CF93DF93482F50E0CA0186569F4FFC01AA
:1019300034914A575F4FFA018491882369F190E00E
:10194000880F991FFC01E859FF4FA591B491FC0144
:10195000EE58FF4FC591D491662351F42FB7F894F8
:101960008C91932F909589238C93888189230BC028
:10197000623061F42FB7F8948C91932F909589235E
:101980008C938881832B88832FBF06C09FB7F894E0
:101990008C91832B8C939FBFDF91CF910895482F1B
:1019A00050E0CA0182559F4FFC012491CA0186561E
:1019B0009F4FFC0194914A575F4FFA0134913323B2
:1019C00009F440C0222351F1233071F0243028F46F
:1019D0002130A1F0223011F514C02630B1F02730AB
:1019E000C1F02430D9F404C0809180008F7703C007
:1019F000809180008F7D8093800010C084B58F77A8
:101A000002C084B58F7D84BD09C08091B0008F77FE
:101A100003C08091B0008F7D8093B000E32FF0E091
:101A2000EE0FFF1FEE58FF4FA591B4912FB7F8941A
:101A3000662321F48C919095892302C08C91892B87
:101A40008C932FBF0895682F70E0CB0182559F4F74
:101A5000FC012491CB0186569F4FFC0144916A57AB
:101A60007F4FFB019491992319F420E030E03CC0B2
:101A7000222351F1233071F0243028F42130A1F0D9
:101A8000223011F514C02630B1F02730C1F02430D7
:101A9000D9F404C0809180008F7703C080918000CA
:101AA0008F7D8093800010C084B58F7702C084B58D
:101AB0008F7D84BD09C08091B0008F7703C0809175
:101AC000B0008F7D8093B000892F90E0880F991F20
:101AD00084589F4FFC01A591B4918C9120E030E097
:101AE000842311F021E030E0C90108958F929F9284
:101AF000AF92BF92CF92DF92EF92FF920F931F931C
:101B0000CF93DF93A82FB0E0CD0186569F4FFC0105
:101B10008490AA57BF4FFD018491662311F4992444
:101B200001C0982C6FEFA62E6FEFB62E6FEFC62E6A
:101B30006FE0D62EA222B322C422D522682F70E0F5
:101B4000660F771F64587F4FEE24FF248701FB0147
:101B5000A591B4910BC0EA14FB040C051D0509F412
:101B60004EC00894E11CF11C011D111D8C918821AF
:101B7000891589F30CC0EA14FB040C051D0509F452
:101B80003EC00894E11CF11C011D111D03C0FB01A6
:101B9000A591B4918C918821891569F720E030E0F6
:101BA00040E050E0FB01C591D4910FC0DA01C901BA
:101BB0008E0D9F1DA01FB11F8A159B05AC05BD058D
:101BC000F1F02F5F3F4F4F4F5F4F8881882189157C
:101BD00069F3CA01B90125E130E040E050E00E941C
:101BE000A1139B01AC01205F3F4F4F4F5F4F84E03B
:101BF00056954795379527958A95D1F704C020E0EB
:101C000030E040E050E0B901CA01DF91CF911F916F
:101C10000F91FF90EF90DF90CF90BF90AF909F908B
:101C20008F90089508951F920F920FB60F9211246E
:101C30002F933F934F938F939F93EF93FF938091B5
:101C4000C00082FD1DC04091C600209186023091E7
:101C500087022F5F3F4F2F733070809188029091E1
:101C600089022817390771F0E0918602F091870206
:101C7000EA5BFD4F4083309387022093860202C0C7
:101C80008091C600FF91EF919F918F914F913F916D
:101C90002F910F900FBE0F901F901895E091DA02D0
:101CA000F091DB02E05CFF4F8191919120813181C5
:101CB000821B930B8F739070892B11F00E94120E70
:101CC00008951F920F920FB60F9211242F933F93F6
:101CD0008F939F93EF93FF932091CA023091CB0291
:101CE0008091CC029091CD022817390731F4809170
:101CF000C1008F7D8093C10014C0E091CC02F091AF
:101D0000CD02E657FD4F20818091CC029091CD020B
:101D100001968F7390709093CD028093CC022093A4
:101D2000C600FF91EF919F918F913F912F910F905E
:101D30000FBE0F901F901895AF92BF92DF92EF9257
:101D4000FF920F931F93CF93DF93EC017A018B01E6
:101D5000DD24403081EE580780E0680780E0780796
:101D600011F0DD24D39491E0A92EB12CEC89FD89EA
:101D7000DD2069F0C50108A002C0880F991F0A94F0
:101D8000E2F7808360E079E08DE390E005C01082A7
:101D900060E874E88EE190E0A80197010E94D313F7
:101DA00021503040404050405695479537952795F3
:101DB00080E12030380720F0DD2011F0DD24D6CF7F
:101DC000E889F9893083EA89FB89208319A2EE89A1
:101DD000FF89408121E030E0C9010C8C02C0880FEE
:101DE000991F0A94E2F7482B4083EE89FF894081CE
:101DF000C9010D8C02C0880F991F0A94E2F7482B85
:101E00004083EE89FF894081C9010E8C02C0880F92
:101E1000991F0A94E2F7482B4083EE89FF8980815D
:101E20000F8C02C0220F331F0A94E2F7209528235B
:101E30002083DF91CF911F910F91FF90EF90DF9062
:101E4000BF90AF900895DC011C96ED91FC911D9719
:101E5000E05CFF4F2191319180819181281B390BEA
:101E60002F733070C9010895DC011C96ED91FC912F
:101E70001D97E05CFF4F20813181E054F040DF018D
:101E8000AE5BBF4F8D919C9111972817390719F4BC
:101E90002FEF3FEF07C08D919C91E80FF91F8081D4
:101EA000282F30E0C9010895DC011C96ED91FC91CA
:101EB0001D97E05CFF4F20813181E054F040DF014D
:101EC000AE5BBF4F8D919C9111972817390719F47C
:101ED0002FEF3FEF10C08D919C911197E80FF91FE4
:101EE00020818D919C91119701968F73907011961E
:101EF0009C938E9330E0C9010895DC0191968C91FA
:101F00009197882339F05496ED91FC9155978081F3
:101F100086FFF9CF91961C920895CF93DF93EC0141
:101F2000EE85FF85E05CFF4F20813181E054F04079
:101F30002F5F3F4F2F733070DF01AE5BBF4F8D912E
:101F40009C91119728173907D1F3E05CFF4F8081EE
:101F50009181E054F040E80FF91F6083EE85FF8522
:101F6000E05CFF4F31832083EE89FF89208181E08F
:101F700090E00F8C02C0880F991F0A94E2F7282B7B
:101F8000208381E089A3EC89FD898081806480833E
:101F900081E090E0DF91CF9108951092D1021092EC
:101FA000D00288EE93E0A0E0B0E08093D20290935C
:101FB000D302A093D402B093D5028CE291E0909327
:101FC000CF028093CE0286E492E09093DB0280936E
:101FD000DA028AE892E09093DD028093DC0285ECDD
:101FE00090E09093DF028093DE0284EC90E0909387
:101FF000E1028093E00280EC90E09093E302809312
:10200000E20281EC90E09093E5028093E40282EC9E
:1020100090E09093E7028093E60286EC90E0909344
:10202000E9028093E80284E08093EA0283E08093EF
:10203000EB0287E08093EC0285E08093ED0281E083
:102040008093EE020895CF93DF930E94D30B0E94FA
:102050003406CEE4DEE00E943F042097E1F30E94C4
:102060004E0EF9CFCF92DF92EF92FF920F931F9314
:10207000CF93DF937C016B018A01C0E0D0E00FC0F9
:10208000D6016D916D01D701ED91FC910190F08128
:10209000E02DC7010995C80FD91F01501040011547
:1020A000110571F7CE01DF91CF911F910F91FF9034
:1020B000EF90DF90CF900895EF92FF920F931F93D0
:1020C0008C01DC01ED91FC910190F081E02D6DE03F
:1020D00009957C01D801ED91FC910190F081E02DF2
:1020E000C8016AE009959C012E0D3F1DC9011F9191
:1020F0000F91FF90EF900895CF93DF93EC0161155E
:10210000710519F420E030E00FC0DB010D900020D4
:10211000E9F71197A61BB70BE881F9810280F381DB
:10212000E02DAD0109959C01C901DF91CF91089582
:102130000E947C100895EF92FF920F931F937C01F1
:102140000E947C108C01C7010E945C10080F191FAF
:10215000C8011F910F91FF90EF9008950F931F9367
:10216000CF93DF93BC018230910510F462E070E000
:10217000E091F202F091F302A0E0B0E040E050E024
:1021800024C08081918186179707D0F08617970722
:1021900071F482819381109729F013969C938E930A
:1021A00012972CC09093F3028093F20227C041153E
:1021B000510519F08417950718F4EF018D01AC0152
:1021C000DF01828193819C01F9013097D1F641159D
:1021D0005105F9F0CA01861B970B8430910580F4F4
:1021E0008A819B810115110521F0F8019383828377
:1021F00004C09093F3028093F202FE01329645C030
:10220000FE01E80FF91F6193719302979983888308
:102210003CC08091F0029091F102892B41F48091B1
:102220001401909115019093F1028093F002409176
:102230001601509117014115510541F44DB75EB794
:102240008091120190911301481B590B2091F002CB
:102250003091F10224173507B0F4CA01821B930BA9
:102260008617970780F0AB014E5F5F4F8417950785
:1022700050F0420F531F5093F1024093F002F901C6
:102280006193719302C0E0E0F0E0CF01DF91CF9164
:102290001F910F910895CF93DF939C01009709F44C
:1022A0008FC0EC0122971B821A826091F20270911A
:1022B000F3026115710581F488819981820F931F62
:1022C0002091F0023091F1022817390739F5D093A7
:1022D000F102C093F00274C0DB0140E050E0AC17A3
:1022E000BD0708F1BB83AA83FE0121913191E20F62
:1022F000F31FAE17BF0779F48D919C911197280FAA
:10230000391F2E5F3F4F3983288312968D919C9100
:1023100013979B838A834115510571F4D093F3027F
:10232000C093F2024DC012968D919C911397AD010E
:10233000009711F0DC01D3CFDA011396DC93CE9332
:102340001297FA0121913191E20FF31FCE17DF07A7
:1023500069F488819981280F391F2E5F3F4FFA0158
:10236000318320838A819B8193838283E0E0F0E044
:10237000DB0112968D919C911397009719F0BC0187
:10238000FD01F6CFAB014E5F5F4FDB018D919C915C
:10239000840F951F2091F0023091F1022817390720
:1023A00079F4309729F41092F3021092F20202C0ED
:1023B00013821282425050405093F1024093F00237
:1023C000DF91CF9108955058BB27AA270ED01CC18A
:1023D0000DD130F012D120F031F49F3F11F41EF4F2
:1023E00002C10EF4E095E7FBF8C0E92F1ED180F39F
:1023F000BA17620773078407950718F071F49EF502
:1024000036C10EF4E0950B2EBA2FA02D0B01B901A9
:1024100090010C01CA01A0011124FF27591B99F05A
:10242000593F50F4503E68F11A16F040A22F232F66
:10243000342F4427585FF3CF469537952795A795B6
:10244000F0405395C9F77EF41F16BA0B620B730B5D
:10245000840BBAF09150A1F0FF0FBB1F661F771FCE
:10246000881FC2F70EC0BA0F621F731F841F48F483
:10247000879577956795B795F7959E3F08F0B3CF09
:102480009395880F08F09927EE0F979587950895F3
:102490000CD0BAC0B2D040F0A9D030F021F45F3FE8
:1024A00019F09BC05111E4C09EC0BFD098F399238E
:1024B000C9F35523B1F3951B550BBB27AA27621708
:1024C0007307840738F09F5F5F4F220F331F441F4D
:1024D000AA1FA9F333D00E2E3AF0E0E830D0915085
:1024E0005040E695001CCAF729D0FE2F27D0660F72
:1024F000771F881FBB1F261737074807AB07B0E8B1
:1025000009F0BB0B802DBF01FF2793585F4F2AF0C6
:102510009E3F510568F061C0ABC05F3FECF3983E51
:10252000DCF3869577956795B795F7959F5FC9F723
:10253000880F911D9695879597F90895E1E0660FAC
:10254000771F881FBB1F621773078407BA0720F025
:10255000621B730B840BBA0BEE1F88F7E09508958E
:10256000E89409C097FB3EF490958095709561952D
:102570007F4F8F4F9F4F9923A9F0F92F96E9BB27E3
:102580009395F695879577956795B795F111F8CF5F
:10259000FAF4BB0F11F460FF1BC06F5F7F4F8F4FCA
:1025A0009F4F16C0882311F096E911C0772321F0C0
:1025B0009EE8872F762F05C0662371F096E8862F58
:1025C00070E060E02AF09A95660F771F881FDAF7AF
:1025D000880F9695879597F9089597F99F6780E8F2
:1025E00070E060E008959FEF80EC089500240A9465
:1025F0001616170618060906089500240A941216DE
:102600001306140605060895092E0394000C11F410
:10261000882352F0BB0F40F4BF2B11F460FF04C0BD
:102620006F5F7F4F8F4F9F4F089557FD9058440F16
:10263000551F59F05F3F71F04795880F97FB991F21
:1026400061F09F3F79F087950895121613061406DE
:10265000551FF2CF4695F1DF08C01616170618066B
:10266000991FF1CF86957105610508940895E89446
:10267000BB2766277727CB0197F908950BD0C4CFE6
:10268000B5DF28F0BADF18F0952309F0A6CFABCF5D
:102690001124EECFCADFA0F3959FD1F3950F50E040
:1026A000551F629FF001729FBB27F00DB11D639F04
:1026B000AA27F00DB11DAA1F649F6627B00DA11DAA
:1026C000661F829F2227B00DA11D621F739FB00D50
:1026D000A11D621F839FA00D611D221F749F3327C0
:1026E000A00D611D231F849F600D211D822F762F59
:1026F0006A2F11249F5750408AF0E1F088234AF056
:10270000EE0FFF1FBB1F661F771F881F91505040A1
:10271000A9F79E3F510570F060CFAACF5F3FECF361
:10272000983EDCF3869577956795B795F795E7958D
:102730009F5FC1F7FE2B880F911D9695879597F99E
:102740000895629FD001739FF001829FE00DF11DFB
:10275000649FE00DF11D929FF00D839FF00D749F1B
:10276000F00D659FF00D9927729FB00DE11DF91FC7
:10277000639FB00DE11DF91FBD01CF011124089524
:1027800097FB092E07260AD077FD04D049D006D042
:1027900000201AF4709561957F4F0895F6F7909593
:1027A00081959F4F0895A1E21A2EAA1BBB1BFD0124
:1027B0000DC0AA1FBB1FEE1FFF1FA217B307E40720
:1027C000F50720F0A21BB30BE40BF50B661F771F78
:1027D000881F991F1A9469F7609570958095909558
:1027E0009B01AC01BD01CF01089597FB092E052681
:1027F0000ED057FD04D0D7DF0AD0001C38F4509516
:102800004095309521953F4F4F4F5F4F0895F6F714
:1028100090958095709561957F4F8F4F9F4F08954C
:10282000AA1BBB1B51E107C0AA1FBB1FA617B707F6
:1028300010F0A61BB70B881F991F5A95A9F7809512
:102840009095BC01CD010895EE0FFF1F0590F49106
:08285000E02D0994F894FFCF7C
:1028580052656164206661696C0052656164792122
:1028680000018000F4020000000000002A08F907B7
:10287800770780079507A607000000008D0F321024
:08288800230F540F340F7D0FE4
:00000001FF
