:100000000C9463000C948B000C948B000C948B006C
:100010000C948B000C948B000C948B000C948B0034
:100020000C948B000C948B000C948B000C94660544
:100030000C948B000C948B000C948B000C948B0014
:100040000C9424060C948B000C948B000C948B0065
:100050000C948B000C948B000C948B000C948B00F4
:100060000C9473020C948B00000000002400270005
:100070002A0000000000250028002B0000000000DE
:1000800023002600290004040404040404040202DA
:100090000202020203030303030301020408102007
:1000A0004080010204081020010204081020000012
:1000B0000007000201000003040600000000000029
:1000C00000008D00B00111241FBECFEFD8E0DEBFCD
:1000D000CDBF11E0A0E0B1E0E4E0F1E102C00590A5
:1000E0000D92A031B107D9F712E0A0E1B1E001C053
:1000F0001D92A931B107E1F710E0C6ECD0E004C0D1
:100100002297FE010E947C08C23CD107C9F70E94D9
:1001100093070C9480080C94000080E191E00E9409
:10012000220408958091130190911401019731F4F4
:1001300080E791E0609121010E94F8018091130114
:1001400090911401039741F480E791E062E271E03D
:1001500043E050E00E94C70108950F931F9381E090
:1001600090E09093200180931F011FC080E791E0F1
:100170000E944501049721F410921E0110921D0166
:1001800000911D0110911E0180E791E00E944E0137
:10019000F801EE0FFF1FED5EFE4F918380830F5F2E
:1001A0001F4F10931E0100931D0180E791E00E94F4
:1001B0004501892BD9F61F910F91089580911F0158
:1001C000909120010197E1F51092260110922501EE
:1001D00013C080E191E00E9478046FE070E080E05D
:1001E00090E00E946C068091250190912601019675
:1001F000909326018093250160912501709126013D
:10020000643B710534F384EB90E00FC080E191E032
:100210000E9478046FE070E080E090E00E946C063D
:10022000809125019091260101979093260180935A
:10023000250160912501709126011616170634F3E9
:1002400008950F931F938DE061E00E94000700E77F
:1002500011E0C80164E070E00E944702C8016DEA45
:1002600070E00E94A601C80162E970E00E94AB0143
:1002700084E061E00E94000780E191E065E070E0C9
:100280000E945F051F910F9108952091480130E071
:1002900080914701281B3109C90108954091470108
:1002A00080914801481718F02FEF3FEF0AC0E42F64
:1002B000F0E0E95DFE4F8081282F30E04F5F4093F2
:1002C0004701C9010895E091470180914801E8176D
:1002D00018F0EFEFFFEF06C0F0E0E95DFE4F808120
:1002E000E82FF0E0CF0108950895AC0120916E0150
:1002F00030916F0121153105E1F090914701809116
:1003000048019817B0F090E008C0FA01EA0FFB1F0F
:100310008081A95DBE4F8C939F5FA92FB0E0A61787
:10032000B7079CF31092470160934801CB01F90194
:1003300009950895E0916C01F0916D01309729F0D5
:100340001092690110926A010995089570936F01E6
:1003500060936E01089570936D0160936C01089530
:10036000109273011092720188EE93E0A0E0B0E069
:100370008093740190937501A0937601B0937701F7
:1003800084E091E090937101809370010895CF9281
:10039000DF92EF92FF920F931F93CF93DF937C0135
:1003A0006B018A0180916B018823A1F0C0E0D0E04D
:1003B0000DC0D701ED91FC91D601AC0FBD1F01908E
:1003C000F081E02DC7016C9109952196C017D107E6
:1003D00080F304C0CB01642F0E944E02C801DF915C
:1003E000CF911F910F91FF90EF90DF90CF900895E4
:1003F000DF93CF930F92CDB7DEB7FC016983809175
:100400006B018823C9F080916A01803238F081E065
:1004100090E09383828320E030E015C080916901F1
:10042000E82FF0E0E75BFE4F998190838F5F809328
:10043000690180936A0105C0CE01019661E00E94C6
:100440004E0221E030E0C9010F90CF91DF91089575
:1004500010924701109248011092690110926A01AE
:100460000E94040408950F931F938C01862F0E940D
:100470004A028AE991E00E946E0285E791E00E94BB
:100480006902C8010E9428021F910F9108950E94DD
:1004900033020895880F8093BA000895482F61327F
:1004A00010F081E0089580917C01843011F082E0A9
:1004B00008956093C701A6EAB1E0842F9C01F90179
:1004C00002C081918D938E2F841B8617D0F380E01C
:1004D0000895909383018093820108959093810100
:1004E0008093800108951F920F920FB60F921124EE
:1004F0002F933F934F935F936F937F938F939F932C
:10050000AF93BF93EF93FF938091B90090E0887F02
:1005100090708036910509F4F2C081369105CCF5D2
:100520008832910509F47BC089329105B4F4803199
:10053000910509F46FC0813191053CF4009709F4ED
:1005400047C1089709F04FC165C08831910509F48A
:1005500066C0809709F047C182C08034910509F4D4
:10056000A4C08134910544F48033910509F482C01C
:10057000C89709F038C189C08035910509F489C050
:100580008835910509F496C08834910509F02BC18E
:10059000AEC08839910509F413C189399105ECF48D
:1005A0008837910509F4ABC0893791054CF488363A
:1005B000910509F4A4C08037910509F014C19FC0CA
:1005C0008838910509F4FCC08039910509F49DC073
:1005D0008038910509F007C198C0803B910509F466
:1005E000C6C0813B91054CF4803A910509F49FC047
:1005F000883A910509F0F7C0BAC0803C910509F42A
:10060000E3C0883C910509F4DFC0883B910509F0FF
:10061000EAC0C2C080917D018093BB00CFC09091A1
:10062000A4018091A501981768F49091A401E92F85
:10063000F0E0EC57FE4F80818093BB009F5F90936A
:10064000A401BCC080917E01882309F44BC085EDD4
:100650008093BC008091BC0084FDFCCFC2C080E2CE
:100660008093E90185ED8093BC008091BC0084FDFE
:10067000FCCFB7C080E38093E90185ED8093BC0097
:100680008091BC0084FDFCCFACC088E38093E9017D
:100690009BC08091A4019091BB00E82FF0E0EC5743
:1006A000FE4F90838F5F8093A4019091A40180916D
:1006B000A50182C08091A4019091BB00E82FF0E0D9
:1006C000EC57FE4F90838F5F8093A40180917E0151
:1006D000882341F085ED8093BC008091BC0084FDAF
:1006E000FCCF7FC081E080937F0184EA6EC085EDFE
:1006F0008093BC008091BC0084FDFCCF72C083E07D
:1007000080937C011092E80159C08091E801803209
:1007100008F056C08091E8019091BB00E82FF0E00E
:10072000E853FE4F90838F5F8093E80147C080912C
:10073000E801803230F4E091E801F0E0E853FE4F48
:10074000108285ED8093BC008091BC0084FDFCCFBD
:1007500010927C016091E801E0918201F0918301A7
:1007600088EC91E070E009951092E8012DC084E0DA
:1007700080937C011092C6011092C701E091800124
:10078000F091810109958091C701882329F481E0C6
:100790008093C7011092A6019091C601E92FF0E065
:1007A000EA55FE4F80818093BB009F5F9093C60106
:1007B0009091C6018091C701981710F485EC01C093
:1007C00085E88093BC000FC085EC8093BC0009C015
:1007D0001092E90185ED8093BC008091BC0084FDFE
:1007E000FCCF10927C01FF91EF91BF91AF919F914F
:1007F0008F917F916F915F914F913F912F910F90CA
:100800000FBE0F901F90189510927C0181E080938D
:100810007E0110927F0182E161E00E943F0783E147
:1008200061E00E943F07E9EBF0E080818E7F8083EA
:1008300080818D7F808388E48093B80085E48093F5
:10084000BC000895FC018091EA018C3090F4808313
:100850008F5F8093EA01815090E0FC01EE0FFF1F53
:10086000E80FF91FE551FE4F88EB9BE092838183EF
:1008700008958FEF80830895FC0120812C30B8F516
:100880008181992787FD909548E850E0481B590BD6
:10089000440F551F440F551F6417750784F082815C
:1008A000992787FD909548E552E0481B590B440F66
:1008B000551F440F551F641775070CF4AB014250C8
:1008C0005040CA01AA2797FDA095BA2F880F991FFB
:1008D000AA1FBB1F4FB7F89430E0F901EE0FFF1FBE
:1008E000E20FF31FE551FE4F928381834FBF0895BE
:1008F000AF92BF92CF92DF92EF92FF920F931F932E
:10090000CF93DF93EC019B0182E0603278070CF01B
:1009100048C077FF03C020E030E005C0653B7105AB
:1009200014F024EB30E000D000D0B901882777FD27
:100930008095982F2981332727FD3095E8E8AE2E42
:10094000B12CA21AB30AAA0CBB1CAA0CBB1CCC2447
:10095000B7FCC094DC2CEA81FF27E7FDF09528E581
:1009600032E02E1B3F0B220F331F220F331F442771
:1009700037FD4095542FEDB7FEB721833283438373
:10098000548320E030E040E050E004EBE02EF12C16
:10099000012D112D0E94A2079B010F900F900F9027
:1009A0000F90CE01B9010E943C04DF91CF911F91BD
:1009B0000F91FF90EF90DF90CF90BF90AF90089590
:1009C000CF92DF92EF92FF921F93CF93DF93EC01D0
:1009D000162F7A01690188818C3008F064C0862F57
:1009E00061E00E940007888190E0FC01EE0FFF1F8C
:1009F000E80FF91FE551FE4F1F738081807C812B2A
:100A0000808380E292E08E199F0964E070E00E948A
:100A10001608698380E699E08C199D0964E070E00E
:100A20000E9416086A83A8818A2F6CE00E940A0837
:100A3000682F70E0AB01440F551F460F571F440F3E
:100A4000551F440F551F20E030E0C901840F951F4A
:100A5000FC01EE0FFF1FE80FF91FE551FE4F8081EB
:100A600086FD15C02F5F3F4F2C30310571F724C034
:100A70001092800082E08093810010928500109295
:100A80008400B19A80916F00826080936F008A2FFA
:100A900090E0FC01EE0FFF1FE80FF91FE551FE4F3C
:100AA0008081806480838881DF91CF911F91FF9046
:100AB000EF90DF90CF900895672BD1F2E8CF40E21E
:100AC00052E020E639E00E94E00408951F920F9260
:100AD0000FB60F9211242F933F934F935F936F9311
:100AE0007F938F939F93AF93BF93EF93FF938091E7
:100AF0000F0287FF05C010928500109284002BC062
:100B000020910F02332727FD30958091EA0190E074
:100B10002817390704F580910F02992787FD9095D2
:100B2000FC01EE0FFF1FE80FF91FE551FE4F80811A
:100B300086FF11C080910F02992787FD9095FC01D7
:100B4000EE0FFF1FE80FF91FE551FE4F80818F73F5
:100B500060E00E943F0780910F028F5F80930F0239
:100B600020910F02332727FD30958091EA0190E014
:100B7000281739070CF04EC080910F028C300CF012
:100B800049C0209184003091850080910F029927FF
:100B900087FD9095FC01EE0FFF1FE80FF91FE5514F
:100BA000FE4F81819281280F391F30938900209355
:100BB000880080910F02992787FD9095FC01EE0F28
:100BC000FF1FE80FF91FE551FE4F808186FF2BC004
:100BD00080910F02992787FD9095FC01EE0FFF1F72
:100BE000E80FF91FE551FE4F80818F7361E00E948D
:100BF0003F0719C080E49CE905C080918400909172
:100C00008500049690938900809388008FEF8093ED
:100C10000F0209C080918400909185000496805451
:100C20009C4940F3EACFFF91EF91BF91AF919F9123
:100C30008F917F916F915F914F913F912F910F9085
:100C40000FBE0F901F9018951F920F920FB60F9224
:100C500011242F933F938F939F93AF93BF938091D2
:100C6000140290911502A0911602B09117023091D2
:100C700018020196A11DB11D232F2D5F2D3720F0E5
:100C80002D570196A11DB11D2093180280931402C7
:100C900090931502A0931602B09317028091100250
:100CA00090911102A0911202B09113020196A11D20
:100CB000B11D8093100290931102A0931202B09381
:100CC0001302BF91AF919F918F913F912F910F9000
:100CD0000FBE0F901F9018959B01AC017FB7F89441
:100CE0008091100290911102A0911202B091130212
:100CF00066B5A89B05C06F3F19F00196A11DB11DF7
:100D00007FBFBA2FA92F982F8827860F911DA11D6D
:100D1000B11D62E0880F991FAA1FBB1F6A95D1F70A
:100D2000BC012DC0FFB7F894809110029091110280
:100D3000A0911202B0911302E6B5A89B05C0EF3F47
:100D400019F00196A11DB11DFFBFBA2FA92F982F31
:100D500088278E0F911DA11DB11DE2E0880F991FFC
:100D6000AA1FBB1FEA95D1F7861B970B885E93409D
:100D7000C8F2215030404040504068517C4F21150E
:100D800031054105510571F60895789484B5826066
:100D900084BD84B5816084BD85B5826085BD85B51F
:100DA000816085BDEEE6F0E0808181608083E1E8CE
:100DB000F0E0108280818260808380818160808306
:100DC000E0E8F0E0808181608083E1EBF0E0808109
:100DD00084608083E0EBF0E0808181608083EAE7DB
:100DE000F0E0808184608083808182608083808164
:100DF000816080838081806880831092C100089523
:100E0000CF93DF93482F50E0CA0186569F4FFC01D5
:100E100034914A575F4FFA018491882369F190E039
:100E2000880F991FFC01E859FF4FA591B491FC016F
:100E3000EE58FF4FC591D491662351F42FB7F89423
:100E40008C91932F909589238C93888189230BC053
:100E5000623061F42FB7F8948C91932F9095892389
:100E60008C938881832B88832FBF06C09FB7F8940B
:100E70008C91832B8C939FBFDF91CF910895482F46
:100E800050E0CA0182559F4FFC012491CA01865649
:100E90009F4FFC0194914A575F4FFA0134913323DD
:100EA00009F440C0222351F1233071F0243028F49A
:100EB0002130A1F0223011F514C02630B1F02730D6
:100EC000C1F02430D9F404C0809180008F7703C032
:100ED000809180008F7D8093800010C084B58F77D3
:100EE00002C084B58F7D84BD09C08091B0008F772A
:100EF00003C08091B0008F7D8093B000E32FF0E0BD
:100F0000EE0FFF1FEE58FF4FA591B4912FB7F89445
:100F1000662321F48C919095892302C08C91892BB2
:100F20008C932FBF0895CF93DF930E94C5060E9434
:100F30002101C0E0D0E00E94DE002097E1F30E9492
:100F40000000F9CF2F923F924F925F926F927F9263
:100F50008F929F92AF92BF92CF92DF92EF92FF92C9
:100F60000F931F93DF93CF93CDB7DEB73B014C01B7
:100F700019012A016D897E898F89988D6A197B09EB
:100F80008C099D09621A730A840A950AA4019301C7
:100F90000E94EB07E218F30804091509A80197015C
:100FA0000E944B082A0D3B1D4C1D5D1DB901CA0155
:100FB000CF91DF911F910F91FF90EF90DF90CF9035
:100FC000BF90AF909F908F907F906F905F904F9069
:100FD0003F902F900895629FD001739FF001829FF0
:100FE000E00DF11D649FE00DF11D929FF00D839FB8
:100FF000F00D749FF00D659FF00D9927729FB00D55
:10100000E11DF91F639FB00DE11DF91FBD01CF0167
:1010100011240895991B79E004C0991F961708F0D0
:10102000961B881F7A95C9F78095089597FB092E1E
:1010300007260AD077FD04D049D006D000201AF444
:10104000709561957F4F0895F6F7909581959F4F24
:101050000895A1E21A2EAA1BBB1BFD010DC0AA1FF9
:10106000BB1FEE1FFF1FA217B307E407F50720F011
:10107000A21BB30BE40BF50B661F771F881F991F8C
:101080001A9469F760957095809590959B01AC01D5
:10109000BD01CF01089597FB092E05260ED057FDFF
:1010A00004D0D7DF0AD0001C38F450954095309515
:1010B00021953F4F4F4F5F4F0895F6F790958095DC
:1010C000709561957F4F8F4F9F4F0895AA1BBB1B53
:1010D00051E107C0AA1FBB1FA617B70710F0A61B38
:1010E000B70B881F991F5A95A9F780959095BC0159
:1010F000CD010895EE0FFF1F0590F491E02D0994A6
:04110000F894FFCF91
:1011040000000000F801C70145014E0163017401AC
:00000001FF
