:100000000C9463000C948B000C948B000C948B006C
:100010000C948B000C948B000C948B000C948B0034
:100020000C948B000C948B000C948B000C948B0024
:100030000C948B000C948B000C948B000C948B0014
:100040000C94010B0C948B000C94FA0D0C94480E3C
:100050000C948B000C948B000C948B000C948B00F4
:100060000C9452090C948B0000000000240027001F
:100070002A0000000000250028002B0000000000DE
:1000800023002600290004040404040404040202DA
:100090000202020203030303030301020408102007
:1000A0004080010204081020010204081020000012
:1000B0000007000201000003040600000000000029
:1000C0000000C907B40F11241FBECFEFD8E0DEBF78
:1000D000CDBF11E0A0E0B1E0ECEBF5E202C005908D
:1000E0000D92A233B107D9F712E0A2E3B1E001C04B
:1000F0001D92A93EB107E1F710E0C6ECD0E004C0C4
:100100002297FE010E94D812C23CD107C9F70E9473
:100110000A100C94DC120C9400000F931F938C01B6
:10012000862FF80166834783208791E0958760E0FA
:100130000E94770CF801868161E00E94B60CF801FC
:1001400011861286138614861F910F910895CF92FF
:10015000DF92EF92FF920F931F93CF93DF93EC0107
:100160008E8161E00E94B60C6AEF70E080E090E062
:100170000E94570B0E94490B9B01AC0189859A850F
:10018000AB85BC85281739074A075B0720F4198619
:100190001A861B861C868D85882371F489859A852D
:1001A000AB85BC85281B390B4A0B5B0B205D3740A8
:1001B0004040504008F477C01D860E94490B698773
:1001C0007A878B879C871C821B821A8219821882ED
:1001D0008E8161E00E94770C8E8160E00E94B60CF7
:1001E00064E170E080E090E00E94570BF8948E810B
:1001F00061E00E94B60C88E290E00E94B00B8E8114
:1002000060E00E94770C81E0EE2400E010E00AC07C
:10021000F39481E090E00E94B00B8FEFF81629F480
:100220000AC0822FFF24C82EDD248E810E940A0D71
:100230008C159D0569F38E810E940A0D282F8FEF82
:10024000F816C9F0043090F000FD10C08E2D869590
:1002500086958695FE01E80FF11D9081990F908398
:1002600088858F1510F491609083E3940F5F1F4F82
:1002700005351105B1F6789487E28E1510F030E05F
:1002800013C030E04C8150E02981888190E0820FDA
:10029000911D2A81820F911D2B81820F911D9070DB
:1002A0004817590709F431E0832FDF91CF911F914F
:1002B0000F91FF90EF90DF90CF900895EF92FF9213
:1002C0000F931F93CF93DF93EC010E94A700882325
:1002D000A9F18F818B3031F08B3080F185518230E4
:1002E00068F507C0688170E080E090E00E946211CC
:1002F00022C0688170E080E090E00E94621120E0FE
:1003000030E040E853E40E94F0117B018C016981E8
:1003100070E0882777FD8095982F0E9464119B01DB
:10032000AC01C801B7010E94961020E030E040E225
:1003300051E40E94FA10E62F692F0AC087EC92E080
:1003400060E071E00E947F10E0E070E080EC6FE719
:100350002E2F372F482F562FB901CA01DF91CF9189
:100360001F910F91FF90EF900895CF92DF92EF923F
:10037000FF920F931F93CF93DF93EC01C62E0E9441
:10038000A700882309F450C08F818B3041F08B3057
:1003900008F44AC08551823008F046C007C06A811F
:1003A00070E080E090E00E94621129C0DA806D2D3B
:1003B00070E06F777070882777FD8095982F0E9486
:1003C000641120E030E040E853E40E94F0117B012A
:1003D0008C016B8170E0882777FD8095982F0E94B3
:1003E00064119B01AC01C801B7010E94961020E086
:1003F00030E040E251E40E94FA10D7FC9058CC2043
:10040000E9F020E030E040E151E40E94F01120E00A
:1004100030E040EA50E40E94FA1020E030E040E092
:1004200052E40E9496100AC087EC92E060E071E00E
:100430000E947F1060E070E080EC9FE7DF91CF9139
:100440001F910F91FF90EF90DF90CF900895DF9272
:10045000EF92FF920F931F937C010CEB11E0C80108
:1004600068E670E00E945407C80160E00E9411082D
:10047000C8010E945408C80168E670E047E050E0F7
:100480000E946508C8010E946707282F2F772295D0
:100490002F703AE0D32E2D9D900111248F70820F82
:1004A000F7018083C8010E946707282F22952F70CB
:1004B0002D9D900111248F70820FF7018183C80157
:1004C0000E946707282F2F7322952F702D9D900172
:1004D00011248F70820FF7018283C8010E94670781
:1004E000282F22952F702D9D900111248F70820F3F
:1004F000F7018383C8010E946707282F22952F7078
:100500002D9D900111248F70820FF7018483C80103
:100510000E946707282F22952F702D9D900111248E
:100520008F70820FF7018583C8010E946707282F0B
:1005300022952F702D9D900111248F70820FF7014D
:10054000868317821F910F91FF90EF90DF9008959F
:100550008CEB91E00E946908089580914F01909181
:100560005001019731F48CEB91E060915D010E94A4
:10057000110880914F01909150018330910511F045
:10058000079741F48CEB91E06EE571E043E050E0B9
:100590000E94E00780914F0190915001449741F4EF
:1005A0008CEB91E06EE571E044E050E00E94E007E2
:1005B00080914F01909150018E31910511F08897F3
:1005C00041F48CEB91E06EE571E049E050E00E946F
:1005D000E00708950F931F9323C08CEB91E00E94D6
:1005E0005E07049741F410925C0110925B01109237
:1005F0005A01109259010091590110915A018CEB46
:1006000091E00E946707F801EE0FFF1FE15BFE4FCC
:10061000918380830F5F1F4F10935A0100935901FC
:100620008CEB91E00E945E07892BB9F61F910F9128
:100630000895EF92FF920F931F93DF93CF93CDB75F
:10064000DEB728970FB6F894DEBF0FBECDBF8091FE
:10065000590190915A01049709F0D1C180915B0131
:1006600090915C01892B09F0CAC181E090E09093E0
:100670005C0180935B0180914F0190915001019743
:1006800031F4809151010E940A0D80935D018091A7
:100690004F0190915001029731F480915101609186
:1006A00053010E94B60C80914F0190915001039725
:1006B000B1F4809151010E94F50B9C019093680167
:1006C0008093670160E071E00E94721260935F01A5
:1006D000C90160E071E00E94721280936001809114
:1006E0004F0190915001049741F460915301709132
:1006F0005401809151010E94170C80914F019091FB
:100700005001059731F480915101609153010E948D
:10071000770C80914F0190915001079709F052C0DA
:10072000809151019091520180936E0190936F01DD
:1007300061E00E94770C80916E0160E00E94B60C2F
:1007400082E090E00E94B00B80916E0161E00E9417
:10075000B60C85E090E00E94B00B80916E0160E0E5
:100760000E94B60C80916E0160E00E94770C80912F
:100770006E0161E020E432E44FE050E00E945D0D44
:100780002AE330E040E050E00E94A712122F032F2E
:10079000F42EE52E622F732F842F952F20E031E069
:1007A00040E050E00E94A71220935F01612F702F5C
:1007B0008F2D9E2D20E031E040E050E00E94A712F6
:1007C0006093600180914F0190915001449709F529
:1007D00080916901882339F482E391E00E94430704
:1007E00081E08093690182E391E06BE671E04CE681
:1007F00051E02DE631E00E94450680916B01809327
:100800005F0180916C018093600180916D01809304
:10081000610180914F01909150014E9769F580914F
:100820006A01882339F483E391E00E94A80281E001
:1008300080936A0183E391E00E9427028091350151
:1008400080935F0180913401809360018091330136
:10085000809361018091380180936201909137010A
:1008600090936301809139018093640190936501B5
:10087000809136018093660180914F0190915001E3
:10088000889709F059C080915301909154010097C5
:1008900031F48BE391E0609151014BE013C0813062
:1008A000910531F48BE391E06091510146E10AC07A
:1008B0008230910511F0039741F48BE391E0609150
:1008C000510145E126E00E948D008BE391E060E05C
:1008D0000E94B50169837A838B839C838BE391E0CB
:1008E0000E945E016D837E838F839887DE0111965F
:1008F000EFE5F1E020E030E004C08D9181932F5FBF
:100900003F4F24303105CCF384E090E090937101A7
:1009100080937001DE011596E3E6F1E024E030E01B
:1009200004C08D9181932F5F3F4F28303105CCF368
:10093000309371012093700180914F01909150018B
:10094000C29711F54091510150915201BA016F5F68
:100950007F4F89E491E00E942F068091550190918C
:100960005601019749F4609153017091540189E453
:1009700091E00E94840508C0609153017091540178
:1009800089E491E00E94B70580914F019091500158
:10099000C397B9F44091510150915201BA016F5F70
:1009A0007F4F89E491E00E942F066091530170917E
:1009B0005401409155015091560189E491E00E9403
:1009C0000B0680914F0190915001C497C1F4409162
:1009D000510150915201BA016F5F7F4F89E491E05C
:1009E0000E942F067091530160E080915501909113
:1009F0005601680F791F89E491E00E94E20528966C
:100A00000FB6F894DEBF0FBECDBFCF91DF911F911F
:100A10000F91FF90EF900895EF92FF920F931F9325
:100A200037ECE32E32E0F32EC70140E855E260E0F8
:100A300070E00E94830E0CEB11E0C80164E070E0EE
:100A40000E948808C8016AEE72E00E94BF07C801D0
:100A50006DEA72E00E94C407C7016AE071E00E947B
:100A600082101F910F91FF90EF900895EF92FF92E7
:100A70000F931F93CF93DF938C017B01C0E0D0E0F5
:100A80006F2D661F6627661FF80182810E94B60CD3
:100A9000F80180810E940A0D60E0892B09F461E071
:100AA000F80180810E94B60CEE0CFF1C2196C0312B
:100AB000D10531F7DF91CF911F910F91FF90EF900A
:100AC00008950F931F93CF93DF938C01FC018281D4
:100AD00060E00E94B60C8AE090E00E94B00BC0E09B
:100AE000D0E0F801828161E00E94B60CF8018281B9
:100AF00060E00E94B60C2196C430D10591F7DF91D9
:100B0000CF911F910F910895CF92DF92EF92FF92B4
:100B10000F931F93CF93DF937C016B016B307105B3
:100B2000ECF4C70160E070E00E943605C0E0D0E060
:100B30000AE010E00C191D09C017D1071CF460E091
:100B400070E002C06FEF70E0C7010E943605219689
:100B5000CC30D10589F7C7010E946105DF91CF91A3
:100B60001F910F91FF90EF90DF90CF900895EF923B
:100B7000FF920F931F93CF93DF938C017B016B3018
:100B80007105CCF4C80160E070E00E943605C0E059
:100B9000D0E0CE15DF051CF060E070E002C06FEF22
:100BA00070E0C8010E9436052196CC30D10589F746
:100BB000C8010E946105DF91CF911F910F91FF90B5
:100BC000EF900895EF92FF920F931F93CF93DF93CF
:100BD0007C018B0160E070E00E943605C0E0D0E04F
:100BE00000FD03C060E070E002C06FEF70E0C7017D
:100BF0000E9436052196CC30D10519F0169507953F
:100C0000EFCFC7010E946105DF91CF911F910F9136
:100C1000FF90EF900895FC01CB016B307105F4F467
:100C200024813581452B51F061E070E002C0660FF0
:100C3000771F8A95E2F7622B732B0BC061E070E09F
:100C400002C0660F771F8A95E2F760957095622360
:100C5000732375836483CF010E94E20508950F9387
:100C60001F938C01862FF801608371835383428325
:100C70001582148261E00E94770CF801828161E0A4
:100C80000E94770C1F910F9108952F923F925F92CF
:100C90006F927F928F929F92AF92BF92CF92DF928C
:100CA000EF92FF920F931F93DF93CF93CDB7DEB7F1
:100CB00027970FB6F894DEBF0FBECDBF1B015D8333
:100CC0004C833F832E830E94490B7B018C010CC017
:100CD0000E94490B6E197F09800B910B655F714073
:100CE000804090400CF08AC08CEB91E00E945E073F
:100CF000181619066CF380E48B838A8389838CEB46
:100D000091E00E9467078CEB91E06CE470E043E0B7
:100D100050E00E9465080E94490BAC01CB01DA014A
:100D20003C014D016E010894C11CD11CAA24BB24B6
:100D300034C083E0A816B104FCF40E94490B7B0187
:100D40008C0137014801F601808112C08CEB91E0E3
:100D50000E946707582E0E94490B6E197F09800B6D
:100D6000910B63337105810591050CF047C0852D0A
:100D7000803460F7F60180830E94490B0894C11CFF
:100D8000D11C6619770988099909655F714080400F
:100D90009040A4F50894A11CB11C8CEB91E00E943A
:100DA0005E07892B31F6898190E0880F991F880FA3
:100DB000991F982F87FD9D5F95959595F1019083DB
:100DC0008A8190E0880F991F880F991F982F87FDBF
:100DD0009D5F95959595EC81FD8190838B8190E049
:100DE000880F991F880F991F982F87FD9D5F9595F4
:100DF0009595EE81FF81908381E001C080E0279688
:100E00000FB6F894DEBF0FBECDBFCF91DF911F911B
:100E10000F91FF90EF90DF90CF90BF90AF909F9099
:100E20008F907F906F905F903F902F900895EF92FA
:100E3000FF920F931F93162F042F5CEBE52E51E0CA
:100E4000F52EC7010E946908C7016CE470E00E949A
:100E50005407C701612F0E941108C701602F0E942B
:100E60001108C7010E9454081F910F91FF90EF9045
:100E70000895462F68E00E9417070895462F67E0FF
:100E80000E94170708950F931F938C0160E00E9442
:100E90003E07C80160E00E943907C80161E00E9476
:100EA0003E071F910F91089581E08093B7016093F1
:100EB00094011092B5011092B6010895209193010A
:100EC00030E080919201281B3109C90108954091B9
:100ED000920180919301481718F02FEF3FEF0AC05D
:100EE000E42FF0E0EE58FE4F8081282F30E04F5F76
:100EF00040939201C9010895E0919201809193017C
:100F0000E81718F0EFEFFFEF06C0F0E0EE58FE4FE5
:100F10008081E82FF0E0CF0108950895AC01209181
:100F2000BA013091BB0121153105E1F09091920198
:100F3000809193019817B0F090E008C0FA01EA0F91
:100F4000FB1F8081AE58BE4F8C939F5FA92FB0E0EE
:100F5000A617B7079CF31092920160939301CB01FF
:100F6000F90109950895E091B801F091B901309720
:100F700029F01092B5011092B60109950895709369
:100F8000BB016093BA0108957093B9016093B801F1
:100F900008951092BF011092BE0188EE93E0A0E088
:100FA000B0E08093C0019093C101A093C201B093BF
:100FB000C30186E191E09093BD018093BC01089547
:100FC000CF92DF92EF92FF920F931F93CF93DF9315
:100FD0007C016B018A018091B7018823A1F0C0E0F8
:100FE000D0E00DC0D701ED91FC91D601AC0FBD1F33
:100FF0000190F081E02DC7016C9109952196C017F1
:10100000D10780F304C0CB01642F0E942D09C801D1
:10101000DF91CF911F910F91FF90EF90DF90CF90D4
:101020000895DF93CF930F92CDB7DEB7FC016983AC
:101030008091B7018823C9F08091B601803238F0E1
:1010400081E090E09383828320E030E015C08091BE
:10105000B501E82FF0E0EB56FE4F998190838F5F4A
:101060008093B5018093B60105C0CE01019661E081
:101070000E942D0921E030E0C9010F90CF91DF914E
:1010800008950F93062F8091940165E971E04091D6
:10109000B60121E00E94D8081092B5011092B60165
:1010A0001092B7010F91089561E00E9441080895E0
:1010B000413208F040E2862F62E771E00E948F081B
:1010C0001092920180939301089521E00E945808A4
:1010D000089510929201109293011092B50110920E
:1010E000B6010E94E30A08950F931F938C01862F87
:1010F0000E948B0883EB97E00E944D098EE897E0F1
:101100000E944809C8010E9469081F910F91089523
:101110000E9474080895880F8093BA000895382FAC
:10112000413210F040E042C08091C8018823E1F7CD
:1011300091E09093C8012093CA018FEF809335020C
:101140001092F00141504093F1014F5F9093C9011B
:101150008091C901330F832B8093C9018091CB010A
:10116000813041F41092CB018091C9018093BB0082
:1011700085EC01C085EE8093BC008091C801813070
:10118000E1F38091F001841710F44091F00120E028
:1011900030E00AC0FB01E20FF31FD901A053BE4F9C
:1011A0008C9180832F5F3F4F2417A0F3842F0895E5
:1011B0000F931F93582F122F413210F081E04AC035
:1011C0008091C8018823E1F782E08093C8010093F1
:1011D000CA018FEF809335021092F0014093F10124
:1011E000A0EDB1E0FB0102C081918D938E2F861B93
:1011F0008417D0F31092C9018091C901550F852B36
:101200008093C9018091CB01813041F41092CB01D0
:101210008091C9018093BB0085EC01C085EE80936D
:10122000BC00112321F08091C8018230E1F380914C
:1012300035028F3F11F480E00DC08091350280327D
:1012400011F482E007C080913502803311F084E010
:1012500001C083E01F910F910895482F613210F073
:1012600081E008958091C801843011F082E00895F2
:1012700060931302A2EFB1E0842F9C01F90102C038
:1012800081918D938E2F841B8617D0F380E0089573
:101290009093CF018093CE0108959093CD018093D8
:1012A000CC0108951F920F920FB60F9211242F9325
:1012B0003F934F935F936F937F938F939F93AF93DE
:1012C000BF93EF93FF938091B90090E0887F907077
:1012D0008036910509F4F2C081369105CCF588324B
:1012E000910509F47BC089329105B4F480319105F0
:1012F00009F46FC0813191053CF4009709F447C1AE
:10130000089709F04FC165C08831910509F466C09E
:10131000809709F047C182C08034910509F4A4C0C8
:101320008134910544F48033910509F482C0C89753
:1013300009F038C189C08035910509F489C0883524
:10134000910509F496C08834910509F02BC1AEC00F
:101350008839910509F413C189399105ECF488376E
:10136000910509F4ABC0893791054CF48836910595
:1013700009F4A4C08037910509F014C19FC08838D2
:10138000910509F4FCC08039910509F49DC08038AD
:10139000910509F007C198C0803B910509F4C6C0CA
:1013A000813B91054CF4803A910509F49FC0883A3D
:1013B000910509F0F7C0BAC0803C910509F4E3C07B
:1013C000883C910509F4DFC0883B910509F0EAC02B
:1013D000C2C08091C9018093BB00CFC09091F00141
:1013E0008091F101981768F49091F001E92FF0E0F5
:1013F000E053FE4F80818093BB009F5F9093F0018C
:10140000BCC08091CA01882309F44BC085ED80934C
:10141000BC008091BC0084FDFCCFC2C080E2809300
:10142000350285ED8093BC008091BC0084FDFCCF2B
:10143000B7C080E38093350285ED8093BC00809136
:10144000BC0084FDFCCFACC088E3809335029BC018
:101450008091F0019091BB00E82FF0E0E053FE4F47
:1014600090838F5F8093F0019091F0018091F10162
:1014700082C08091F0019091BB00E82FF0E0E05332
:10148000FE4F90838F5F8093F0018091CA01882383
:1014900041F085ED8093BC008091BC0084FDFCCFC1
:1014A0007FC081E08093CB0184EA6EC085ED80939C
:1014B000BC008091BC0084FDFCCF72C083E08093AF
:1014C000C8011092340259C080913402803208F071
:1014D00056C0809134029091BB00E82FF0E0EC5EA2
:1014E000FD4F90838F5F8093340247C08091340218
:1014F000803230F4E0913402F0E0EC5EFD4F108277
:1015000085ED8093BC008091BC0084FDFCCF1092DF
:10151000C80160913402E091CE01F091CF0184E1E5
:1015200092E070E00995109234022DC084E080931F
:10153000C8011092120210921302E091CC01F091B6
:10154000CD01099580911302882329F481E08093CD
:1015500013021092F20190911202E92FF0E0EE5086
:10156000FE4F80818093BB009F5F90931202909109
:10157000120280911302981710F485EC01C085E8DF
:101580008093BC000FC085EC8093BC0009C0109212
:10159000350285ED8093BC008091BC0084FDFCCFBA
:1015A0001092C801FF91EF91BF91AF919F918F91E0
:1015B0007F916F915F914F913F912F910F900FBE4F
:1015C0000F901F9018951092C80181E08093CA0176
:1015D0001092CB0182E161E00E94B60C83E161E0F0
:1015E0000E94B60CE9EBF0E080818E7F80838081E1
:1015F0008D7F808388E48093B80085E48093BC006D
:1016000008951F920F920FB60F9211242F933F93BC
:101610008F939F93AF93BF9380913A0290913B0237
:10162000A0913C02B0913D0230913E020196A11D75
:10163000B11D232F2D5F2D3720F02D570196A11DB1
:10164000B11D20933E0280933A0290933B02A093F7
:101650003C02B0933D028091360290913702A091F6
:101660003802B09139020196A11DB11D8093360256
:1016700090933702A0933802B0933902BF91AF9193
:101680009F918F913F912F910F900FBE0F901F90C0
:1016900018958FB7F89420913A0230913B0240910F
:1016A0003C0250913D028FBFB901CA0108959B01D0
:1016B000AC017FB7F8948091360290913702A091E7
:1016C0003802B091390266B5A89B05C06F3F19F08A
:1016D0000196A11DB11D7FBFBA2FA92F982F882772
:1016E000860F911DA11DB11D62E0880F991FAA1FD1
:1016F000BB1F6A95D1F7BC012DC0FFB7F89480914C
:10170000360290913702A0913802B0913902E6B5C5
:10171000A89B05C0EF3F19F00196A11DB11DFFBFA9
:10172000BA2FA92F982F88278E0F911DA11DB11DAB
:10173000E2E0880F991FAA1FBB1FEA95D1F7861B0D
:10174000970B885E9340C8F2215030404040504093
:1017500068517C4F211531054105510571F60895F9
:10176000019739F0880F991F880F991F02970197E9
:10177000F1F70895789484B5826084BD84B5816062
:1017800084BD85B5826085BD85B5816085BDEEE689
:10179000F0E0808181608083E1E8F0E01082808168
:1017A00082608083808181608083E0E8F0E08081D6
:1017B00081608083E1EBF0E0808184608083E0EBF6
:1017C000F0E0808181608083EAE7F0E080818460DE
:1017D000808380818260808380818160808380813A
:1017E000806880831092C1000895982F8E3008F091
:1017F0009E509770809111018295880F880F807C90
:10180000892B80937C0080917A00806480937A0099
:1018100080917A0086FDFCCF20917800409179007C
:10182000942F80E030E0282B392BC90108951F93B5
:10183000CF93DF93182FEB0161E00E94770C209784
:1018400009F44AC0CF3FD10509F449C0E12FF0E0C7
:10185000E255FF4F84918330C1F0843028F4813009
:1018600051F08230B1F50CC0863019F1873049F162
:10187000843079F514C084B5806884BDC7BD33C099
:1018800084B5806284BDC8BD2EC080918000806810
:1018900080938000D0938900C093880024C08091F9
:1018A0008000806280938000D0938B00C0938A0078
:1018B0001AC08091B00080688093B000C093B300DC
:1018C00012C08091B00080628093B000C093B400D9
:1018D0000AC0C038D1051CF4812F60E002C0812FFE
:1018E00061E00E94B60CDF91CF911F910895CF93D4
:1018F000DF93482F50E0CA0186569F4FFC01349178
:101900004A575F4FFA018491882369F190E0880F6C
:10191000991FFC01E859FF4FA591B491FC01EE58C5
:10192000FF4FC591D491662351F42FB7F8948C9151
:10193000932F909589238C93888189230BC06230E3
:1019400061F42FB7F8948C91932F909589238C9301
:101950008881832B88832FBF06C09FB7F8948C9112
:10196000832B8C939FBFDF91CF910895482F50E038
:10197000CA0182559F4FFC012491CA0186569F4F90
:10198000FC0194914A575F4FFA013491332309F4D3
:1019900040C0222351F1233071F0243028F421304B
:1019A000A1F0223011F514C02630B1F02730C1F07B
:1019B0002430D9F404C0809180008F7703C08091D7
:1019C00080008F7D8093800010C084B58F7702C027
:1019D00084B58F7D84BD09C08091B0008F7703C02E
:1019E0008091B0008F7D8093B000E32FF0E0EE0F88
:1019F000FF1FEE58FF4FA591B4912FB7F8946623BF
:101A000021F48C919095892302C08C91892B8C9321
:101A10002FBF0895682F70E0CB0182559F4FFC01C6
:101A20002491CB0186569F4FFC0144916A577F4F0A
:101A3000FB019491992319F420E030E03CC022236B
:101A400051F1233071F0243028F42130A1F02230FC
:101A500011F514C02630B1F02730C1F02430D9F48C
:101A600004C0809180008F7703C0809180008F7DBB
:101A70008093800010C084B58F7702C084B58F7DBD
:101A800084BD09C08091B0008F7703C08091B00001
:101A90008F7D8093B000892F90E0880F991F845824
:101AA0009F4FFC01A591B4918C9120E030E08423FC
:101AB00011F021E030E0C90108958F929F92AF921A
:101AC000BF92CF92DF92EF92FF920F931F93CF932B
:101AD000DF93A82FB0E0CD0186569F4FFC01849084
:101AE000AA57BF4FFD018491662311F4992401C0C8
:101AF000982C6FEFA62E6FEFB62E6FEFC62E6FE00D
:101B0000D62EA222B322C422D522682F70E0660FFF
:101B1000771F64587F4FEE24FF248701FB01A591B6
:101B2000B4910BC0EA14FB040C051D0509F44EC06A
:101B30000894E11CF11C011D111D8C91882189154F
:101B400089F30CC0EA14FB040C051D0509F43EC022
:101B50000894E11CF11C011D111D03C0FB01A5919E
:101B6000B4918C918821891569F720E030E040E03C
:101B700050E0FB01C591D4910FC0DA01C9018E0D6F
:101B80009F1DA01FB11F8A159B05AC05BD05F1F077
:101B90002F5F3F4F4F4F5F4F88818821891569F331
:101BA000CA01B90125E130E040E050E00E94531243
:101BB0009B01AC01205F3F4F4F4F5F4F84E0569534
:101BC0004795379527958A95D1F704C020E030E0F6
:101BD00040E050E0B901CA01DF91CF911F910F9110
:101BE000FF90EF90DF90CF90BF90AF909F908F903D
:101BF000089508951F920F920FB60F9211242F93FC
:101C00003F934F938F939F93EF93FF938091C000E7
:101C100082FD1DC04091C60020917F02309180025C
:101C20002F5F3F4F2F73307080918102909182021D
:101C30002817390771F0E0917F02F0918002E15C92
:101C4000FD4F40833093800220937F0202C0809139
:101C5000C600FF91EF919F918F914F913F912F91EE
:101C60000F900FBE0F901F901895E091D302F09146
:101C7000D402E05CFF4F8191919120813181821BE0
:101C8000930B8F739070892B11F00E94F90D0895BA
:101C90001F920F920FB60F9211242F933F938F93A1
:101CA0009F93EF93FF932091C3023091C4028091E0
:101CB000C5029091C6022817390731F48091C100FE
:101CC0008F7D8093C10014C0E091C502F091C602DF
:101CD000ED57FD4F20818091C5029091C60201967B
:101CE0008F7390709093C6028093C5022093C600B4
:101CF000FF91EF919F918F913F912F910F900FBE88
:101D00000F901F901895AF92BF92DF92EF92FF92C3
:101D10000F931F93CF93DF93EC017A018B01DD24A6
:101D2000403081EE580780E0680780E0780711F0C6
:101D3000DD24D39491E0A92EB12CEC89FD89DD201E
:101D400069F0C50108A002C0880F991F0A94E2F744
:101D5000808360E079E08DE390E005C0108260E868
:101D600074E88EE190E0A80197010E94851221504D
:101D7000304040405040569547953795279580E133
:101D80002030380720F0DD2011F0DD24D6CFE8899F
:101D9000F9893083EA89FB89208319A2EE89FF89BA
:101DA000408121E030E0C9010C8C02C0880F991FEE
:101DB0000A94E2F7482B4083EE89FF894081C901EC
:101DC0000D8C02C0880F991F0A94E2F7482B4083BC
:101DD000EE89FF894081C9010E8C02C0880F991FCE
:101DE0000A94E2F7482B4083EE89FF8980810F8CAB
:101DF00002C0220F331F0A94E2F720952823208384
:101E0000DF91CF911F910F91FF90EF90DF90BF90E6
:101E1000AF900895DC011C96ED91FC911D97E05C5C
:101E2000FF4F2191319180819181281B390B2F73B4
:101E30003070C9010895DC011C96ED91FC911D974D
:101E4000E05CFF4F20813181E054F040DF01AE5B68
:101E5000BF4F8D919C9111972817390719F42FEFD7
:101E60003FEF07C08D919C91E80FF91F8081282FCB
:101E700030E0C9010895DC011C96ED91FC911D979D
:101E8000E05CFF4F20813181E054F040DF01AE5B28
:101E9000BF4F8D919C9111972817390719F42FEF97
:101EA0003FEF10C08D919C911197E80FF91F208191
:101EB0008D919C91119701968F73907011969C93C0
:101EC0008E9330E0C9010895DC0191968C91919731
:101ED000882339F05496ED91FC915597808186FFC7
:101EE000F9CF91961C920895CF93DF93EC01EE8584
:101EF000FF85E05CFF4F20813181E054F0402F5F8F
:101F00003F4F2F733070DF01AE5BBF4F8D919C91BF
:101F1000119728173907D1F3E05CFF4F8081918139
:101F2000E054F040E80FF91F6083EE85FF85E05C28
:101F3000FF4F31832083EE89FF89208181E090E08B
:101F40000F8C02C0880F991F0A94E2F7282B208378
:101F500081E089A3EC89FD8980818064808381E0B0
:101F600090E0DF91CF9108951092CA021092C902B9
:101F700088EE93E0A0E0B0E08093CB029093CC0297
:101F8000A093CD02B093CE0286E291E09093C80276
:101F90008093C7028FE392E09093D4028093D302A0
:101FA00083E892E09093D6028093D50285EC90E08E
:101FB0009093D8028093D70284EC90E09093DA0259
:101FC0008093D90280EC90E09093DC028093DB0256
:101FD00081EC90E09093DE028093DD0282EC90E051
:101FE0009093E0028093DF0286EC90E09093E2020F
:101FF0008093E10284E08093E30283E08093E40233
:1020000087E08093E50285E08093E60281E080939B
:10201000E7020895CF93DF930E94BA0B0E940C054C
:10202000C5E3DEE00E9419032097E1F30E94350E1C
:10203000F9CFCF92DF92EF92FF920F931F93CF933E
:10204000DF937C016B018A01C0E0D0E00FC0D601B4
:102050006D916D01D701ED91FC910190F081E02D22
:10206000C7010995C80FD91F01501040011511056E
:1020700071F7CE01DF91CF911F910F91FF90EF90FB
:10208000DF90CF900895EF92FF920F931F938C01F2
:10209000DC01ED91FC910190F081E02D6DE009955E
:1020A0007C01D801ED91FC910190F081E02DC801F7
:1020B0006AE009959C012E0D3F1DC9011F910F91EA
:1020C000FF90EF900895CF93DF93EC0161157105B8
:1020D00019F420E030E00FC0DB010D900020E9F79B
:1020E0001197A61BB70BE881F9810280F381E02DDF
:1020F000AD0109959C01C901DF91CF9108950E941E
:1021000063100895EF92FF920F931F937C010E943A
:1021100063108C01C7010E944310080F191FC801EA
:102120001F910F91FF90EF9008955058BB27AA2759
:102130000ED01CC10DD130F012D120F031F49F3FF0
:1021400011F41EF402C10EF4E095E7FBF8C0E92F8C
:102150001ED180F3BA17620773078407950718F03A
:1021600071F49EF536C10EF4E0950B2EBA2FA02D1A
:102170000B01B90190010C01CA01A0011124FF2734
:10218000591B99F0593F50F4503E68F11A16F0402F
:10219000A22F232F342F4427585FF3CF469537952E
:1021A0002795A795F0405395C9F77EF41F16BA0BF3
:1021B000620B730B840BBAF09150A1F0FF0FBB1FA1
:1021C000661F771F881FC2F70EC0BA0F621F731FEA
:1021D000841F48F4879577956795B795F7959E3F47
:1021E00008F0B3CF9395880F08F09927EE0F9795D5
:1021F000879508950CD0BAC0B2D040F0A9D030F085
:1022000021F45F3F19F09BC05111E4C09EC0BFD0C4
:1022100098F39923C9F35523B1F3951B550BBB27AD
:10222000AA2762177307840738F09F5F5F4F220F5A
:10223000331F441FAA1FA9F333D00E2E3AF0E0E853
:1022400030D091505040E695001CCAF729D0FE2F9F
:1022500027D0660F771F881FBB1F26173707480731
:10226000AB07B0E809F0BB0B802DBF01FF279358E7
:102270005F4F2AF09E3F510568F061C0ABC05F3FE1
:10228000ECF3983EDCF3869577956795B795F795CF
:102290009F5FC9F7880F911D9695879597F90895C7
:1022A000E1E0660F771F881FBB1F62177307840763
:1022B000BA0720F0621B730B840BBA0BEE1F88F772
:1022C000E0950895E89409C097FB3EF490958095B9
:1022D000709561957F4F8F4F9F4F9923A9F0F92FEC
:1022E00096E9BB279395F695879577956795B7956A
:1022F000F111F8CFFAF4BB0F11F460FF1BC06F5F50
:102300007F4F8F4F9F4F16C0882311F096E911C061
:10231000772321F09EE8872F762F05C0662371F082
:1023200096E8862F70E060E02AF09A95660F771F96
:10233000881FDAF7880F9695879597F9089597F98A
:102340009F6780E870E060E008959FEF80EC08955B
:1023500000240A9416161706180609060895002484
:102360000A9412161306140605060895092E0394FE
:10237000000C11F4882352F0BB0F40F4BF2B11F472
:1023800060FF04C06F5F7F4F8F4F9F4F089557FDD1
:102390009058440F551F59F05F3F71F04795880FD3
:1023A00097FB991F61F09F3F79F08795089512166A
:1023B00013061406551FF2CF4695F1DF08C0161616
:1023C00017061806991FF1CF8695710561050894C7
:1023D0000895E894BB2766277727CB0197F90895DE
:1023E0000BD0C4CFB5DF28F0BADF18F0952309F081
:1023F000A6CFABCF1124EECFCADFA0F3959FD1F3C8
:10240000950F50E0551F629FF001729FBB27F00DA2
:10241000B11D639FAA27F00DB11DAA1F649F6627F7
:10242000B00DA11D661F829F2227B00DA11D621F46
:10243000739FB00DA11D621F839FA00D611D221F00
:10244000749F3327A00D611D231F849F600D211DE4
:10245000822F762F6A2F11249F5750408AF0E1F087
:1024600088234AF0EE0FFF1FBB1F661F771F881FD0
:1024700091505040A9F79E3F510570F060CFAACF10
:102480005F3FECF3983EDCF3869577956795B795BB
:10249000F795E7959F5FC1F7FE2B880F911D9695E5
:1024A000879597F90895629FD001739FF001829FED
:1024B000E00DF11D649FE00DF11D929FF00D839FD3
:1024C000F00D749FF00D659FF00D9927729FB00D70
:1024D000E11DF91F639FB00DE11DF91FBD01CF0183
:1024E0001124089597FB092E07260AD077FD04D002
:1024F00049D006D000201AF4709561957F4F089559
:10250000F6F7909581959F4F0895A1E21A2EAA1B88
:10251000BB1BFD010DC0AA1FBB1FEE1FFF1FA21793
:10252000B307E407F50720F0A21BB30BE40BF50B90
:10253000661F771F881F991F1A9469F76095709519
:10254000809590959B01AC01BD01CF01089597FB4B
:10255000092E05260ED057FD04D0D7DF0AD0001C67
:1025600038F450954095309521953F4F4F4F5F4F30
:102570000895F6F790958095709561957F4F8F4FF0
:102580009F4F0895AA1BBB1B51E107C0AA1FBB1F89
:10259000A617B70710F0A61BB70B881F991F5A95EF
:1025A000A9F780959095BC01CD010895EE0FFF1F0E
:0C25B0000590F491E02D0994F894FFCF01
:1025BC0052656164206661696C00526561647921C1
:1025CC000001000000001108E0075E0767077C07A8
:1025DC008D0700000000740F19100A0F3B0F1B0F22
:0225EC00640F7A
:00000001FF
