:100000000C9463000C948B000C948B000C948B006C
:100010000C948B000C948B000C948B000C948B0034
:100020000C948B000C948B000C948B000C948B0024
:100030000C948B000C948B000C948B000C948B0014
:100040000C9489090C948B000C94820C0C94D00CA9
:100050000C948B000C948B000C948B000C948B00F4
:100060000C94DA070C948B00000000002400270099
:100070002A0000000000250028002B0000000000DE
:1000800023002600290004040404040404040202DA
:100090000202020203030303030301020408102007
:1000A0004080010204081020010204081020000012
:1000B0000007000201000003040600000000000029
:1000C000000051063C0E11241FBECFEFD8E0DEBF6A
:1000D000CDBF11E0A0E0B1E0ECECF2E202C005908F
:1000E0000D92A233B107D9F712E0A2E3B1E001C04B
:1000F0001D92A33EB107E1F710E0C6ECD0E004C0CA
:100100002297FE010E946011C23CD107C9F70E94EC
:10011000920E0C9464110C9400000F931F938C01A9
:10012000862FF80166834783208791E0958760E0FA
:100130000E94FF0AF801868161E00E943E0BF801EF
:1001400011861286138614861F910F910895CF92FF
:10015000DF92EF92FF920F931F93CF93DF93EC0107
:100160008E8161E00E943E0B6AEF70E080E090E0DB
:100170000E94DF090E94D1099B01AC0189859A8503
:10018000AB85BC85281739074A075B0720F4198619
:100190001A861B861C868D85882371F489859A852D
:1001A000AB85BC85281B390B4A0B5B0B205D3740A8
:1001B0004040504008F477C01D860E94D1096987ED
:1001C0007A878B879C871C821B821A8219821882ED
:1001D0008E8161E00E94FF0A8E8160E00E943E0BEA
:1001E00064E170E080E090E00E94DF09F8948E8185
:1001F00061E00E943E0B88E290E00E94380A8E8106
:1002000060E00E94FF0A81E0EE2400E010E00AC0F6
:10021000F39481E090E00E94380A8FEFF81629F4F9
:100220000AC0822FFF24C82EDD248E810E94920BEB
:100230008C159D0569F38E810E94920B282F8FEFFC
:10024000F816C9F0043090F000FD10C08E2D869590
:1002500086958695FE01E80FF11D9081990F908398
:1002600088858F1510F491609083E3940F5F1F4F82
:1002700005351105B1F6789487E28E1510F030E05F
:1002800013C030E04C8150E02981888190E0820FDA
:10029000911D2A81820F911D2B81820F911D9070DB
:1002A0004817590709F431E0832FDF91CF911F914F
:1002B0000F91FF90EF90DF90CF900895EF92FF9213
:1002C0000F931F93CF93DF93EC010E94A700882325
:1002D000A9F18F818B3031F08B3080F185518230E4
:1002E00068F507C0688170E080E090E00E94EA0F46
:1002F00022C0688170E080E090E00E94EA0F20E078
:1003000030E040E853E40E9478107B018C01698161
:1003100070E0882777FD8095982F0E94EC0F9B0155
:10032000AC01C801B7010E941E0F20E030E040E29E
:1003300051E40E94820FE62F692F0AC081EC92E0FF
:1003400060E071E00E94070FE0E070E080EC6FE792
:100350002E2F372F482F562FB901CA01DF91CF9189
:100360001F910F91FF90EF900895CF92DF92EF923F
:10037000FF920F931F93CF93DF93EC01C62E0E9441
:10038000A700882309F450C08F818B3041F08B3057
:1003900008F44AC08551823008F046C007C06A811F
:1003A00070E080E090E00E94EA0F29C0DA806D2DB5
:1003B00070E06F777070882777FD8095982F0E9486
:1003C000EC0F20E030E040E853E40E9478107B011D
:1003D0008C016B8170E0882777FD8095982F0E94B3
:1003E000EC0F9B01AC01C801B7010E941E0F20E079
:1003F00030E040E251E40E94820FD7FC9058CC20BC
:10040000E9F020E030E040E151E40E94781020E083
:1004100030E040EA50E40E94820F20E030E040E00B
:1004200052E40E941E0F0AC081EC92E060E071E08D
:100430000E94070F60E070E080EC9FE7DF91CF91B2
:100440001F910F91FF90EF90DF90CF900895DF9272
:10045000EF92FF920F931F937C0106EB11E0C8010E
:1004600068E670E00E94DC05C80160E00E94990621
:10047000C8010E94DC06C80168E670E047E050E071
:100480000E94ED06C8010E94EF05282F2F772295C4
:100490002F703AE0D32E2D9D900111248F70820F82
:1004A000F7018083C8010E94EF05282F22952F7045
:1004B0002D9D900111248F70820FF7018183C80157
:1004C0000E94EF05282F2F7322952F702D9D9001EC
:1004D00011248F70820FF7018283C8010E94EF05FB
:1004E000282F22952F702D9D900111248F70820F3F
:1004F000F7018383C8010E94EF05282F22952F70F2
:100500002D9D900111248F70820FF7018483C80103
:100510000E94EF05282F22952F702D9D9001112408
:100520008F70820FF7018583C8010E94EF05282F85
:1005300022952F702D9D900111248F70820FF7014D
:10054000868317821F910F91FF90EF90DF9008959F
:1005500086EB91E00E94F106089580914901909107
:100560004A01019731F486EB91E0609157010E94B6
:1005700099068091490190914A018330910511F0CB
:10058000079741F486EB91E068E571E043E050E0C5
:100590000E9468068091490190914A01449741F474
:1005A00086EB91E068E571E044E050E00E94680667
:1005B0008091490190914A018E31910511F08897FF
:1005C00041F486EB91E068E571E049E050E00E947B
:1005D000680608950F931F9323C086EB91E00E9455
:1005E000E605049741F410925601109255011092BD
:1005F000540110925301009153011091540186EB64
:1006000091E00E94EF05F801EE0FFF1FE75BFE4F40
:10061000918380830F5F1F4F109354010093530108
:1006200086EB91E00E94E605892BB9F61F910F91A8
:100630000895EF92FF920F931F93DF93CF93CDB75F
:10064000DEB728970FB6F894DEBF0FBECDBF8091FE
:10065000530190915401049709F068C180915501AC
:1006600090915601892B09F061C181E090E090934F
:100670005601809355018091490190914A0101975B
:1006800031F480914B010E94920B8093570180912D
:10069000490190914A01029731F480914B01609198
:1006A0004D010E943E0B8091490190914A010397B0
:1006B000B1F480914B010E947D0A9C0190936201EC
:1006C0008093610160E071E00E94FA10609359012B
:1006D000C90160E071E00E94FA1080935A01809194
:1006E000490190914A01049741F460914D01709144
:1006F0004E0180914B010E949F0A80914901909187
:100700004A01059731F480914B0160914D010E949F
:10071000FF0A8091490190914A01079709F052C060
:1007200080914B0190914C018093680190936901F5
:1007300061E00E94FF0A8091680160E00E943E0B28
:1007400082E090E00E94380A8091680161E00E9496
:100750003E0B85E090E00E94380A8091680160E0DD
:100760000E943E0B8091680160E00E94FF0A809128
:10077000680161E020E432E44FE050E00E94E50BC4
:100780002AE330E040E050E00E942F11122F032FA7
:10079000F42EE52E622F732F842F952F20E031E069
:1007A00040E050E00E942F1120935901612F702FDB
:1007B0008F2D9E2D20E031E040E050E00E942F116F
:1007C00060935A018091490190914A01449709F53B
:1007D00080916301882339F482E391E00E94CB0584
:1007E00081E08093630182E391E065E671E046E693
:1007F00051E027E631E00E94CD04809165018093AD
:1008000059018091660180935A018091670180931C
:100810005B018091490190914A014E9769F5809161
:100820006401882339F483E391E00E94A80281E007
:100830008093640183E391E00E9427028091350157
:10084000809359018091340180935A018091330142
:1008500080935B018091380180935C019091370116
:1008600090935D018091390180935E0190935F01C7
:1008700080913601809360018091490190914A01F5
:10088000889709F053C080914D0190914E010097D7
:1008900031F48BE391E060914B014BE013C0813068
:1008A000910531F48BE391E060914B0146E10AC080
:1008B0008230910511F0039741F48BE391E0609150
:1008C0004B0145E126E00E948D008BE391E060E062
:1008D0000E94B50169837A838B839C838BE391E0CB
:1008E0000E945E016D837E838F839887DE0111965F
:1008F000E9E5F1E020E030E004C08D9181932F5FC5
:100900003F4F24303105CCF3DE011596EDE5F1E0E3
:1009100024E030E004C08D9181932F5F3F4F283059
:100920003105CCF330936B0120936A0128960FB602
:10093000F894DEBF0FBECDBFCF91DF911F910F9115
:10094000FF90EF900895EF92FF920F931F9331EC79
:10095000E32E32E0F32EC70140E855E260E070E09C
:100960000E940B0D06EB11E0C80164E070E00E94EC
:100970001007C8016AEE72E00E944706C8016DEADE
:1009800072E00E944C06C7016AE071E00E940A0F03
:100990001F910F91FF90EF9008952F923F925F92D9
:1009A0006F927F928F929F92AF92BF92CF92DF927F
:1009B000EF92FF920F931F93DF93CF93CDB7DEB7E4
:1009C00027970FB6F894DEBF0FBECDBF1B015D8326
:1009D0004C833F832E830E94D1097B018C010CC084
:1009E0000E94D1096E197F09800B910B655F7140E0
:1009F000804090400CF08AC086EB91E00E94E605B2
:100A0000181619066CF380E48B838A83898386EB3E
:100A100091E00E94EF0586EB91E06CE470E043E02A
:100A200050E00E94ED060E94D109AC01CB01DA0131
:100A30003C014D016E010894C11CD11CAA24BB24A9
:100A400034C083E0A816B104FCF40E94D1097B01F4
:100A50008C0137014801F601808112C086EB91E0DC
:100A60000E94EF05582E0E94D1096E197F09800B54
:100A7000910B63337105810591050CF047C0852DFD
:100A8000803460F7F60180830E94D1090894C11C6C
:100A9000D11C6619770988099909655F7140804002
:100AA0009040A4F50894A11CB11C86EB91E00E9433
:100AB000E605892B31F6898190E0880F991F880F10
:100AC000991F982F87FD9D5F95959595F1019083CE
:100AD0008A8190E0880F991F880F991F982F87FDB2
:100AE0009D5F95959595EC81FD8190838B8190E03C
:100AF000880F991F880F991F982F87FD9D5F9595E7
:100B00009595EE81FF81908381E001C080E027967A
:100B10000FB6F894DEBF0FBECDBFCF91DF911F910E
:100B20000F91FF90EF90DF90CF90BF90AF909F908C
:100B30008F907F906F905F903F902F900895EF92ED
:100B4000FF920F931F93162F042F56EBE52E51E0C3
:100B5000F52EC7010E94F106C7016CE470E00E9407
:100B6000DC05C701612F0E949906C701602F0E9412
:100B70009906C7010E94DC061F910F91FF90EF902C
:100B80000895462F68E00E949F050895462F67E06C
:100B90000E949F0508950F931F938C0160E00E94AF
:100BA000C605C80160E00E94C105C80161E00E945D
:100BB000C6051F910F91089581E08093B101609364
:100BC0008E011092AF011092B001089520918D0115
:100BD00030E080918C01281B3109C90108954091B2
:100BE0008C0180918D01481718F02FEF3FEF0AC05C
:100BF000E42FF0E0E459FE4F8081282F30E04F5F72
:100C000040938C01C9010895E0918C0180918D0180
:100C1000E81718F0EFEFFFEF06C0F0E0E459FE4FE1
:100C20008081E82FF0E0CF0108950895AC01209174
:100C3000B4013091B50121153105E1F090918C019D
:100C400080918D019817B0F090E008C0FA01EA0F8A
:100C5000FB1F8081A459BE4F8C939F5FA92FB0E0EA
:100C6000A617B7079CF310928C0160938D01CB01FE
:100C7000F90109950895E091B201F091B30130971F
:100C800029F01092AF011092B00109950895709368
:100C9000B5016093B40108957093B3016093B201FC
:100CA00008951092B9011092B80188EE93E0A0E087
:100CB000B0E08093BA019093BB01A093BC01B093C4
:100CC000BD0186E191E09093B7018093B60108954C
:100CD000CF92DF92EF92FF920F931F93CF93DF9308
:100CE0007C016B018A018091B1018823A1F0C0E0F1
:100CF000D0E00DC0D701ED91FC91D601AC0FBD1F26
:100D00000190F081E02DC7016C9109952196C017E3
:100D1000D10780F304C0CB01642F0E94B507C8013E
:100D2000DF91CF911F910F91FF90EF90DF90CF90C7
:100D30000895DF93CF930F92CDB7DEB7FC0169839F
:100D40008091B1018823C9F08091B001803238F0E0
:100D500081E090E09383828320E030E015C08091B1
:100D6000AF01E82FF0E0E157FE4F998190838F5F4C
:100D70008093AF018093B00105C0CE01019661E080
:100D80000E94B50721E030E0C9010F90CF91DF91BB
:100D900008950F93062F80918E016FE871E04091C6
:100DA000B00121E00E9460071092AF011092B001E3
:100DB0001092B1010F91089561E00E94C906089553
:100DC000413208F040E2862F6CE671E00E9417077E
:100DD00010928C0180938D01089521E00E94E0061D
:100DE000089510928C0110928D011092AF01109213
:100DF000B0010E946B0908950F931F938C01862FF9
:100E00000E9413078BE396E00E94D50786E196E0E7
:100E10000E94D007C8010E94F1061F910F9108950A
:100E20000E94FC060895880F8093BA000895382F19
:100E3000413210F040E042C08091C2018823E1F7C6
:100E400091E09093C2012093C4018FEF80932F0211
:100E50001092EA0141504093EB014F5F9093C30120
:100E60008091C301330F832B8093C3018091C5010F
:100E7000813041F41092C5018091C3018093BB0081
:100E800085EC01C085EE8093BC008091C201813069
:100E9000E1F38091EA01841710F44091EA0120E027
:100EA00030E00AC0FB01E20FF31FD901A653BE4F89
:100EB0008C9180832F5F3F4F2417A0F3842F0895D8
:100EC0000F931F93582F122F413210F081E04AC028
:100ED0008091C2018823E1F782E08093C2010093F0
:100EE000C4018FEF80932F021092EA014093EB012F
:100EF000AAECB1E0FB0102C081918D938E2F861B7D
:100F00008417D0F31092C3018091C301550F852B34
:100F10008093C3018091C501813041F41092C501D5
:100F20008091C3018093BB0085EC01C085EE809366
:100F3000BC00112321F08091C2018230E1F3809145
:100F40002F028F3F11F480E00DC080912F0280327C
:100F500011F482E007C080912F02803311F084E009
:100F600001C083E01F910F910895482F613210F066
:100F700081E008958091C201843011F082E00895EB
:100F800060930D02ACEEB1E0842F9C01F90102C028
:100F900081918D938E2F841B8617D0F380E0089566
:100FA0009093C9018093C80108959093C7018093DD
:100FB000C60108951F920F920FB60F9211242F931E
:100FC0003F934F935F936F937F938F939F93AF93D1
:100FD000BF93EF93FF938091B90090E0887F90706A
:100FE0008036910509F4F2C081369105CCF588323E
:100FF000910509F47BC089329105B4F480319105E3
:1010000009F46FC0813191053CF4009709F447C1A0
:10101000089709F04FC165C08831910509F466C091
:10102000809709F047C182C08034910509F4A4C0BB
:101030008134910544F48033910509F482C0C89746
:1010400009F038C189C08035910509F489C0883517
:10105000910509F496C08834910509F02BC1AEC002
:101060008839910509F413C189399105ECF4883761
:10107000910509F4ABC0893791054CF48836910588
:1010800009F4A4C08037910509F014C19FC08838C5
:10109000910509F4FCC08039910509F49DC08038A0
:1010A000910509F007C198C0803B910509F4C6C0BD
:1010B000813B91054CF4803A910509F49FC0883A30
:1010C000910509F0F7C0BAC0803C910509F4E3C06E
:1010D000883C910509F4DFC0883B910509F0EAC01E
:1010E000C2C08091C3018093BB00CFC09091EA0140
:1010F0008091EB01981768F49091EA01E92FF0E0F4
:10110000E653FE4F80818093BB009F5F9093EA017E
:10111000BCC08091C401882309F44BC085ED809345
:10112000BC008091BC0084FDFCCFC2C080E28093F3
:101130002F0285ED8093BC008091BC0084FDFCCF24
:10114000B7C080E380932F0285ED8093BC0080912F
:10115000BC0084FDFCCFACC088E380932F029BC011
:101160008091EA019091BB00E82FF0E0E653FE4F3A
:1011700090838F5F8093EA019091EA018091EB0167
:1011800082C08091EA019091BB00E82FF0E0E65325
:10119000FE4F90838F5F8093EA018091C401882382
:1011A00041F085ED8093BC008091BC0084FDFCCFB4
:1011B0007FC081E08093C50184EA6EC085ED809395
:1011C000BC008091BC0084FDFCCF72C083E08093A2
:1011D000C20110922E0259C080912E02803208F076
:1011E00056C080912E029091BB00E82FF0E0E25FA4
:1011F000FD4F90838F5F80932E0247C080912E0217
:10120000803230F4E0912E02F0E0E25FFD4F108278
:1012100085ED8093BC008091BC0084FDFCCF1092D2
:10122000C20160912E02E091C801F091C9018EE0E7
:1012300092E070E0099510922E022DC084E0809318
:10124000C20110920C0210920D02E091C601F091C1
:10125000C701099580910D02882329F481E08093CC
:101260000D021092EC0190910C02E92FF0E0E45194
:10127000FE4F80818093BB009F5F90930C02909102
:101280000C0280910D02981710F485EC01C085E8DE
:101290008093BC000FC085EC8093BC0009C0109205
:1012A0002F0285ED8093BC008091BC0084FDFCCFB3
:1012B0001092C201FF91EF91BF91AF919F918F91D9
:1012C0007F916F915F914F913F912F910F900FBE42
:1012D0000F901F9018951092C20181E08093C40175
:1012E0001092C50182E161E00E943E0B83E161E062
:1012F0000E943E0BE9EBF0E080818E7F808380814D
:101300008D7F808388E48093B80085E48093BC005F
:1013100008951F920F920FB60F9211242F933F93AF
:101320008F939F93AF93BF93809134029091350236
:10133000A0913602B0913702309138020196A11D7A
:10134000B11D232F2D5F2D3720F02D570196A11DA4
:10135000B11D209338028093340290933502A093FC
:101360003602B09337028091300290913102A09101
:101370003202B09133020196A11DB11D809330025B
:1013800090933102A0933202B0933302BF91AF9198
:101390009F918F913F912F910F900FBE0F901F90B3
:1013A00018958FB7F894209134023091350240910E
:1013B0003602509137028FBFB901CA0108959B01CF
:1013C000AC017FB7F8948091300290913102A091E6
:1013D0003202B091330266B5A89B05C06F3F19F089
:1013E0000196A11DB11D7FBFBA2FA92F982F882765
:1013F000860F911DA11DB11D62E0880F991FAA1FC4
:10140000BB1F6A95D1F7BC012DC0FFB7F89480913E
:10141000300290913102A0913202B0913302E6B5D0
:10142000A89B05C0EF3F19F00196A11DB11DFFBF9C
:10143000BA2FA92F982F88278E0F911DA11DB11D9E
:10144000E2E0880F991FAA1FBB1FEA95D1F7861B00
:10145000970B885E9340C8F2215030404040504086
:1014600068517C4F211531054105510571F60895EC
:10147000019739F0880F991F880F991F02970197DC
:10148000F1F70895789484B5826084BD84B5816055
:1014900084BD85B5826085BD85B5816085BDEEE67C
:1014A000F0E0808181608083E1E8F0E0108280815B
:1014B00082608083808181608083E0E8F0E08081C9
:1014C00081608083E1EBF0E0808184608083E0EBE9
:1014D000F0E0808181608083EAE7F0E080818460D1
:1014E000808380818260808380818160808380812D
:1014F000806880831092C1000895982F8E3008F084
:101500009E509770809111018295880F880F807C82
:10151000892B80937C0080917A00806480937A008C
:1015200080917A0086FDFCCF20917800409179006F
:10153000942F80E030E0282B392BC90108951F93A8
:10154000CF93DF93182FEB0161E00E94FF0A2097F1
:1015500009F44AC0CF3FD10509F449C0E12FF0E0BA
:10156000E255FF4F84918330C1F0843028F48130FC
:1015700051F08230B1F50CC0863019F1873049F155
:10158000843079F514C084B5806884BDC7BD33C08C
:1015900084B5806284BDC8BD2EC080918000806803
:1015A00080938000D0938900C093880024C08091EC
:1015B0008000806280938000D0938B00C0938A006B
:1015C0001AC08091B00080688093B000C093B300CF
:1015D00012C08091B00080628093B000C093B400CC
:1015E0000AC0C038D1051CF4812F60E002C0812FF1
:1015F00061E00E943E0BDF91CF911F910895CF9340
:10160000DF93482F50E0CA0186569F4FFC0134916A
:101610004A575F4FFA018491882369F190E0880F5F
:10162000991FFC01E859FF4FA591B491FC01EE58B8
:10163000FF4FC591D491662351F42FB7F8948C9144
:10164000932F909589238C93888189230BC06230D6
:1016500061F42FB7F8948C91932F909589238C93F4
:101660008881832B88832FBF06C09FB7F8948C9105
:10167000832B8C939FBFDF91CF910895482F50E02B
:10168000CA0182559F4FFC012491CA0186569F4F83
:10169000FC0194914A575F4FFA013491332309F4C6
:1016A00040C0222351F1233071F0243028F421303E
:1016B000A1F0223011F514C02630B1F02730C1F06E
:1016C0002430D9F404C0809180008F7703C08091CA
:1016D00080008F7D8093800010C084B58F7702C01A
:1016E00084B58F7D84BD09C08091B0008F7703C021
:1016F0008091B0008F7D8093B000E32FF0E0EE0F7B
:10170000FF1FEE58FF4FA591B4912FB7F8946623B1
:1017100021F48C919095892302C08C91892B8C9314
:101720002FBF0895682F70E0CB0182559F4FFC01B9
:101730002491CB0186569F4FFC0144916A577F4FFD
:10174000FB019491992319F420E030E03CC022235E
:1017500051F1233071F0243028F42130A1F02230EF
:1017600011F514C02630B1F02730C1F02430D9F47F
:1017700004C0809180008F7703C0809180008F7DAE
:101780008093800010C084B58F7702C084B58F7DB0
:1017900084BD09C08091B0008F7703C08091B000F4
:1017A0008F7D8093B000892F90E0880F991F845817
:1017B0009F4FFC01A591B4918C9120E030E08423EF
:1017C00011F021E030E0C90108958F929F92AF920D
:1017D000BF92CF92DF92EF92FF920F931F93CF931E
:1017E000DF93A82FB0E0CD0186569F4FFC01849077
:1017F000AA57BF4FFD018491662311F4992401C0BB
:10180000982C6FEFA62E6FEFB62E6FEFC62E6FE0FF
:10181000D62EA222B322C422D522682F70E0660FF2
:10182000771F64587F4FEE24FF248701FB01A591A9
:10183000B4910BC0EA14FB040C051D0509F44EC05D
:101840000894E11CF11C011D111D8C918821891542
:1018500089F30CC0EA14FB040C051D0509F43EC015
:101860000894E11CF11C011D111D03C0FB01A59191
:10187000B4918C918821891569F720E030E040E02F
:1018800050E0FB01C591D4910FC0DA01C9018E0D62
:101890009F1DA01FB11F8A159B05AC05BD05F1F06A
:1018A0002F5F3F4F4F4F5F4F88818821891569F324
:1018B000CA01B90125E130E040E050E00E94DB10B0
:1018C0009B01AC01205F3F4F4F4F5F4F84E0569527
:1018D0004795379527958A95D1F704C020E030E0E9
:1018E00040E050E0B901CA01DF91CF911F910F9103
:1018F000FF90EF90DF90CF90BF90AF909F908F9030
:10190000089508951F920F920FB60F9211242F93EE
:101910003F934F938F939F93EF93FF938091C000DA
:1019200082FD1DC04091C6002091790230917A025B
:101930002F5F3F4F2F73307080917B0290917C021C
:101940002817390771F0E0917902F0917A02E75C8B
:10195000FD4F408330937A022093790202C0809138
:10196000C600FF91EF919F918F914F913F912F91E1
:101970000F900FBE0F901F901895E091CD02F0913F
:10198000CE02E05CFF4F8191919120813181821BD9
:10199000930B8F739070892B11F00E94810C089526
:1019A0001F920F920FB60F9211242F933F938F9394
:1019B0009F93EF93FF932091BD023091BE028091DF
:1019C000BF029091C0022817390731F48091C100FD
:1019D0008F7D8093C10014C0E091BF02F091C002DE
:1019E000E358FD4F20818091BF029091C002019683
:1019F0008F7390709093C0028093BF022093C600B3
:101A0000FF91EF919F918F913F912F910F900FBE7A
:101A10000F901F901895AF92BF92DF92EF92FF92B6
:101A20000F931F93CF93DF93EC017A018B01DD2499
:101A3000403081EE580780E0680780E0780711F0B9
:101A4000DD24D39491E0A92EB12CEC89FD89DD2011
:101A500069F0C50108A002C0880F991F0A94E2F737
:101A6000808360E079E08DE390E005C0108260E85B
:101A700074E88EE190E0A80197010E940D112150B9
:101A8000304040405040569547953795279580E126
:101A90002030380720F0DD2011F0DD24D6CFE88992
:101AA000F9893083EA89FB89208319A2EE89FF89AD
:101AB000408121E030E0C9010C8C02C0880F991FE1
:101AC0000A94E2F7482B4083EE89FF894081C901DF
:101AD0000D8C02C0880F991F0A94E2F7482B4083AF
:101AE000EE89FF894081C9010E8C02C0880F991FC1
:101AF0000A94E2F7482B4083EE89FF8980810F8C9E
:101B000002C0220F331F0A94E2F720952823208376
:101B1000DF91CF911F910F91FF90EF90DF90BF90D9
:101B2000AF900895DC011C96ED91FC911D97E05C4F
:101B3000FF4F2191319180819181281B390B2F73A7
:101B40003070C9010895DC011C96ED91FC911D9740
:101B5000E05CFF4F20813181E054F040DF01AE5B5B
:101B6000BF4F8D919C9111972817390719F42FEFCA
:101B70003FEF07C08D919C91E80FF91F8081282FBE
:101B800030E0C9010895DC011C96ED91FC911D9790
:101B9000E05CFF4F20813181E054F040DF01AE5B1B
:101BA000BF4F8D919C9111972817390719F42FEF8A
:101BB0003FEF10C08D919C911197E80FF91F208184
:101BC0008D919C91119701968F73907011969C93B3
:101BD0008E9330E0C9010895DC0191968C91919724
:101BE000882339F05496ED91FC915597808186FFBA
:101BF000F9CF91961C920895CF93DF93EC01EE8577
:101C0000FF85E05CFF4F20813181E054F0402F5F81
:101C10003F4F2F733070DF01AE5BBF4F8D919C91B2
:101C2000119728173907D1F3E05CFF4F808191812C
:101C3000E054F040E80FF91F6083EE85FF85E05C1B
:101C4000FF4F31832083EE89FF89208181E090E07E
:101C50000F8C02C0880F991F0A94E2F7282B20836B
:101C600081E089A3EC89FD8980818064808381E0A3
:101C700090E0DF91CF9108951092C4021092C302B8
:101C800088EE93E0A0E0B0E08093C5029093C60296
:101C9000A093C702B093C80286E291E09093C2027B
:101CA0008093C10289E392E09093CE028093CD02AB
:101CB0008DE792E09093D0028093CF0285EC90E084
:101CC0009093D2028093D10284EC90E09093D4025E
:101CD0008093D30280EC90E09093D6028093D5025B
:101CE00081EC90E09093D8028093D70282EC90E050
:101CF0009093DA028093D90286EC90E09093DC0214
:101D00008093DB0284E08093DD0283E08093DE0237
:101D100087E08093DF0285E08093E00281E080939A
:101D2000E1020895CF93DF930E94420A0E94A30428
:101D3000CDEBDCE00E9419032097E1F30E94BD0C7B
:101D4000F9CFCF92DF92EF92FF920F931F93CF9331
:101D5000DF937C016B018A01C0E0D0E00FC0D601A7
:101D60006D916D01D701ED91FC910190F081E02D15
:101D7000C7010995C80FD91F015010400115110561
:101D800071F7CE01DF91CF911F910F91FF90EF90EE
:101D9000DF90CF900895EF92FF920F931F938C01E5
:101DA000DC01ED91FC910190F081E02D6DE0099551
:101DB0007C01D801ED91FC910190F081E02DC801EA
:101DC0006AE009959C012E0D3F1DC9011F910F91DD
:101DD000FF90EF900895CF93DF93EC0161157105AB
:101DE00019F420E030E00FC0DB010D900020E9F78E
:101DF0001197A61BB70BE881F9810280F381E02DD2
:101E0000AD0109959C01C901DF91CF9108950E9410
:101E1000EB0E0895EF92FF920F931F937C010E94A7
:101E2000EB0E8C01C7010E94CB0E080F191FC801D1
:101E30001F910F91FF90EF9008955058BB27AA274C
:101E40000ED01CC10DD130F012D120F031F49F3FE3
:101E500011F41EF402C10EF4E095E7FBF8C0E92F7F
:101E60001ED180F3BA17620773078407950718F02D
:101E700071F49EF536C10EF4E0950B2EBA2FA02D0D
:101E80000B01B90190010C01CA01A0011124FF2727
:101E9000591B99F0593F50F4503E68F11A16F04022
:101EA000A22F232F342F4427585FF3CF4695379521
:101EB0002795A795F0405395C9F77EF41F16BA0BE6
:101EC000620B730B840BBAF09150A1F0FF0FBB1F94
:101ED000661F771F881FC2F70EC0BA0F621F731FDD
:101EE000841F48F4879577956795B795F7959E3F3A
:101EF00008F0B3CF9395880F08F09927EE0F9795C8
:101F0000879508950CD0BAC0B2D040F0A9D030F077
:101F100021F45F3F19F09BC05111E4C09EC0BFD0B7
:101F200098F39923C9F35523B1F3951B550BBB27A0
:101F3000AA2762177307840738F09F5F5F4F220F4D
:101F4000331F441FAA1FA9F333D00E2E3AF0E0E846
:101F500030D091505040E695001CCAF729D0FE2F92
:101F600027D0660F771F881FBB1F26173707480724
:101F7000AB07B0E809F0BB0B802DBF01FF279358DA
:101F80005F4F2AF09E3F510568F061C0ABC05F3FD4
:101F9000ECF3983EDCF3869577956795B795F795C2
:101FA0009F5FC9F7880F911D9695879597F90895BA
:101FB000E1E0660F771F881FBB1F62177307840756
:101FC000BA0720F0621B730B840BBA0BEE1F88F765
:101FD000E0950895E89409C097FB3EF490958095AC
:101FE000709561957F4F8F4F9F4F9923A9F0F92FDF
:101FF00096E9BB279395F695879577956795B7955D
:10200000F111F8CFFAF4BB0F11F460FF1BC06F5F42
:102010007F4F8F4F9F4F16C0882311F096E911C054
:10202000772321F09EE8872F762F05C0662371F075
:1020300096E8862F70E060E02AF09A95660F771F89
:10204000881FDAF7880F9695879597F9089597F97D
:102050009F6780E870E060E008959FEF80EC08954E
:1020600000240A9416161706180609060895002477
:102070000A9412161306140605060895092E0394F1
:10208000000C11F4882352F0BB0F40F4BF2B11F465
:1020900060FF04C06F5F7F4F8F4F9F4F089557FDC4
:1020A0009058440F551F59F05F3F71F04795880FC6
:1020B00097FB991F61F09F3F79F08795089512165D
:1020C00013061406551FF2CF4695F1DF08C0161609
:1020D00017061806991FF1CF8695710561050894BA
:1020E0000895E894BB2766277727CB0197F90895D1
:1020F0000BD0C4CFB5DF28F0BADF18F0952309F074
:10210000A6CFABCF1124EECFCADFA0F3959FD1F3BA
:10211000950F50E0551F629FF001729FBB27F00D95
:10212000B11D639FAA27F00DB11DAA1F649F6627EA
:10213000B00DA11D661F829F2227B00DA11D621F39
:10214000739FB00DA11D621F839FA00D611D221FF3
:10215000749F3327A00D611D231F849F600D211DD7
:10216000822F762F6A2F11249F5750408AF0E1F07A
:1021700088234AF0EE0FFF1FBB1F661F771F881FC3
:1021800091505040A9F79E3F510570F060CFAACF03
:102190005F3FECF3983EDCF3869577956795B795AE
:1021A000F795E7959F5FC1F7FE2B880F911D9695D8
:1021B000879597F90895629FD001739FF001829FE0
:1021C000E00DF11D649FE00DF11D929FF00D839FC6
:1021D000F00D749FF00D659FF00D9927729FB00D63
:1021E000E11DF91F639FB00DE11DF91FBD01CF0176
:1021F0001124089597FB092E07260AD077FD04D0F5
:1022000049D006D000201AF4709561957F4F08954B
:10221000F6F7909581959F4F0895A1E21A2EAA1B7B
:10222000BB1BFD010DC0AA1FBB1FEE1FFF1FA21786
:10223000B307E407F50720F0A21BB30BE40BF50B83
:10224000661F771F881F991F1A9469F7609570950C
:10225000809590959B01AC01BD01CF01089597FB3E
:10226000092E05260ED057FD04D0D7DF0AD0001C5A
:1022700038F450954095309521953F4F4F4F5F4F23
:102280000895F6F790958095709561957F4F8F4FE3
:102290009F4F0895AA1BBB1B51E107C0AA1FBB1F7C
:1022A000A617B70710F0A61BB70B881F991F5A95E2
:1022B000A9F780959095BC01CD010895EE0FFF1F01
:0C22C0000590F491E02D0994F894FFCFF4
:1022CC0052656164206661696C00526561647921B4
:1022DC0000010000000099066806E605EF050406FB
:1022EC00150600000000FC0DA10E920DC30DA30DF0
:0222FC00EC0DE7
:00000001FF
