:100000000C9462000C948A000C948A000C948A0070
:100010000C948A000C948A000C948A000C948A0038
:100020000C948A000C948A000C948A000C948A0028
:100030000C948A000C948A000C948A000C948A0018
:100040000C946F070C948A000C948A000C948A001C
:100050000C948A000C948A000C948A000C948A00F8
:100060000C94C0050C948A000000000024002700B6
:100070002A0000000000250028002B0000000000DE
:1000800023002600290004040404040404040202DA
:100090000202020203030303030301020408102007
:1000A0004080010204081020010204081020000012
:1000B0000007000201000003040600000000000029
:1000C0000000370411241FBECFEFD8E0DEBFCDBF44
:1000D00011E0A0E0B1E0E0E5F5E102C005900D928D
:1000E000A231B107D9F712E0A2E1B1E001C01D923F
:1000F000A930B107E1F710E0C4ECD0E004C02297CA
:10010000FE010E94A20AC23CD107C9F70E940E0A52
:100110000C94A60A0C940000DF92EF92FF920F93CA
:100120001F937C0106E811E0C80168E670E00E94B8
:10013000C203C80160E00E947F04C8010E94C2049B
:10014000C80168E670E047E050E00E94D304C801AF
:100150000E94D503282F2F7722952F703AE0D32EB7
:100160002D9D900111248F70820FF7018083C801AB
:100170000E94D503282F22952F702D9D90011124C8
:100180008F70820FF7018183C8010E94D503282F49
:100190002F7322952F702D9D900111248F70820F47
:1001A000F7018283C8010E94D503282F22952F7062
:1001B0002D9D900111248F70820FF7018383C80158
:1001C0000E94D503282F22952F702D9D9001112478
:1001D0008F70820FF7018483C8010E94D503282FF6
:1001E00022952F702D9D900111248F70820FF701A1
:1001F0008583C8010E94D503282F22952F702D9D3D
:10020000900111248F70820FF701868317821F914E
:100210000F91FF90EF90DF90089586E891E00E94A3
:10022000D704089580911B0190911C01019731F42E
:1002300086E891E0609129010E947F0480911B0172
:1002400090911C018330910511F0079741F486E8E5
:1002500091E06AE271E043E050E00E944E04809138
:100260001B0190911C01449741F486E891E06AE2F9
:1002700071E044E050E00E944E0480911B01909197
:100280001C014E9741F486E891E06AE271E049E092
:1002900050E00E944E0408950F931F9323C086E8F8
:1002A00091E00E94CC03049741F41092280110922F
:1002B000270110922601109225010091250110912D
:1002C000260186E891E00E94D503F801EE0FFF1F9A
:1002D000E55EFE4F918380830F5F1F4F10932601D1
:1002E0000093250186E891E00E94CC03892BB9F6A2
:1002F0001F910F910895EF92FF920F931F9380919A
:10030000250190912601049709F00EC180912701E3
:1003100090912801892B09F007C181E090E090932A
:1003200028018093270180911B0190911C01019766
:1003300031F480911D010E941F0980932901809151
:100340001B0190911C01029731F480911D01609175
:100350001F010E94CB0880911B0190911C01039703
:10036000B1F480911D010E940A089C019093340110
:100370008093330160E071E00E943C0A60932B019E
:10038000C90160E071E00E943C0A80932C018091D9
:100390001B0190911C01049741F460911F01709121
:1003A000200180911D010E942C0880911B019091D9
:1003B0001C01059731F480911D0160911F010E947D
:1003C0008C0880911B0190911C01079709F052C085
:1003D00080911D0190911E0180933A0190933B0101
:1003E00061E00E948C0880913A0160E00E94CB0895
:1003F00082E090E00E94C50780913A0161E00E948E
:10040000CB0885E090E00E94C50780913A0160E04A
:100410000E94CB0880913A0160E00E948C08809194
:100420003A0161E020E432E44FE050E00E947209BA
:100430002AE330E040E050E00E94710A122F032FBF
:10044000F42EE52E622F732F842F952F20E031E0BC
:1004500040E050E00E94710A20932B01612F702F21
:100460008F2D9E2D20E031E040E050E00E94710A87
:1004700060932C0180911B0190911C01449709F518
:1004800080913501882339F482E191E00E94B10323
:1004900081E08093350182E191E067E371E048E318
:1004A00051E029E331E00E94B3028091370180934B
:1004B0002B018091380180932C0180913901809328
:1004C0002D018EE190E090931C0180931B0180919F
:1004D0003601882339F483E191E00E940D0181E027
:1004E0008093360183E191E00E948C008091150198
:1004F00080932B018091140180932C018091130132
:1005000080932D018091180180932E019091170105
:1005100090932F01809119018093300190933101C4
:1005200080911601809332011F910F91FF90EF90FF
:1005300008950F931F9306E811E0C80164E070E08E
:100540000E94F604C8016CE471E00E942D04C80109
:1005500062E171E00E94320484E061E00E948C0854
:100560001F910F9108952F923F925F926F927F9209
:100570008F929F92AF92BF92CF92DF92EF92FF92B3
:100580000F931F93DF93CF93CDB7DEB727970FB6A7
:10059000F894DEBF0FBECDBF1B015D834C833F834C
:1005A0002E830E94B7077B018C010CC00E94B70705
:1005B0006E197F09800B910B655F71408040904000
:1005C0000CF08AC086E891E00E94CC031816190648
:1005D0006CF380E48B838A83898386E891E00E94B0
:1005E000D50386E891E06CE470E043E050E00E94BF
:1005F000D3040E94B707AC01CB01DA013C014D01E5
:100600006E010894C11CD11CAA24BB2434C083E011
:10061000A816B104FCF40E94B7077B018C013701D6
:100620004801F601808112C086E891E00E94D5035E
:10063000582E0E94B7076E197F09800B910B633308
:100640007105810591050CF047C0852D803460F758
:10065000F60180830E94B7070894C11CD11C66195B
:10066000770988099909655F714080409040A4F539
:100670000894A11CB11C86E891E00E94CC03892B50
:1006800031F6898190E0880F991F880F991F982F64
:1006900087FD9D5F95959595F10190838A8190E006
:1006A000880F991F880F991F982F87FD9D5F95953B
:1006B0009595EC81FD8190838B8190E0880F991F47
:1006C000880F991F982F87FD9D5F95959595EE81D1
:1006D000FF81908381E001C080E027960FB6F894F7
:1006E000DEBF0FBECDBFCF91DF911F910F91FF9065
:1006F000EF90DF90CF90BF90AF909F908F907F90C2
:100700006F905F903F902F900895EF92FF920F931C
:100710001F93162F042F56E8E52E51E0F52EC70142
:100720000E94D704C7016CE470E00E94C203C701B5
:10073000612F0E947F04C701602F0E947F04C701C0
:100740000E94C2041F910F91FF90EF900895462FD1
:1007500068E00E9485030895462F67E00E948503A4
:1007600008950F931F938C0160E00E94AC03C801B1
:1007700060E00E94A703C80161E00E94AC031F91E2
:100780000F91089581E08093810160935E01109242
:100790007F0110928001089520915D0130E08091E9
:1007A0005C01281B3109C901089540915C018091C9
:1007B0005D01481718F02FEF3FEF0AC0E42FF0E07B
:1007C000E45CFE4F8081282F30E04F5F40935C0156
:1007D000C9010895E0915C0180915D01E81718F06E
:1007E000EFEFFFEF06C0F0E0E45CFE4F8081E82F02
:1007F000F0E0CF0108950895AC012091840130917B
:10080000850121153105E1F090915C0180915D0138
:100810009817B0F090E008C0FA01EA0FFB1F808142
:10082000A45CBE4F8C939F5FA92FB0E0A617B707BB
:100830009CF310925C0160935D01CB01F901099575
:100840000895E0918201F0918301309729F0109290
:100850007F0110928001099508957093850160933E
:10086000840108957093830160938201089510922A
:1008700089011092880188EE93E0A0E0B0E08093B7
:100880008A0190938B01A0938C01B0938D0185E038
:1008900091E090938701809386010895CF92DF9233
:1008A000EF92FF920F931F93CF93DF937C016B0125
:1008B0008A01809181018823A1F0C0E0D0E00DC0C1
:1008C000D701ED91FC91D601AC0FBD1F0190F081D5
:1008D000E02DC7016C9109952196C017D10780F3CF
:1008E00004C0CB01642F0E949B05C801DF91CF910A
:1008F0001F910F91FF90EF90DF90CF900895DF93BD
:10090000CF930F92CDB7DEB7FC016983809181014F
:100910008823C9F080918001803238F081E090E036
:100920009383828320E030E015C080917F01E82F1F
:10093000F0E0E15AFE4F998190838F5F80937F01B1
:100940008093800105C0CE01019661E00E949B0565
:1009500021E030E0C9010F90CF91DF9108950F930E
:10096000062F80915E016FE571E04091800121E0EA
:100970000E94460510927F01109280011092810121
:100980000F91089561E00E94AF040895413208F08C
:1009900040E2862F6CE371E00E94FD0410925C013E
:1009A00080935D01089521E00E94C604089510928D
:1009B0005C0110925D0110927F01109280010E94F3
:1009C000510708950F931F938C01862F0E94F904FD
:1009D00081E294E00E94BB058CEF93E00E94B60593
:1009E000C8010E94D7041F910F9108950E94E2044C
:1009F0000895880F8093BA000895382F413210F07F
:100A000040E042C0809192018823E1F791E0909309
:100A10009201209394018FEF8093FF011092BA010D
:100A200041504093BB014F5F90939301809193019C
:100A3000330F832B8093930180919501813041F492
:100A400010929501809193018093BB0085EC01C0C9
:100A500085EE8093BC00809192018130E1F380911A
:100A6000BA01841710F44091BA0120E030E00AC0C6
:100A7000FB01E20FF31FD901A656BE4F8C91808374
:100A80002F5F3F4F2417A0F3842F08950F931F93D8
:100A9000582F122F413210F081E04AC0809192010C
:100AA0008823E1F782E080939201009394018FEF15
:100AB0008093FF011092BA014093BB01AAE9B1E013
:100AC000FB0102C081918D938E2F861B8417D0F37A
:100AD0001092930180919301550F852B8093930180
:100AE00080919501813041F410929501809193019C
:100AF0008093BB0085EC01C085EE8093BC00112380
:100B000021F0809192018230E1F38091FF018F3FCB
:100B100011F480E00DC08091FF01803211F482E079
:100B200007C08091FF01803311F084E001C083E0B1
:100B30001F910F910895482F613210F081E00895C0
:100B400080919201843011F082E008956093DD017C
:100B5000ACEBB1E0842F9C01F90102C081918D932F
:100B60008E2F841B8617D0F380E00895909399010F
:100B7000809398010895909397018093960108952A
:100B80001F920F920FB60F9211242F933F934F9302
:100B90005F936F937F938F939F93AF93BF93EF93E5
:100BA000FF938091B90090E0887F90708036910526
:100BB00009F4F2C081369105CCF58832910509F42B
:100BC0007BC089329105B4F48031910509F46FC07E
:100BD000813191053CF4009709F447C1089709F069
:100BE0004FC165C08831910509F466C0809709F04E
:100BF00047C182C08034910509F4A4C081349105B5
:100C000044F48033910509F482C0C89709F038C1D3
:100C100089C08035910509F489C08835910509F4AA
:100C200096C08834910509F02BC1AEC08839910572
:100C300009F413C189399105ECF48837910509F459
:100C4000ABC0893791054CF48836910509F4A4C0EE
:100C50008037910509F014C19FC08838910509F4C7
:100C6000FCC08039910509F49DC08038910509F0D8
:100C700007C198C0803B910509F4C6C0813B91052E
:100C80004CF4803A910509F49FC0883A910509F027
:100C9000F7C0BAC0803C910509F4E3C0883C9105D7
:100CA00009F4DFC0883B910509F0EAC0C2C0809119
:100CB00093018093BB00CFC09091BA018091BB019A
:100CC000981768F49091BA01E92FF0E0E656FE4FCC
:100CD00080818093BB009F5F9093BA01BCC08091DC
:100CE0009401882309F44BC085ED8093BC0080916A
:100CF000BC0084FDFCCFC2C080E28093FF0185ED83
:100D00008093BC008091BC0084FDFCCFB7C080E321
:100D10008093FF0185ED8093BC008091BC0084FD31
:100D2000FCCFACC088E38093FF019BC08091BA01E7
:100D30009091BB00E82FF0E0E656FE4F90838F5F66
:100D40008093BA019091BA018091BB0182C08091D9
:100D5000BA019091BB00E82FF0E0E656FE4F908379
:100D60008F5F8093BA0180919401882341F085EDD3
:100D70008093BC008091BC0084FDFCCF7FC081E0EB
:100D80008093950184EA6EC085ED8093BC008091CC
:100D9000BC0084FDFCCF72C083E08093920110926E
:100DA000FE0159C08091FE01803208F056C080914A
:100DB000FE019091BB00E82FF0E0E252FE4F9083DD
:100DC0008F5F8093FE0147C08091FE01803230F436
:100DD000E091FE01F0E0E252FE4F108285ED80933B
:100DE000BC008091BC0084FDFCCF10929201609108
:100DF000FE01E0919801F09199018EED91E070E093
:100E000009951092FE012DC084E08093920110920A
:100E1000DC011092DD01E0919601F09197010995B6
:100E20008091DD01882329F481E08093DD01109217
:100E3000BC019091DC01E92FF0E0E454FE4F808189
:100E40008093BB009F5F9093DC019091DC018091C7
:100E5000DD01981710F485EC01C085E88093BC0093
:100E60000FC085EC8093BC0009C01092FF0185ED96
:100E70008093BC008091BC0084FDFCCF1092920155
:100E8000FF91EF91BF91AF919F918F917F916F9162
:100E90005F914F913F912F910F900FBE0F901F9038
:100EA00018951092920181E080939401109295011F
:100EB00082E161E00E94CB0883E161E00E94CB08FF
:100EC000E9EBF0E080818E7F808380818D7F80835D
:100ED00088E48093B80085E48093BC0008951F9255
:100EE0000F920FB60F9211242F933F938F939F93DE
:100EF000AF93BF938091040290910502A0910602E6
:100F0000B0910702309108020196A11DB11D232F57
:100F10002D5F2D3720F02D570196A11DB11D209377
:100F200008028093040290930502A0930602B093F6
:100F300007028091000290910102A0910202B091FB
:100F400003020196A11DB11D80930002909301023E
:100F5000A0930202B0930302BF91AF919F918F9132
:100F60003F912F910F900FBE0F901F9018958FB744
:100F7000F8942091040230910502409106025091AC
:100F800007028FBFB901CA010895019739F0880F90
:100F9000991F880F991F02970197F1F70895789488
:100FA00084B5826084BD84B5816084BD85B582606E
:100FB00085BD85B5816085BDEEE6F0E0808181600C
:100FC0008083E1E8F0E0108280818260808380810C
:100FD00081608083E0E8F0E0808181608083E1EBE4
:100FE000F0E0808184608083E0EBF0E080818160CC
:100FF0008083EAE7F0E08081846080838081826082
:10100000808380818160808380818068808310926A
:10101000C1000895982F8E3008F09E5097708091EF
:1010200000018295880F880F807C892B80937C003B
:1010300080917A00806480937A0080917A0086FDA6
:10104000FCCF2091780040917900942F80E030E02F
:10105000282B392BC90108951F93CF93DF93182FA5
:10106000EB0161E00E948C08209709F44AC0CF3F51
:10107000D10509F449C0E12FF0E0E255FF4F84911A
:101080008330C1F0843028F4813051F08230B1F5E2
:101090000CC0863019F1873049F1843079F514C0DD
:1010A00084B5806884BDC7BD33C084B5806284BD0B
:1010B000C8BD2EC080918000806880938000D0934E
:1010C0008900C093880024C0809180008062809352
:1010D0008000D0938B00C0938A001AC08091B0002A
:1010E00080688093B000C093B30012C08091B000BC
:1010F00080628093B000C093B4000AC0C038D105AC
:101100001CF4812F60E002C0812F61E00E94CB08B7
:10111000DF91CF911F910895CF93DF93482F50E037
:10112000CA0186569F4FFC0134914A575F4FFA011E
:101130008491882369F190E0880F991FFC01E85998
:10114000FF4FA591B491FC01EE58FF4FC591D4918A
:10115000662351F42FB7F8948C91932F909589239F
:101160008C93888189230BC0623061F42FB7F89487
:101170008C91932F909589238C938881832B8883DE
:101180002FBF06C09FB7F8948C91832B8C939FBF81
:10119000DF91CF910895482F50E0CA0182559F4FAB
:1011A000FC012491CA0186569F4FFC0194914A5735
:1011B0005F4FFA013491332309F440C0222351F1E7
:1011C000233071F0243028F42130A1F0223011F5C1
:1011D00014C02630B1F02730C1F02430D9F404C057
:1011E000809180008F7703C0809180008F7D8093F5
:1011F000800010C084B58F7702C084B58F7D84BD18
:1012000009C08091B0008F7703C08091B0008F7DBE
:101210008093B000E32FF0E0EE0FFF1FEE58FF4F7A
:10122000A591B4912FB7F894662321F48C919095F1
:10123000892302C08C91892B8C932FBF0895682F2E
:1012400070E0CB0182559F4FFC012491CB01865663
:101250009F4FFC0144916A577F4FFB019491992362
:1012600019F420E030E03CC0222351F1233071F02A
:10127000243028F42130A1F0223011F514C026309A
:10128000B1F02730C1F02430D9F404C0809180003F
:101290008F7703C0809180008F7D8093800010C085
:1012A00084B58F7702C084B58F7D84BD09C08091DD
:1012B000B0008F7703C08091B0008F7D8093B00025
:1012C000892F90E0880F991F84589F4FFC01A591AA
:1012D000B4918C9120E030E0842311F021E030E0E3
:1012E000C90108958F929F92AF92BF92CF92DF92E1
:1012F000EF92FF920F931F93CF93DF93A82FB0E04D
:10130000CD0186569F4FFC018490AA57BF4FFD0127
:101310008491662311F4992401C0982C6FEFA62EB6
:101320006FEFB62E6FEFC62E6FE0D62EA222B3223D
:10133000C422D522682F70E0660F771F64587F4F54
:10134000EE24FF248701FB01A591B4910BC0EA14A0
:10135000FB040C051D0509F44EC00894E11CF11CAA
:10136000011D111D8C918821891589F30CC0EA1487
:10137000FB040C051D0509F43EC00894E11CF11C9A
:10138000011D111D03C0FB01A591B4918C91882111
:10139000891569F720E030E040E050E0FB01C5919D
:1013A000D4910FC0DA01C9018E0D9F1DA01FB11F7E
:1013B0008A159B05AC05BD05F1F02F5F3F4F4F4FE0
:1013C0005F4F88818821891569F3CA01B90125E138
:1013D00030E040E050E00E941D0A9B01AC01205F1C
:1013E0003F4F4F4F5F4F84E0569547953795279570
:1013F0008A95D1F704C020E030E040E050E0B90128
:10140000CA01DF91CF911F910F91FF90EF90DF9074
:10141000CF90BF90AF909F908F900895CF93DF9320
:101420000E94CF070E949902C0E0D0E00E947B0199
:101430002097E1F30E940000F9CF629FD001739FD3
:10144000F001829FE00DF11D649FE00DF11D929F60
:10145000F00D839FF00D749FF00D659FF00D99279F
:10146000729FB00DE11DF91F639FB00DE11DF91FC3
:10147000BD01CF011124089597FB092E07260AD03C
:1014800077FD04D049D006D000201AF470956195FC
:101490007F4F0895F6F7909581959F4F0895A1E2AB
:1014A0001A2EAA1BBB1BFD010DC0AA1FBB1FEE1FDE
:1014B000FF1FA217B307E407F50720F0A21BB30B29
:1014C000E40BF50B661F771F881F991F1A9469F7A5
:1014D00060957095809590959B01AC01BD01CF0101
:1014E000089597FB092E05260ED057FD04D0D7DFAF
:1014F0000AD0001C38F450954095309521953F4F07
:101500004F4F5F4F0895F6F79095809570956195D0
:101510007F4F8F4F9F4F0895AA1BBB1B51E107C000
:10152000AA1FBB1FA617B70710F0A61BB70B881F73
:10153000991F5A95A9F780959095BC01CD01089502
:10154000EE0FFF1F0590F491E02D0994F894FFCF62
:1015500001000000007F044E04CC03D503EA03FB26
:02156000030086
:00000001FF
